{
    "contractName": "Campaign",
    "abi": [
        {
            "inputs": [
                {
                    "internalType": "address",
                    "name": "_creator",
                    "type": "address"
                },
                {
                    "internalType": "uint256",
                    "name": "_approversContribution",
                    "type": "uint256"
                }
            ],
            "stateMutability": "nonpayable",
            "type": "constructor"
        },
        {
            "inputs": [
                {
                    "internalType": "uint32",
                    "name": "_requestNumber",
                    "type": "uint32"
                },
                {
                    "internalType": "bool",
                    "name": "_approved",
                    "type": "bool"
                }
            ],
            "name": "approveRequest",
            "outputs": [],
            "stateMutability": "nonpayable",
            "type": "function"
        },
        {
            "inputs": [
                {
                    "internalType": "address",
                    "name": "",
                    "type": "address"
                }
            ],
            "name": "approvers",
            "outputs": [
                {
                    "internalType": "uint256",
                    "name": "",
                    "type": "uint256"
                }
            ],
            "stateMutability": "view",
            "type": "function"
        },
        {
            "inputs": [],
            "name": "approversAmount",
            "outputs": [
                {
                    "internalType": "uint256",
                    "name": "",
                    "type": "uint256"
                }
            ],
            "stateMutability": "view",
            "type": "function"
        },
        {
            "inputs": [],
            "name": "approversContribution",
            "outputs": [
                {
                    "internalType": "uint256",
                    "name": "",
                    "type": "uint256"
                }
            ],
            "stateMutability": "view",
            "type": "function"
        },
        {
            "inputs": [],
            "name": "contribute",
            "outputs": [],
            "stateMutability": "payable",
            "type": "function"
        },
        {
            "inputs": [
                {
                    "internalType": "string",
                    "name": "_description",
                    "type": "string"
                },
                {
                    "internalType": "uint256",
                    "name": "_value",
                    "type": "uint256"
                },
                {
                    "internalType": "address",
                    "name": "_recipient",
                    "type": "address"
                }
            ],
            "name": "createRequest",
            "outputs": [],
            "stateMutability": "nonpayable",
            "type": "function"
        },
        {
            "inputs": [
                {
                    "internalType": "uint32",
                    "name": "_requestNumber",
                    "type": "uint32"
                }
            ],
            "name": "finalizeRequest",
            "outputs": [],
            "stateMutability": "nonpayable",
            "type": "function"
        },
        {
            "inputs": [],
            "name": "manager",
            "outputs": [
                {
                    "internalType": "address",
                    "name": "",
                    "type": "address"
                }
            ],
            "stateMutability": "view",
            "type": "function"
        },
        {
            "inputs": [],
            "name": "numRequests",
            "outputs": [
                {
                    "internalType": "uint32",
                    "name": "",
                    "type": "uint32"
                }
            ],
            "stateMutability": "view",
            "type": "function"
        },
        {
            "inputs": [
                {
                    "internalType": "uint32",
                    "name": "",
                    "type": "uint32"
                }
            ],
            "name": "requests",
            "outputs": [
                {
                    "internalType": "string",
                    "name": "description",
                    "type": "string"
                },
                {
                    "internalType": "uint256",
                    "name": "value",
                    "type": "uint256"
                },
                {
                    "internalType": "address",
                    "name": "recipient",
                    "type": "address"
                },
                {
                    "internalType": "bool",
                    "name": "complete",
                    "type": "bool"
                },
                {
                    "internalType": "uint256",
                    "name": "approvalRating",
                    "type": "uint256"
                }
            ],
            "stateMutability": "view",
            "type": "function"
        },
        {
            "inputs": [
                {
                    "internalType": "address",
                    "name": "",
                    "type": "address"
                }
            ],
            "name": "supporters",
            "outputs": [
                {
                    "internalType": "uint256",
                    "name": "",
                    "type": "uint256"
                }
            ],
            "stateMutability": "view",
            "type": "function"
        }
    ],
    "bytecode": "608060405234801561001057600080fd5b50604051610d41380380610d4183398101604081905261002f916100ed565b66038d7ea4c680008110156100c45760405162461bcd60e51b815260206004820152604b60248201527f417070726f7665722773206d696e696d756d20636f6e7472696275746f6e206d60448201527f7573742062652067726561746572207468616e206f7220657175616c20746f2060648201526a18171818189022ba3432b960a91b608482015260a40160405180910390fd5b600080546001600160a01b0319166001600160a01b039390931692909217909155600155610127565b6000806040838503121561010057600080fd5b82516001600160a01b038116811461011757600080fd5b6020939093015192949293505050565b610c0b806101366000396000f3fe60806040526004361061009c5760003560e01c8063647c75e211610064578063647c75e21461017657806370cecd56146101a35780638a9cfd55146101c55780639fb42b1f146101e5578063d7bb99ba14610217578063e9188f551461021f57600080fd5b80630a144391146100a15780630ab469b0146100e15780632a4ed00f14610112578063435f110b14610128578063481c6a751461013e575b600080fd5b3480156100ad57600080fd5b506100ce6100bc366004610822565b60036020526000908152604090205481565b6040519081526020015b60405180910390f35b3480156100ed57600080fd5b506101016100fc366004610858565b61023f565b6040516100d8959493929190610873565b34801561011e57600080fd5b506100ce60015481565b34801561013457600080fd5b506100ce60025481565b34801561014a57600080fd5b5060005461015e906001600160a01b031681565b6040516001600160a01b0390911681526020016100d8565b34801561018257600080fd5b506100ce610191366004610822565b60046020526000908152604090205481565b3480156101af57600080fd5b506101c36101be366004610858565b610306565b005b3480156101d157600080fd5b506101c36101e03660046108ff565b610494565b3480156101f157600080fd5b506005546102029063ffffffff1681565b60405163ffffffff90911681526020016100d8565b6101c3610583565b34801561022b57600080fd5b506101c361023a3660046109ca565b6106a8565b60066020526000908152604090208054819061025a90610a06565b80601f016020809104026020016040519081016040528092919081815260200182805461028690610a06565b80156102d35780601f106102a8576101008083540402835291602001916102d3565b820191906000526020600020905b8154815290600101906020018083116102b657829003601f168201915b5050505060018301546002840154600390940154929390926001600160a01b0382169250600160a01b90910460ff169085565b6000546001600160a01b0316331461035b5760405162461bcd60e51b81526020600482015260136024820152724d616e6167657220616363657373206f6e6c7960681b60448201526064015b60405180910390fd5b63ffffffff811660009081526006602052604090206002810154600160a01b900460ff16156103cc5760405162461bcd60e51b815260206004820152601c60248201527f5265717565737420697320616c726561647920636f6d706c65746564000000006044820152606401610352565b600280546103da9190610a56565b81600301541161043c5760405162461bcd60e51b815260206004820152602760248201527f417070726f76616c20726174696e67206d75737420626520677261746572207460448201526668616e2035302560c81b6064820152608401610352565b600281015460018201546040516001600160a01b039092169181156108fc0291906000818181858888f1935050505015801561047c573d6000803e3d6000fd5b50600201805460ff60a01b1916600160a01b17905550565b6000546001600160a01b031633146104e45760405162461bcd60e51b81526020600482015260136024820152724d616e6167657220616363657373206f6e6c7960681b6044820152606401610352565b60058054600091600691839163ffffffff909116908261050383610a78565b91906101000a81548163ffffffff021916908363ffffffff16021790555063ffffffff1663ffffffff16815260200190815260200160002090508381600001908161054e9190610ae9565b5060018101929092556002820180546001600160a81b0319166001600160a01b03909216919091179055600060039091015550565b600034116105e95760405162461bcd60e51b815260206004820152602d60248201527f412076616c696420636f6e747269627574696f6d206d7573742062652061207060448201526c6f7369746976652076616c756560981b6064820152608401610352565b60015434106106245733600090815260036020526040812034908190556002805491929091610619908490610ba9565b909155506106a69050565b3360009081526004602052604081208054349290610643908490610ba9565b909155505060015433600090815260046020526040902054106106a65733600090815260046020908152604080832054600390925282208190556002805491929091610690908490610ba9565b9091555050336000908152600460205260408120555b565b63ffffffff82166000908152600660209081526040808320600154338552600390935292205410156107155760405162461bcd60e51b8152602060048201526016602482015275417070726f7665727320616363657373206f6e6c792160501b6044820152606401610352565b33600090815260048201602052604090205482151560ff90911615150361077e5760405162461bcd60e51b815260206004820152601e60248201527f417070726f76616c20766f746520616c7265616479207265636f7264656400006044820152606401610352565b3360009081526004820160205260409020805460ff191683158015919091179091556107d5573360009081526003602081905260408220549083018054919290916107ca908490610ba9565b909155506108019050565b3360009081526003602081905260408220549083018054919290916107fb908490610bc2565b90915550505b505050565b80356001600160a01b038116811461081d57600080fd5b919050565b60006020828403121561083457600080fd5b61083d82610806565b9392505050565b803563ffffffff8116811461081d57600080fd5b60006020828403121561086a57600080fd5b61083d82610844565b60a08152600086518060a084015260005b818110156108a1576020818a0181015160c0868401015201610884565b50600060c0828501015260c0601f19601f8301168401019150508560208301526108d660408301866001600160a01b03169052565b9215156060820152608001529392505050565b634e487b7160e01b600052604160045260246000fd5b60008060006060848603121561091457600080fd5b833567ffffffffffffffff8082111561092c57600080fd5b818601915086601f83011261094057600080fd5b813581811115610952576109526108e9565b604051601f8201601f19908116603f0116810190838211818310171561097a5761097a6108e9565b8160405282815289602084870101111561099357600080fd5b826020860160208301376000602084830101528097505050505050602084013591506109c160408501610806565b90509250925092565b600080604083850312156109dd57600080fd5b6109e683610844565b9150602083013580151581146109fb57600080fd5b809150509250929050565b600181811c90821680610a1a57607f821691505b602082108103610a3a57634e487b7160e01b600052602260045260246000fd5b50919050565b634e487b7160e01b600052601160045260246000fd5b600082610a7357634e487b7160e01b600052601260045260246000fd5b500490565b600063ffffffff808316818103610a9157610a91610a40565b6001019392505050565b601f82111561080157600081815260208120601f850160051c81016020861015610ac25750805b601f850160051c820191505b81811015610ae157828155600101610ace565b505050505050565b815167ffffffffffffffff811115610b0357610b036108e9565b610b1781610b118454610a06565b84610a9b565b602080601f831160018114610b4c5760008415610b345750858301515b600019600386901b1c1916600185901b178555610ae1565b600085815260208120601f198616915b82811015610b7b57888601518255948401946001909101908401610b5c565b5085821015610b995787850151600019600388901b60f8161c191681555b5050505050600190811b01905550565b80820180821115610bbc57610bbc610a40565b92915050565b81810381811115610bbc57610bbc610a4056fea2646970667358221220421e0e6ff5314f82928067c576c9a3e54059de8a527ab30234ef6b8287c7881764736f6c63430008130033",
    "sourcePath": "/mnt/dddi/FORMACOES/Ethereum/Complete-Developers-Guide/proj03.n-crowdfunding/ethereum/contracts/Campaign.sol",
    "compiler": {
        "name": "solc",
        "version": "0.8.19+commit.7dd6d404"
    },
    "functionHashes": {
        "approveRequest(uint32,bool)": "e9188f55",
        "approvers(address)": "0a144391",
        "approversAmount()": "435f110b",
        "approversContribution()": "2a4ed00f",
        "contribute()": "d7bb99ba",
        "createRequest(string,uint256,address)": "8a9cfd55",
        "finalizeRequest(uint32)": "70cecd56",
        "manager()": "481c6a75",
        "numRequests()": "9fb42b1f",
        "requests(uint32)": "0ab469b0",
        "supporters(address)": "647c75e2"
    },
    "gasEstimates": {
        "creation": {
            "codeDepositCost": "616600",
            "executionCost": "infinite",
            "totalCost": "infinite"
        },
        "external": {
            "approveRequest(uint32,bool)": "57898",
            "approvers(address)": "2509",
            "approversAmount()": "2351",
            "approversContribution()": "2329",
            "contribute()": "48854",
            "createRequest(string,uint256,address)": "infinite",
            "finalizeRequest(uint32)": "infinite",
            "manager()": "2426",
            "numRequests()": "2379",
            "requests(uint32)": "infinite",
            "supporters(address)": "2508"
        }
    }
}