{"abi":[{"inputs":[{"internalType":"address","name":"_creator","type":"address"},{"internalType":"uint256","name":"_approversContribution","type":"uint256"}],"stateMutability":"nonpayable","type":"constructor"},{"inputs":[{"internalType":"uint32","name":"_requestNumber","type":"uint32"},{"internalType":"bool","name":"_approved","type":"bool"}],"name":"approveRequest","outputs":[],"stateMutability":"nonpayable","type":"function"},{"inputs":[{"internalType":"address","name":"","type":"address"}],"name":"approvers","outputs":[{"internalType":"uint256","name":"","type":"uint256"}],"stateMutability":"view","type":"function"},{"inputs":[],"name":"approversAmount","outputs":[{"internalType":"uint256","name":"","type":"uint256"}],"stateMutability":"view","type":"function"},{"inputs":[],"name":"approversContribution","outputs":[{"internalType":"uint256","name":"","type":"uint256"}],"stateMutability":"view","type":"function"},{"inputs":[],"name":"contribute","outputs":[],"stateMutability":"payable","type":"function"},{"inputs":[{"internalType":"string","name":"_description","type":"string"},{"internalType":"uint256","name":"_value","type":"uint256"},{"internalType":"address","name":"_recipient","type":"address"}],"name":"createRequest","outputs":[],"stateMutability":"nonpayable","type":"function"},{"inputs":[{"internalType":"uint32","name":"_requestNumber","type":"uint32"}],"name":"finalizeRequest","outputs":[],"stateMutability":"nonpayable","type":"function"},{"inputs":[],"name":"manager","outputs":[{"internalType":"address","name":"","type":"address"}],"stateMutability":"view","type":"function"},{"inputs":[],"name":"numRequests","outputs":[{"internalType":"uint32","name":"","type":"uint32"}],"stateMutability":"view","type":"function"},{"inputs":[{"internalType":"uint32","name":"","type":"uint32"}],"name":"requests","outputs":[{"internalType":"string","name":"description","type":"string"},{"internalType":"uint256","name":"value","type":"uint256"},{"internalType":"address","name":"recipient","type":"address"},{"internalType":"bool","name":"complete","type":"bool"},{"internalType":"uint256","name":"approvalRating","type":"uint256"}],"stateMutability":"view","type":"function"},{"inputs":[{"internalType":"address","name":"","type":"address"}],"name":"supporters","outputs":[{"internalType":"uint256","name":"","type":"uint256"}],"stateMutability":"view","type":"function"}],"devdoc":{"kind":"dev","methods":{},"version":1},"evm":{"assembly":"    /* \"Campaign.sol\":455:3331  contract Campaign {... */\n  mstore(0x40, 0x80)\n    /* \"Campaign.sol\":1062:1342  constructor(address _creator, uint _approversContribution) {... */\n  callvalue\n  dup1\n  iszero\n  tag_1\n  jumpi\n  0x00\n  dup1\n  revert\ntag_1:\n  pop\n  mload(0x40)\n  sub(codesize, bytecodeSize)\n  dup1\n  bytecodeSize\n  dup4\n  codecopy\n  dup2\n  dup2\n  add\n  0x40\n  mstore\n  dup2\n  add\n  swap1\n  tag_2\n  swap2\n  swap1\n  tag_3\n  jump\t// in\ntag_2:\n    /* \"Campaign.sol\":1165:1171  10**15 */\n  0x038d7ea4c68000\n    /* \"Campaign.sol\":1139:1161  _approversContribution */\n  dup2\n    /* \"Campaign.sol\":1139:1171  _approversContribution >= 10**15 */\n  lt\n  iszero\n    /* \"Campaign.sol\":1131:1251  require(_approversContribution >= 10**15, \"Approver's minimum contributon must be greater than or equal to 0.001 Ether\") */\n  tag_6\n  jumpi\n  mload(0x40)\n  0x08c379a000000000000000000000000000000000000000000000000000000000\n  dup2\n  mstore\n  0x04\n  add\n  tag_7\n  swap1\n  tag_8\n  jump\t// in\ntag_7:\n  mload(0x40)\n  dup1\n  swap2\n  sub\n  swap1\n  revert\ntag_6:\n    /* \"Campaign.sol\":1271:1279  _creator */\n  dup2\n    /* \"Campaign.sol\":1261:1268  manager */\n  0x00\n  dup1\n    /* \"Campaign.sol\":1261:1279  manager = _creator */\n  0x0100\n  exp\n  dup2\n  sload\n  dup2\n  0xffffffffffffffffffffffffffffffffffffffff\n  mul\n  not\n  and\n  swap1\n  dup4\n  0xffffffffffffffffffffffffffffffffffffffff\n  and\n  mul\n  or\n  swap1\n  sstore\n  pop\n    /* \"Campaign.sol\":1313:1335  _approversContribution */\n  dup1\n    /* \"Campaign.sol\":1289:1310  approversContribution */\n  0x01\n    /* \"Campaign.sol\":1289:1335  approversContribution = _approversContribution */\n  dup2\n  swap1\n  sstore\n  pop\n    /* \"Campaign.sol\":1062:1342  constructor(address _creator, uint _approversContribution) {... */\n  pop\n  pop\n    /* \"Campaign.sol\":455:3331  contract Campaign {... */\n  jump(tag_9)\n    /* \"#utility.yul\":88:205   */\ntag_11:\n    /* \"#utility.yul\":197:198   */\n  0x00\n    /* \"#utility.yul\":194:195   */\n  dup1\n    /* \"#utility.yul\":187:199   */\n  revert\n    /* \"#utility.yul\":334:460   */\ntag_13:\n    /* \"#utility.yul\":371:378   */\n  0x00\n    /* \"#utility.yul\":411:453   */\n  0xffffffffffffffffffffffffffffffffffffffff\n    /* \"#utility.yul\":404:409   */\n  dup3\n    /* \"#utility.yul\":400:454   */\n  and\n    /* \"#utility.yul\":389:454   */\n  swap1\n  pop\n    /* \"#utility.yul\":334:460   */\n  swap2\n  swap1\n  pop\n  jump\t// out\n    /* \"#utility.yul\":466:562   */\ntag_14:\n    /* \"#utility.yul\":503:510   */\n  0x00\n    /* \"#utility.yul\":532:556   */\n  tag_29\n    /* \"#utility.yul\":550:555   */\n  dup3\n    /* \"#utility.yul\":532:556   */\n  tag_13\n  jump\t// in\ntag_29:\n    /* \"#utility.yul\":521:556   */\n  swap1\n  pop\n    /* \"#utility.yul\":466:562   */\n  swap2\n  swap1\n  pop\n  jump\t// out\n    /* \"#utility.yul\":568:690   */\ntag_15:\n    /* \"#utility.yul\":641:665   */\n  tag_31\n    /* \"#utility.yul\":659:664   */\n  dup2\n    /* \"#utility.yul\":641:665   */\n  tag_14\n  jump\t// in\ntag_31:\n    /* \"#utility.yul\":634:639   */\n  dup2\n    /* \"#utility.yul\":631:666   */\n  eq\n    /* \"#utility.yul\":621:684   */\n  tag_32\n  jumpi\n    /* \"#utility.yul\":680:681   */\n  0x00\n    /* \"#utility.yul\":677:678   */\n  dup1\n    /* \"#utility.yul\":670:682   */\n  revert\n    /* \"#utility.yul\":621:684   */\ntag_32:\n    /* \"#utility.yul\":568:690   */\n  pop\n  jump\t// out\n    /* \"#utility.yul\":696:839   */\ntag_16:\n    /* \"#utility.yul\":753:758   */\n  0x00\n    /* \"#utility.yul\":784:790   */\n  dup2\n    /* \"#utility.yul\":778:791   */\n  mload\n    /* \"#utility.yul\":769:791   */\n  swap1\n  pop\n    /* \"#utility.yul\":800:833   */\n  tag_34\n    /* \"#utility.yul\":827:832   */\n  dup2\n    /* \"#utility.yul\":800:833   */\n  tag_15\n  jump\t// in\ntag_34:\n    /* \"#utility.yul\":696:839   */\n  swap3\n  swap2\n  pop\n  pop\n  jump\t// out\n    /* \"#utility.yul\":845:922   */\ntag_17:\n    /* \"#utility.yul\":882:889   */\n  0x00\n    /* \"#utility.yul\":911:916   */\n  dup2\n    /* \"#utility.yul\":900:916   */\n  swap1\n  pop\n    /* \"#utility.yul\":845:922   */\n  swap2\n  swap1\n  pop\n  jump\t// out\n    /* \"#utility.yul\":928:1050   */\ntag_18:\n    /* \"#utility.yul\":1001:1025   */\n  tag_37\n    /* \"#utility.yul\":1019:1024   */\n  dup2\n    /* \"#utility.yul\":1001:1025   */\n  tag_17\n  jump\t// in\ntag_37:\n    /* \"#utility.yul\":994:999   */\n  dup2\n    /* \"#utility.yul\":991:1026   */\n  eq\n    /* \"#utility.yul\":981:1044   */\n  tag_38\n  jumpi\n    /* \"#utility.yul\":1040:1041   */\n  0x00\n    /* \"#utility.yul\":1037:1038   */\n  dup1\n    /* \"#utility.yul\":1030:1042   */\n  revert\n    /* \"#utility.yul\":981:1044   */\ntag_38:\n    /* \"#utility.yul\":928:1050   */\n  pop\n  jump\t// out\n    /* \"#utility.yul\":1056:1199   */\ntag_19:\n    /* \"#utility.yul\":1113:1118   */\n  0x00\n    /* \"#utility.yul\":1144:1150   */\n  dup2\n    /* \"#utility.yul\":1138:1151   */\n  mload\n    /* \"#utility.yul\":1129:1151   */\n  swap1\n  pop\n    /* \"#utility.yul\":1160:1193   */\n  tag_40\n    /* \"#utility.yul\":1187:1192   */\n  dup2\n    /* \"#utility.yul\":1160:1193   */\n  tag_18\n  jump\t// in\ntag_40:\n    /* \"#utility.yul\":1056:1199   */\n  swap3\n  swap2\n  pop\n  pop\n  jump\t// out\n    /* \"#utility.yul\":1205:1712   */\ntag_3:\n    /* \"#utility.yul\":1284:1290   */\n  0x00\n    /* \"#utility.yul\":1292:1298   */\n  dup1\n    /* \"#utility.yul\":1341:1343   */\n  0x40\n    /* \"#utility.yul\":1329:1338   */\n  dup4\n    /* \"#utility.yul\":1320:1327   */\n  dup6\n    /* \"#utility.yul\":1316:1339   */\n  sub\n    /* \"#utility.yul\":1312:1344   */\n  slt\n    /* \"#utility.yul\":1309:1428   */\n  iszero\n  tag_42\n  jumpi\n    /* \"#utility.yul\":1347:1426   */\n  tag_43\n  tag_11\n  jump\t// in\ntag_43:\n    /* \"#utility.yul\":1309:1428   */\ntag_42:\n    /* \"#utility.yul\":1467:1468   */\n  0x00\n    /* \"#utility.yul\":1492:1556   */\n  tag_44\n    /* \"#utility.yul\":1548:1555   */\n  dup6\n    /* \"#utility.yul\":1539:1545   */\n  dup3\n    /* \"#utility.yul\":1528:1537   */\n  dup7\n    /* \"#utility.yul\":1524:1546   */\n  add\n    /* \"#utility.yul\":1492:1556   */\n  tag_16\n  jump\t// in\ntag_44:\n    /* \"#utility.yul\":1482:1556   */\n  swap3\n  pop\n    /* \"#utility.yul\":1438:1566   */\n  pop\n    /* \"#utility.yul\":1605:1607   */\n  0x20\n    /* \"#utility.yul\":1631:1695   */\n  tag_45\n    /* \"#utility.yul\":1687:1694   */\n  dup6\n    /* \"#utility.yul\":1678:1684   */\n  dup3\n    /* \"#utility.yul\":1667:1676   */\n  dup7\n    /* \"#utility.yul\":1663:1685   */\n  add\n    /* \"#utility.yul\":1631:1695   */\n  tag_19\n  jump\t// in\ntag_45:\n    /* \"#utility.yul\":1621:1695   */\n  swap2\n  pop\n    /* \"#utility.yul\":1576:1705   */\n  pop\n    /* \"#utility.yul\":1205:1712   */\n  swap3\n  pop\n  swap3\n  swap1\n  pop\n  jump\t// out\n    /* \"#utility.yul\":1718:1887   */\ntag_20:\n    /* \"#utility.yul\":1802:1813   */\n  0x00\n    /* \"#utility.yul\":1836:1842   */\n  dup3\n    /* \"#utility.yul\":1831:1834   */\n  dup3\n    /* \"#utility.yul\":1824:1843   */\n  mstore\n    /* \"#utility.yul\":1876:1880   */\n  0x20\n    /* \"#utility.yul\":1871:1874   */\n  dup3\n    /* \"#utility.yul\":1867:1881   */\n  add\n    /* \"#utility.yul\":1852:1881   */\n  swap1\n  pop\n    /* \"#utility.yul\":1718:1887   */\n  swap3\n  swap2\n  pop\n  pop\n  jump\t// out\n    /* \"#utility.yul\":1893:2192   */\ntag_21:\n    /* \"#utility.yul\":2033:2067   */\n  0x417070726f7665722773206d696e696d756d20636f6e7472696275746f6e206d\n    /* \"#utility.yul\":2029:2030   */\n  0x00\n    /* \"#utility.yul\":2021:2027   */\n  dup3\n    /* \"#utility.yul\":2017:2031   */\n  add\n    /* \"#utility.yul\":2010:2068   */\n  mstore\n    /* \"#utility.yul\":2102:2136   */\n  0x7573742062652067726561746572207468616e206f7220657175616c20746f20\n    /* \"#utility.yul\":2097:2099   */\n  0x20\n    /* \"#utility.yul\":2089:2095   */\n  dup3\n    /* \"#utility.yul\":2085:2100   */\n  add\n    /* \"#utility.yul\":2078:2137   */\n  mstore\n    /* \"#utility.yul\":2171:2184   */\n  0x302e303031204574686572000000000000000000000000000000000000000000\n    /* \"#utility.yul\":2166:2168   */\n  0x40\n    /* \"#utility.yul\":2158:2164   */\n  dup3\n    /* \"#utility.yul\":2154:2169   */\n  add\n    /* \"#utility.yul\":2147:2185   */\n  mstore\n    /* \"#utility.yul\":1893:2192   */\n  pop\n  jump\t// out\n    /* \"#utility.yul\":2198:2564   */\ntag_22:\n    /* \"#utility.yul\":2340:2343   */\n  0x00\n    /* \"#utility.yul\":2361:2428   */\n  tag_49\n    /* \"#utility.yul\":2425:2427   */\n  0x4b\n    /* \"#utility.yul\":2420:2423   */\n  dup4\n    /* \"#utility.yul\":2361:2428   */\n  tag_20\n  jump\t// in\ntag_49:\n    /* \"#utility.yul\":2354:2428   */\n  swap2\n  pop\n    /* \"#utility.yul\":2437:2530   */\n  tag_50\n    /* \"#utility.yul\":2526:2529   */\n  dup3\n    /* \"#utility.yul\":2437:2530   */\n  tag_21\n  jump\t// in\ntag_50:\n    /* \"#utility.yul\":2555:2557   */\n  0x60\n    /* \"#utility.yul\":2550:2553   */\n  dup3\n    /* \"#utility.yul\":2546:2558   */\n  add\n    /* \"#utility.yul\":2539:2558   */\n  swap1\n  pop\n    /* \"#utility.yul\":2198:2564   */\n  swap2\n  swap1\n  pop\n  jump\t// out\n    /* \"#utility.yul\":2570:2989   */\ntag_8:\n    /* \"#utility.yul\":2736:2740   */\n  0x00\n    /* \"#utility.yul\":2774:2776   */\n  0x20\n    /* \"#utility.yul\":2763:2772   */\n  dup3\n    /* \"#utility.yul\":2759:2777   */\n  add\n    /* \"#utility.yul\":2751:2777   */\n  swap1\n  pop\n    /* \"#utility.yul\":2823:2832   */\n  dup2\n    /* \"#utility.yul\":2817:2821   */\n  dup2\n    /* \"#utility.yul\":2813:2833   */\n  sub\n    /* \"#utility.yul\":2809:2810   */\n  0x00\n    /* \"#utility.yul\":2798:2807   */\n  dup4\n    /* \"#utility.yul\":2794:2811   */\n  add\n    /* \"#utility.yul\":2787:2834   */\n  mstore\n    /* \"#utility.yul\":2851:2982   */\n  tag_52\n    /* \"#utility.yul\":2977:2981   */\n  dup2\n    /* \"#utility.yul\":2851:2982   */\n  tag_22\n  jump\t// in\ntag_52:\n    /* \"#utility.yul\":2843:2982   */\n  swap1\n  pop\n    /* \"#utility.yul\":2570:2989   */\n  swap2\n  swap1\n  pop\n  jump\t// out\n    /* \"Campaign.sol\":455:3331  contract Campaign {... */\ntag_9:\n  dataSize(sub_0)\n  dup1\n  dataOffset(sub_0)\n  0x00\n  codecopy\n  0x00\n  return\nstop\n\nsub_0: assembly {\n        /* \"Campaign.sol\":455:3331  contract Campaign {... */\n      mstore(0x40, 0x80)\n      jumpi(tag_1, lt(calldatasize, 0x04))\n      shr(0xe0, calldataload(0x00))\n      dup1\n      0x647c75e2\n      gt\n      tag_13\n      jumpi\n      dup1\n      0x647c75e2\n      eq\n      tag_7\n      jumpi\n      dup1\n      0x70cecd56\n      eq\n      tag_8\n      jumpi\n      dup1\n      0x8a9cfd55\n      eq\n      tag_9\n      jumpi\n      dup1\n      0x9fb42b1f\n      eq\n      tag_10\n      jumpi\n      dup1\n      0xd7bb99ba\n      eq\n      tag_11\n      jumpi\n      dup1\n      0xe9188f55\n      eq\n      tag_12\n      jumpi\n      jump(tag_1)\n    tag_13:\n      dup1\n      0x0a144391\n      eq\n      tag_2\n      jumpi\n      dup1\n      0x0ab469b0\n      eq\n      tag_3\n      jumpi\n      dup1\n      0x2a4ed00f\n      eq\n      tag_4\n      jumpi\n      dup1\n      0x435f110b\n      eq\n      tag_5\n      jumpi\n      dup1\n      0x481c6a75\n      eq\n      tag_6\n      jumpi\n    tag_1:\n      0x00\n      dup1\n      revert\n        /* \"Campaign.sol\":778:819  mapping(address => uint) public approvers */\n    tag_2:\n      callvalue\n      dup1\n      iszero\n      tag_14\n      jumpi\n      0x00\n      dup1\n      revert\n    tag_14:\n      pop\n      tag_15\n      0x04\n      dup1\n      calldatasize\n      sub\n      dup2\n      add\n      swap1\n      tag_16\n      swap2\n      swap1\n      tag_17\n      jump\t// in\n    tag_16:\n      tag_18\n      jump\t// in\n    tag_15:\n      mload(0x40)\n      tag_19\n      swap2\n      swap1\n      tag_20\n      jump\t// in\n    tag_19:\n      mload(0x40)\n      dup1\n      swap2\n      sub\n      swap1\n      return\n        /* \"Campaign.sol\":904:946  mapping(uint32 => Request) public requests */\n    tag_3:\n      callvalue\n      dup1\n      iszero\n      tag_21\n      jumpi\n      0x00\n      dup1\n      revert\n    tag_21:\n      pop\n      tag_22\n      0x04\n      dup1\n      calldatasize\n      sub\n      dup2\n      add\n      swap1\n      tag_23\n      swap2\n      swap1\n      tag_24\n      jump\t// in\n    tag_23:\n      tag_25\n      jump\t// in\n    tag_22:\n      mload(0x40)\n      tag_26\n      swap6\n      swap5\n      swap4\n      swap3\n      swap2\n      swap1\n      tag_27\n      jump\t// in\n    tag_26:\n      mload(0x40)\n      dup1\n      swap2\n      sub\n      swap1\n      return\n        /* \"Campaign.sol\":706:739  uint public approversContribution */\n    tag_4:\n      callvalue\n      dup1\n      iszero\n      tag_28\n      jumpi\n      0x00\n      dup1\n      revert\n    tag_28:\n      pop\n      tag_29\n      tag_30\n      jump\t// in\n    tag_29:\n      mload(0x40)\n      tag_31\n      swap2\n      swap1\n      tag_20\n      jump\t// in\n    tag_31:\n      mload(0x40)\n      dup1\n      swap2\n      sub\n      swap1\n      return\n        /* \"Campaign.sol\":745:772  uint public approversAmount */\n    tag_5:\n      callvalue\n      dup1\n      iszero\n      tag_32\n      jumpi\n      0x00\n      dup1\n      revert\n    tag_32:\n      pop\n      tag_33\n      tag_34\n      jump\t// in\n    tag_33:\n      mload(0x40)\n      tag_35\n      swap2\n      swap1\n      tag_20\n      jump\t// in\n    tag_35:\n      mload(0x40)\n      dup1\n      swap2\n      sub\n      swap1\n      return\n        /* \"Campaign.sol\":678:700  address public manager */\n    tag_6:\n      callvalue\n      dup1\n      iszero\n      tag_36\n      jumpi\n      0x00\n      dup1\n      revert\n    tag_36:\n      pop\n      tag_37\n      tag_38\n      jump\t// in\n    tag_37:\n      mload(0x40)\n      tag_39\n      swap2\n      swap1\n      tag_40\n      jump\t// in\n    tag_39:\n      mload(0x40)\n      dup1\n      swap2\n      sub\n      swap1\n      return\n        /* \"Campaign.sol\":825:867  mapping(address => uint) public supporters */\n    tag_7:\n      callvalue\n      dup1\n      iszero\n      tag_41\n      jumpi\n      0x00\n      dup1\n      revert\n    tag_41:\n      pop\n      tag_42\n      0x04\n      dup1\n      calldatasize\n      sub\n      dup2\n      add\n      swap1\n      tag_43\n      swap2\n      swap1\n      tag_17\n      jump\t// in\n    tag_43:\n      tag_44\n      jump\t// in\n    tag_42:\n      mload(0x40)\n      tag_45\n      swap2\n      swap1\n      tag_20\n      jump\t// in\n    tag_45:\n      mload(0x40)\n      dup1\n      swap2\n      sub\n      swap1\n      return\n        /* \"Campaign.sol\":2927:3329  function finalizeRequest(uint32 _requestNumber) public restricted {... */\n    tag_8:\n      callvalue\n      dup1\n      iszero\n      tag_46\n      jumpi\n      0x00\n      dup1\n      revert\n    tag_46:\n      pop\n      tag_47\n      0x04\n      dup1\n      calldatasize\n      sub\n      dup2\n      add\n      swap1\n      tag_48\n      swap2\n      swap1\n      tag_24\n      jump\t// in\n    tag_48:\n      tag_49\n      jump\t// in\n    tag_47:\n      stop\n        /* \"Campaign.sol\":1995:2367  function createRequest(string memory _description, uint _value, address _recipient) public restricted {... */\n    tag_9:\n      callvalue\n      dup1\n      iszero\n      tag_50\n      jumpi\n      0x00\n      dup1\n      revert\n    tag_50:\n      pop\n      tag_51\n      0x04\n      dup1\n      calldatasize\n      sub\n      dup2\n      add\n      swap1\n      tag_52\n      swap2\n      swap1\n      tag_53\n      jump\t// in\n    tag_52:\n      tag_54\n      jump\t// in\n    tag_51:\n      stop\n        /* \"Campaign.sol\":873:898  uint32 public numRequests */\n    tag_10:\n      callvalue\n      dup1\n      iszero\n      tag_55\n      jumpi\n      0x00\n      dup1\n      revert\n    tag_55:\n      pop\n      tag_56\n      tag_57\n      jump\t// in\n    tag_56:\n      mload(0x40)\n      tag_58\n      swap2\n      swap1\n      tag_59\n      jump\t// in\n    tag_58:\n      mload(0x40)\n      dup1\n      swap2\n      sub\n      swap1\n      return\n        /* \"Campaign.sol\":1348:1989  function contribute() public payable {... */\n    tag_11:\n      tag_60\n      tag_61\n      jump\t// in\n    tag_60:\n      stop\n        /* \"Campaign.sol\":2373:2921  function approveRequest(uint32 _requestNumber, bool _approved) public {... */\n    tag_12:\n      callvalue\n      dup1\n      iszero\n      tag_62\n      jumpi\n      0x00\n      dup1\n      revert\n    tag_62:\n      pop\n      tag_63\n      0x04\n      dup1\n      calldatasize\n      sub\n      dup2\n      add\n      swap1\n      tag_64\n      swap2\n      swap1\n      tag_65\n      jump\t// in\n    tag_64:\n      tag_66\n      jump\t// in\n    tag_63:\n      stop\n        /* \"Campaign.sol\":778:819  mapping(address => uint) public approvers */\n    tag_18:\n      mstore(0x20, 0x03)\n      dup1\n      0x00\n      mstore\n      keccak256(0x00, 0x40)\n      0x00\n      swap2\n      pop\n      swap1\n      pop\n      sload\n      dup2\n      jump\t// out\n        /* \"Campaign.sol\":904:946  mapping(uint32 => Request) public requests */\n    tag_25:\n      mstore(0x20, 0x06)\n      dup1\n      0x00\n      mstore\n      keccak256(0x00, 0x40)\n      0x00\n      swap2\n      pop\n      swap1\n      pop\n      dup1\n      0x00\n      add\n      dup1\n      sload\n      tag_67\n      swap1\n      tag_68\n      jump\t// in\n    tag_67:\n      dup1\n      0x1f\n      add\n      0x20\n      dup1\n      swap2\n      div\n      mul\n      0x20\n      add\n      mload(0x40)\n      swap1\n      dup2\n      add\n      0x40\n      mstore\n      dup1\n      swap3\n      swap2\n      swap1\n      dup2\n      dup2\n      mstore\n      0x20\n      add\n      dup3\n      dup1\n      sload\n      tag_69\n      swap1\n      tag_68\n      jump\t// in\n    tag_69:\n      dup1\n      iszero\n      tag_70\n      jumpi\n      dup1\n      0x1f\n      lt\n      tag_71\n      jumpi\n      0x0100\n      dup1\n      dup4\n      sload\n      div\n      mul\n      dup4\n      mstore\n      swap2\n      0x20\n      add\n      swap2\n      jump(tag_70)\n    tag_71:\n      dup3\n      add\n      swap2\n      swap1\n      0x00\n      mstore\n      keccak256(0x00, 0x20)\n      swap1\n    tag_72:\n      dup2\n      sload\n      dup2\n      mstore\n      swap1\n      0x01\n      add\n      swap1\n      0x20\n      add\n      dup1\n      dup4\n      gt\n      tag_72\n      jumpi\n      dup3\n      swap1\n      sub\n      0x1f\n      and\n      dup3\n      add\n      swap2\n    tag_70:\n      pop\n      pop\n      pop\n      pop\n      pop\n      swap1\n      dup1\n      0x01\n      add\n      sload\n      swap1\n      dup1\n      0x02\n      add\n      0x00\n      swap1\n      sload\n      swap1\n      0x0100\n      exp\n      swap1\n      div\n      0xffffffffffffffffffffffffffffffffffffffff\n      and\n      swap1\n      dup1\n      0x02\n      add\n      0x14\n      swap1\n      sload\n      swap1\n      0x0100\n      exp\n      swap1\n      div\n      0xff\n      and\n      swap1\n      dup1\n      0x03\n      add\n      sload\n      swap1\n      pop\n      dup6\n      jump\t// out\n        /* \"Campaign.sol\":706:739  uint public approversContribution */\n    tag_30:\n      sload(0x01)\n      dup2\n      jump\t// out\n        /* \"Campaign.sol\":745:772  uint public approversAmount */\n    tag_34:\n      sload(0x02)\n      dup2\n      jump\t// out\n        /* \"Campaign.sol\":678:700  address public manager */\n    tag_38:\n      0x00\n      dup1\n      sload\n      swap1\n      0x0100\n      exp\n      swap1\n      div\n      0xffffffffffffffffffffffffffffffffffffffff\n      and\n      dup2\n      jump\t// out\n        /* \"Campaign.sol\":825:867  mapping(address => uint) public supporters */\n    tag_44:\n      mstore(0x20, 0x04)\n      dup1\n      0x00\n      mstore\n      keccak256(0x00, 0x40)\n      0x00\n      swap2\n      pop\n      swap1\n      pop\n      sload\n      dup2\n      jump\t// out\n        /* \"Campaign.sol\":2927:3329  function finalizeRequest(uint32 _requestNumber) public restricted {... */\n    tag_49:\n        /* \"Campaign.sol\":1007:1014  manager */\n      0x00\n      dup1\n      sload\n      swap1\n      0x0100\n      exp\n      swap1\n      div\n      0xffffffffffffffffffffffffffffffffffffffff\n      and\n        /* \"Campaign.sol\":993:1014  msg.sender == manager */\n      0xffffffffffffffffffffffffffffffffffffffff\n      and\n        /* \"Campaign.sol\":993:1003  msg.sender */\n      caller\n        /* \"Campaign.sol\":993:1014  msg.sender == manager */\n      0xffffffffffffffffffffffffffffffffffffffff\n      and\n      eq\n        /* \"Campaign.sol\":985:1038  require(msg.sender == manager, \"Manager access only\") */\n      tag_74\n      jumpi\n      mload(0x40)\n      0x08c379a000000000000000000000000000000000000000000000000000000000\n      dup2\n      mstore\n      0x04\n      add\n      tag_75\n      swap1\n      tag_76\n      jump\t// in\n    tag_75:\n      mload(0x40)\n      dup1\n      swap2\n      sub\n      swap1\n      revert\n    tag_74:\n        /* \"Campaign.sol\":3003:3026  Request storage request */\n      0x00\n        /* \"Campaign.sol\":3029:3037  requests */\n      0x06\n        /* \"Campaign.sol\":3029:3053  requests[_requestNumber] */\n      0x00\n        /* \"Campaign.sol\":3038:3052  _requestNumber */\n      dup4\n        /* \"Campaign.sol\":3029:3053  requests[_requestNumber] */\n      0xffffffff\n      and\n      0xffffffff\n      and\n      dup2\n      mstore\n      0x20\n      add\n      swap1\n      dup2\n      mstore\n      0x20\n      add\n      0x00\n      keccak256\n        /* \"Campaign.sol\":3003:3053  Request storage request = requests[_requestNumber] */\n      swap1\n      pop\n        /* \"Campaign.sol\":3072:3079  request */\n      dup1\n        /* \"Campaign.sol\":3072:3088  request.complete */\n      0x02\n      add\n      0x14\n      swap1\n      sload\n      swap1\n      0x0100\n      exp\n      swap1\n      div\n      0xff\n      and\n        /* \"Campaign.sol\":3071:3088  !request.complete */\n      iszero\n        /* \"Campaign.sol\":3063:3121  require(!request.complete, \"Request is already completed\") */\n      tag_78\n      jumpi\n      mload(0x40)\n      0x08c379a000000000000000000000000000000000000000000000000000000000\n      dup2\n      mstore\n      0x04\n      add\n      tag_79\n      swap1\n      tag_80\n      jump\t// in\n    tag_79:\n      mload(0x40)\n      dup1\n      swap2\n      sub\n      swap1\n      revert\n    tag_78:\n        /* \"Campaign.sol\":3183:3184  2 */\n      0x02\n        /* \"Campaign.sol\":3165:3180  approversAmount */\n      dup1\n      sload\n        /* \"Campaign.sol\":3165:3184  approversAmount / 2 */\n      tag_81\n      swap2\n      swap1\n      tag_82\n      jump\t// in\n    tag_81:\n        /* \"Campaign.sol\":3139:3146  request */\n      dup2\n        /* \"Campaign.sol\":3139:3161  request.approvalRating */\n      0x03\n      add\n      sload\n        /* \"Campaign.sol\":3139:3185  request.approvalRating > (approversAmount / 2) */\n      gt\n        /* \"Campaign.sol\":3131:3229  require(request.approvalRating > (approversAmount / 2), \"Approval rating must be grater than 50%\") */\n      tag_83\n      jumpi\n      mload(0x40)\n      0x08c379a000000000000000000000000000000000000000000000000000000000\n      dup2\n      mstore\n      0x04\n      add\n      tag_84\n      swap1\n      tag_85\n      jump\t// in\n    tag_84:\n      mload(0x40)\n      dup1\n      swap2\n      sub\n      swap1\n      revert\n    tag_83:\n        /* \"Campaign.sol\":3247:3254  request */\n      dup1\n        /* \"Campaign.sol\":3247:3264  request.recipient */\n      0x02\n      add\n      0x00\n      swap1\n      sload\n      swap1\n      0x0100\n      exp\n      swap1\n      div\n      0xffffffffffffffffffffffffffffffffffffffff\n      and\n        /* \"Campaign.sol\":3239:3274  payable(request.recipient).transfer */\n      0xffffffffffffffffffffffffffffffffffffffff\n      and\n        /* \"Campaign.sol\":3239:3289  payable(request.recipient).transfer(request.value) */\n      0x08fc\n        /* \"Campaign.sol\":3275:3282  request */\n      dup3\n        /* \"Campaign.sol\":3275:3288  request.value */\n      0x01\n      add\n      sload\n        /* \"Campaign.sol\":3239:3289  payable(request.recipient).transfer(request.value) */\n      swap1\n      dup2\n      iszero\n      mul\n      swap1\n      mload(0x40)\n      0x00\n      mload(0x40)\n      dup1\n      dup4\n      sub\n      dup2\n      dup6\n      dup9\n      dup9\n      call\n      swap4\n      pop\n      pop\n      pop\n      pop\n      iszero\n      dup1\n      iszero\n      tag_87\n      jumpi\n      returndatasize\n      0x00\n      dup1\n      returndatacopy\n      revert(0x00, returndatasize)\n    tag_87:\n      pop\n        /* \"Campaign.sol\":3318:3322  true */\n      0x01\n        /* \"Campaign.sol\":3299:3306  request */\n      dup2\n        /* \"Campaign.sol\":3299:3315  request.complete */\n      0x02\n      add\n      0x14\n        /* \"Campaign.sol\":3299:3322  request.complete = true */\n      0x0100\n      exp\n      dup2\n      sload\n      dup2\n      0xff\n      mul\n      not\n      and\n      swap1\n      dup4\n      iszero\n      iszero\n      mul\n      or\n      swap1\n      sstore\n      pop\n        /* \"Campaign.sol\":2993:3329  {... */\n      pop\n        /* \"Campaign.sol\":2927:3329  function finalizeRequest(uint32 _requestNumber) public restricted {... */\n      pop\n      jump\t// out\n        /* \"Campaign.sol\":1995:2367  function createRequest(string memory _description, uint _value, address _recipient) public restricted {... */\n    tag_54:\n        /* \"Campaign.sol\":1007:1014  manager */\n      0x00\n      dup1\n      sload\n      swap1\n      0x0100\n      exp\n      swap1\n      div\n      0xffffffffffffffffffffffffffffffffffffffff\n      and\n        /* \"Campaign.sol\":993:1014  msg.sender == manager */\n      0xffffffffffffffffffffffffffffffffffffffff\n      and\n        /* \"Campaign.sol\":993:1003  msg.sender */\n      caller\n        /* \"Campaign.sol\":993:1014  msg.sender == manager */\n      0xffffffffffffffffffffffffffffffffffffffff\n      and\n      eq\n        /* \"Campaign.sol\":985:1038  require(msg.sender == manager, \"Manager access only\") */\n      tag_89\n      jumpi\n      mload(0x40)\n      0x08c379a000000000000000000000000000000000000000000000000000000000\n      dup2\n      mstore\n      0x04\n      add\n      tag_90\n      swap1\n      tag_76\n      jump\t// in\n    tag_90:\n      mload(0x40)\n      dup1\n      swap2\n      sub\n      swap1\n      revert\n    tag_89:\n        /* \"Campaign.sol\":2107:2133  Request storage newRequest */\n      0x00\n        /* \"Campaign.sol\":2136:2144  requests */\n      0x06\n        /* \"Campaign.sol\":2136:2159  requests[numRequests++] */\n      0x00\n        /* \"Campaign.sol\":2145:2156  numRequests */\n      0x05\n      0x00\n        /* \"Campaign.sol\":2145:2158  numRequests++ */\n      dup2\n      dup2\n      swap1\n      sload\n      swap1\n      0x0100\n      exp\n      swap1\n      div\n      0xffffffff\n      and\n      dup1\n      swap3\n      swap2\n      swap1\n      tag_92\n      swap1\n      tag_93\n      jump\t// in\n    tag_92:\n      swap2\n      swap1\n      0x0100\n      exp\n      dup2\n      sload\n      dup2\n      0xffffffff\n      mul\n      not\n      and\n      swap1\n      dup4\n      0xffffffff\n      and\n      mul\n      or\n      swap1\n      sstore\n      pop\n        /* \"Campaign.sol\":2136:2159  requests[numRequests++] */\n      0xffffffff\n      and\n      0xffffffff\n      and\n      dup2\n      mstore\n      0x20\n      add\n      swap1\n      dup2\n      mstore\n      0x20\n      add\n      0x00\n      keccak256\n        /* \"Campaign.sol\":2107:2159  Request storage newRequest = requests[numRequests++] */\n      swap1\n      pop\n        /* \"Campaign.sol\":2194:2206  _description */\n      dup4\n        /* \"Campaign.sol\":2169:2179  newRequest */\n      dup2\n        /* \"Campaign.sol\":2169:2191  newRequest.description */\n      0x00\n      add\n        /* \"Campaign.sol\":2169:2206  newRequest.description = _description */\n      swap1\n      dup2\n      tag_94\n      swap2\n      swap1\n      tag_95\n      jump\t// in\n    tag_94:\n      pop\n        /* \"Campaign.sol\":2235:2241  _value */\n      dup3\n        /* \"Campaign.sol\":2216:2226  newRequest */\n      dup2\n        /* \"Campaign.sol\":2216:2232  newRequest.value */\n      0x01\n      add\n        /* \"Campaign.sol\":2216:2241  newRequest.value = _value */\n      dup2\n      swap1\n      sstore\n      pop\n        /* \"Campaign.sol\":2274:2284  _recipient */\n      dup2\n        /* \"Campaign.sol\":2251:2261  newRequest */\n      dup2\n        /* \"Campaign.sol\":2251:2271  newRequest.recipient */\n      0x02\n      add\n      0x00\n        /* \"Campaign.sol\":2251:2284  newRequest.recipient = _recipient */\n      0x0100\n      exp\n      dup2\n      sload\n      dup2\n      0xffffffffffffffffffffffffffffffffffffffff\n      mul\n      not\n      and\n      swap1\n      dup4\n      0xffffffffffffffffffffffffffffffffffffffff\n      and\n      mul\n      or\n      swap1\n      sstore\n      pop\n        /* \"Campaign.sol\":2316:2321  false */\n      0x00\n        /* \"Campaign.sol\":2294:2304  newRequest */\n      dup2\n        /* \"Campaign.sol\":2294:2313  newRequest.complete */\n      0x02\n      add\n      0x14\n        /* \"Campaign.sol\":2294:2321  newRequest.complete = false */\n      0x0100\n      exp\n      dup2\n      sload\n      dup2\n      0xff\n      mul\n      not\n      and\n      swap1\n      dup4\n      iszero\n      iszero\n      mul\n      or\n      swap1\n      sstore\n      pop\n        /* \"Campaign.sol\":2359:2360  0 */\n      0x00\n        /* \"Campaign.sol\":2331:2341  newRequest */\n      dup2\n        /* \"Campaign.sol\":2331:2356  newRequest.approvalRating */\n      0x03\n      add\n        /* \"Campaign.sol\":2331:2360  newRequest.approvalRating = 0 */\n      dup2\n      swap1\n      sstore\n      pop\n        /* \"Campaign.sol\":2097:2367  {... */\n      pop\n        /* \"Campaign.sol\":1995:2367  function createRequest(string memory _description, uint _value, address _recipient) public restricted {... */\n      pop\n      pop\n      pop\n      jump\t// out\n        /* \"Campaign.sol\":873:898  uint32 public numRequests */\n    tag_57:\n      0x05\n      0x00\n      swap1\n      sload\n      swap1\n      0x0100\n      exp\n      swap1\n      div\n      0xffffffff\n      and\n      dup2\n      jump\t// out\n        /* \"Campaign.sol\":1348:1989  function contribute() public payable {... */\n    tag_61:\n        /* \"Campaign.sol\":1415:1416  0 */\n      0x00\n        /* \"Campaign.sol\":1403:1412  msg.value */\n      callvalue\n        /* \"Campaign.sol\":1403:1416  msg.value > 0 */\n      gt\n        /* \"Campaign.sol\":1395:1466  require(msg.value > 0, \"A valid contributiom must be a positive value\") */\n      tag_97\n      jumpi\n      mload(0x40)\n      0x08c379a000000000000000000000000000000000000000000000000000000000\n      dup2\n      mstore\n      0x04\n      add\n      tag_98\n      swap1\n      tag_99\n      jump\t// in\n    tag_98:\n      mload(0x40)\n      dup1\n      swap2\n      sub\n      swap1\n      revert\n    tag_97:\n        /* \"Campaign.sol\":1493:1514  approversContribution */\n      sload(0x01)\n        /* \"Campaign.sol\":1480:1489  msg.value */\n      callvalue\n        /* \"Campaign.sol\":1480:1514  msg.value >= approversContribution */\n      lt\n        /* \"Campaign.sol\":1476:1983  if (msg.value >= approversContribution) {... */\n      tag_100\n      jumpi\n        /* \"Campaign.sol\":1554:1563  msg.value */\n      callvalue\n        /* \"Campaign.sol\":1530:1539  approvers */\n      0x03\n        /* \"Campaign.sol\":1530:1551  approvers[msg.sender] */\n      0x00\n        /* \"Campaign.sol\":1540:1550  msg.sender */\n      caller\n        /* \"Campaign.sol\":1530:1551  approvers[msg.sender] */\n      0xffffffffffffffffffffffffffffffffffffffff\n      and\n      0xffffffffffffffffffffffffffffffffffffffff\n      and\n      dup2\n      mstore\n      0x20\n      add\n      swap1\n      dup2\n      mstore\n      0x20\n      add\n      0x00\n      keccak256\n        /* \"Campaign.sol\":1530:1563  approvers[msg.sender] = msg.value */\n      dup2\n      swap1\n      sstore\n      pop\n        /* \"Campaign.sol\":1596:1605  msg.value */\n      callvalue\n        /* \"Campaign.sol\":1577:1592  approversAmount */\n      0x02\n      0x00\n        /* \"Campaign.sol\":1577:1605  approversAmount += msg.value */\n      dup3\n      dup3\n      sload\n      tag_101\n      swap2\n      swap1\n      tag_102\n      jump\t// in\n    tag_101:\n      swap3\n      pop\n      pop\n      dup2\n      swap1\n      sstore\n      pop\n        /* \"Campaign.sol\":1476:1983  if (msg.value >= approversContribution) {... */\n      jump(tag_103)\n    tag_100:\n        /* \"Campaign.sol\":1662:1671  msg.value */\n      callvalue\n        /* \"Campaign.sol\":1636:1646  supporters */\n      0x04\n        /* \"Campaign.sol\":1636:1658  supporters[msg.sender] */\n      0x00\n        /* \"Campaign.sol\":1647:1657  msg.sender */\n      caller\n        /* \"Campaign.sol\":1636:1658  supporters[msg.sender] */\n      0xffffffffffffffffffffffffffffffffffffffff\n      and\n      0xffffffffffffffffffffffffffffffffffffffff\n      and\n      dup2\n      mstore\n      0x20\n      add\n      swap1\n      dup2\n      mstore\n      0x20\n      add\n      0x00\n      keccak256\n      0x00\n        /* \"Campaign.sol\":1636:1671  supporters[msg.sender] += msg.value */\n      dup3\n      dup3\n      sload\n      tag_104\n      swap2\n      swap1\n      tag_102\n      jump\t// in\n    tag_104:\n      swap3\n      pop\n      pop\n      dup2\n      swap1\n      sstore\n      pop\n        /* \"Campaign.sol\":1769:1790  approversContribution */\n      sload(0x01)\n        /* \"Campaign.sol\":1743:1753  supporters */\n      0x04\n        /* \"Campaign.sol\":1743:1765  supporters[msg.sender] */\n      0x00\n        /* \"Campaign.sol\":1754:1764  msg.sender */\n      caller\n        /* \"Campaign.sol\":1743:1765  supporters[msg.sender] */\n      0xffffffffffffffffffffffffffffffffffffffff\n      and\n      0xffffffffffffffffffffffffffffffffffffffff\n      and\n      dup2\n      mstore\n      0x20\n      add\n      swap1\n      dup2\n      mstore\n      0x20\n      add\n      0x00\n      keccak256\n      sload\n        /* \"Campaign.sol\":1743:1790  supporters[msg.sender] >= approversContribution */\n      lt\n        /* \"Campaign.sol\":1739:1973  if (supporters[msg.sender] >= approversContribution) {... */\n      tag_105\n      jumpi\n        /* \"Campaign.sol\":1834:1844  supporters */\n      0x04\n        /* \"Campaign.sol\":1834:1856  supporters[msg.sender] */\n      0x00\n        /* \"Campaign.sol\":1845:1855  msg.sender */\n      caller\n        /* \"Campaign.sol\":1834:1856  supporters[msg.sender] */\n      0xffffffffffffffffffffffffffffffffffffffff\n      and\n      0xffffffffffffffffffffffffffffffffffffffff\n      and\n      dup2\n      mstore\n      0x20\n      add\n      swap1\n      dup2\n      mstore\n      0x20\n      add\n      0x00\n      keccak256\n      sload\n        /* \"Campaign.sol\":1810:1819  approvers */\n      0x03\n        /* \"Campaign.sol\":1810:1831  approvers[msg.sender] */\n      0x00\n        /* \"Campaign.sol\":1820:1830  msg.sender */\n      caller\n        /* \"Campaign.sol\":1810:1831  approvers[msg.sender] */\n      0xffffffffffffffffffffffffffffffffffffffff\n      and\n      0xffffffffffffffffffffffffffffffffffffffff\n      and\n      dup2\n      mstore\n      0x20\n      add\n      swap1\n      dup2\n      mstore\n      0x20\n      add\n      0x00\n      keccak256\n        /* \"Campaign.sol\":1810:1856  approvers[msg.sender] = supporters[msg.sender] */\n      dup2\n      swap1\n      sstore\n      pop\n        /* \"Campaign.sol\":1893:1902  approvers */\n      0x03\n        /* \"Campaign.sol\":1893:1914  approvers[msg.sender] */\n      0x00\n        /* \"Campaign.sol\":1903:1913  msg.sender */\n      caller\n        /* \"Campaign.sol\":1893:1914  approvers[msg.sender] */\n      0xffffffffffffffffffffffffffffffffffffffff\n      and\n      0xffffffffffffffffffffffffffffffffffffffff\n      and\n      dup2\n      mstore\n      0x20\n      add\n      swap1\n      dup2\n      mstore\n      0x20\n      add\n      0x00\n      keccak256\n      sload\n        /* \"Campaign.sol\":1874:1889  approversAmount */\n      0x02\n      0x00\n        /* \"Campaign.sol\":1874:1914  approversAmount += approvers[msg.sender] */\n      dup3\n      dup3\n      sload\n      tag_106\n      swap2\n      swap1\n      tag_102\n      jump\t// in\n    tag_106:\n      swap3\n      pop\n      pop\n      dup2\n      swap1\n      sstore\n      pop\n        /* \"Campaign.sol\":1957:1958  0 */\n      0x00\n        /* \"Campaign.sol\":1932:1942  supporters */\n      0x04\n        /* \"Campaign.sol\":1932:1954  supporters[msg.sender] */\n      0x00\n        /* \"Campaign.sol\":1943:1953  msg.sender */\n      caller\n        /* \"Campaign.sol\":1932:1954  supporters[msg.sender] */\n      0xffffffffffffffffffffffffffffffffffffffff\n      and\n      0xffffffffffffffffffffffffffffffffffffffff\n      and\n      dup2\n      mstore\n      0x20\n      add\n      swap1\n      dup2\n      mstore\n      0x20\n      add\n      0x00\n      keccak256\n        /* \"Campaign.sol\":1932:1958  supporters[msg.sender] = 0 */\n      dup2\n      swap1\n      sstore\n      pop\n        /* \"Campaign.sol\":1739:1973  if (supporters[msg.sender] >= approversContribution) {... */\n    tag_105:\n        /* \"Campaign.sol\":1476:1983  if (msg.value >= approversContribution) {... */\n    tag_103:\n        /* \"Campaign.sol\":1348:1989  function contribute() public payable {... */\n      jump\t// out\n        /* \"Campaign.sol\":2373:2921  function approveRequest(uint32 _requestNumber, bool _approved) public {... */\n    tag_66:\n        /* \"Campaign.sol\":2453:2476  Request storage request */\n      0x00\n        /* \"Campaign.sol\":2479:2487  requests */\n      0x06\n        /* \"Campaign.sol\":2479:2503  requests[_requestNumber] */\n      0x00\n        /* \"Campaign.sol\":2488:2502  _requestNumber */\n      dup5\n        /* \"Campaign.sol\":2479:2503  requests[_requestNumber] */\n      0xffffffff\n      and\n      0xffffffff\n      and\n      dup2\n      mstore\n      0x20\n      add\n      swap1\n      dup2\n      mstore\n      0x20\n      add\n      0x00\n      keccak256\n        /* \"Campaign.sol\":2453:2503  Request storage request = requests[_requestNumber] */\n      swap1\n      pop\n        /* \"Campaign.sol\":2546:2567  approversContribution */\n      sload(0x01)\n        /* \"Campaign.sol\":2521:2530  approvers */\n      0x03\n        /* \"Campaign.sol\":2521:2542  approvers[msg.sender] */\n      0x00\n        /* \"Campaign.sol\":2531:2541  msg.sender */\n      caller\n        /* \"Campaign.sol\":2521:2542  approvers[msg.sender] */\n      0xffffffffffffffffffffffffffffffffffffffff\n      and\n      0xffffffffffffffffffffffffffffffffffffffff\n      and\n      dup2\n      mstore\n      0x20\n      add\n      swap1\n      dup2\n      mstore\n      0x20\n      add\n      0x00\n      keccak256\n      sload\n        /* \"Campaign.sol\":2521:2567  approvers[msg.sender] >= approversContribution */\n      lt\n      iszero\n        /* \"Campaign.sol\":2513:2594  require(approvers[msg.sender] >= approversContribution, \"Approvers access only!\") */\n      tag_108\n      jumpi\n      mload(0x40)\n      0x08c379a000000000000000000000000000000000000000000000000000000000\n      dup2\n      mstore\n      0x04\n      add\n      tag_109\n      swap1\n      tag_110\n      jump\t// in\n    tag_109:\n      mload(0x40)\n      dup1\n      swap2\n      sub\n      swap1\n      revert\n    tag_108:\n        /* \"Campaign.sol\":2645:2654  _approved */\n      dup2\n        /* \"Campaign.sol\":2612:2654  request.approvals[msg.sender] != _approved */\n      iszero\n      iszero\n        /* \"Campaign.sol\":2612:2619  request */\n      dup2\n        /* \"Campaign.sol\":2612:2629  request.approvals */\n      0x04\n      add\n        /* \"Campaign.sol\":2612:2641  request.approvals[msg.sender] */\n      0x00\n        /* \"Campaign.sol\":2630:2640  msg.sender */\n      caller\n        /* \"Campaign.sol\":2612:2641  request.approvals[msg.sender] */\n      0xffffffffffffffffffffffffffffffffffffffff\n      and\n      0xffffffffffffffffffffffffffffffffffffffff\n      and\n      dup2\n      mstore\n      0x20\n      add\n      swap1\n      dup2\n      mstore\n      0x20\n      add\n      0x00\n      keccak256\n      0x00\n      swap1\n      sload\n      swap1\n      0x0100\n      exp\n      swap1\n      div\n      0xff\n      and\n        /* \"Campaign.sol\":2612:2654  request.approvals[msg.sender] != _approved */\n      iszero\n      iszero\n      sub\n        /* \"Campaign.sol\":2604:2689  require(request.approvals[msg.sender] != _approved, \"Approval vote already recorded\") */\n      tag_111\n      jumpi\n      mload(0x40)\n      0x08c379a000000000000000000000000000000000000000000000000000000000\n      dup2\n      mstore\n      0x04\n      add\n      tag_112\n      swap1\n      tag_113\n      jump\t// in\n    tag_112:\n      mload(0x40)\n      dup1\n      swap2\n      sub\n      swap1\n      revert\n    tag_111:\n        /* \"Campaign.sol\":2731:2740  _approved */\n      dup2\n        /* \"Campaign.sol\":2699:2706  request */\n      dup2\n        /* \"Campaign.sol\":2699:2716  request.approvals */\n      0x04\n      add\n        /* \"Campaign.sol\":2699:2728  request.approvals[msg.sender] */\n      0x00\n        /* \"Campaign.sol\":2717:2727  msg.sender */\n      caller\n        /* \"Campaign.sol\":2699:2728  request.approvals[msg.sender] */\n      0xffffffffffffffffffffffffffffffffffffffff\n      and\n      0xffffffffffffffffffffffffffffffffffffffff\n      and\n      dup2\n      mstore\n      0x20\n      add\n      swap1\n      dup2\n      mstore\n      0x20\n      add\n      0x00\n      keccak256\n      0x00\n        /* \"Campaign.sol\":2699:2740  request.approvals[msg.sender] = _approved */\n      0x0100\n      exp\n      dup2\n      sload\n      dup2\n      0xff\n      mul\n      not\n      and\n      swap1\n      dup4\n      iszero\n      iszero\n      mul\n      or\n      swap1\n      sstore\n      pop\n        /* \"Campaign.sol\":2754:2763  _approved */\n      dup2\n        /* \"Campaign.sol\":2750:2915  if (_approved) {... */\n      iszero\n      tag_114\n      jumpi\n        /* \"Campaign.sol\":2805:2814  approvers */\n      0x03\n        /* \"Campaign.sol\":2805:2826  approvers[msg.sender] */\n      0x00\n        /* \"Campaign.sol\":2815:2825  msg.sender */\n      caller\n        /* \"Campaign.sol\":2805:2826  approvers[msg.sender] */\n      0xffffffffffffffffffffffffffffffffffffffff\n      and\n      0xffffffffffffffffffffffffffffffffffffffff\n      and\n      dup2\n      mstore\n      0x20\n      add\n      swap1\n      dup2\n      mstore\n      0x20\n      add\n      0x00\n      keccak256\n      sload\n        /* \"Campaign.sol\":2779:2786  request */\n      dup2\n        /* \"Campaign.sol\":2779:2801  request.approvalRating */\n      0x03\n      add\n      0x00\n        /* \"Campaign.sol\":2779:2826  request.approvalRating += approvers[msg.sender] */\n      dup3\n      dup3\n      sload\n      tag_115\n      swap2\n      swap1\n      tag_102\n      jump\t// in\n    tag_115:\n      swap3\n      pop\n      pop\n      dup2\n      swap1\n      sstore\n      pop\n        /* \"Campaign.sol\":2750:2915  if (_approved) {... */\n      jump(tag_116)\n    tag_114:\n        /* \"Campaign.sol\":2883:2892  approvers */\n      0x03\n        /* \"Campaign.sol\":2883:2904  approvers[msg.sender] */\n      0x00\n        /* \"Campaign.sol\":2893:2903  msg.sender */\n      caller\n        /* \"Campaign.sol\":2883:2904  approvers[msg.sender] */\n      0xffffffffffffffffffffffffffffffffffffffff\n      and\n      0xffffffffffffffffffffffffffffffffffffffff\n      and\n      dup2\n      mstore\n      0x20\n      add\n      swap1\n      dup2\n      mstore\n      0x20\n      add\n      0x00\n      keccak256\n      sload\n        /* \"Campaign.sol\":2857:2864  request */\n      dup2\n        /* \"Campaign.sol\":2857:2879  request.approvalRating */\n      0x03\n      add\n      0x00\n        /* \"Campaign.sol\":2857:2904  request.approvalRating -= approvers[msg.sender] */\n      dup3\n      dup3\n      sload\n      tag_117\n      swap2\n      swap1\n      tag_118\n      jump\t// in\n    tag_117:\n      swap3\n      pop\n      pop\n      dup2\n      swap1\n      sstore\n      pop\n        /* \"Campaign.sol\":2750:2915  if (_approved) {... */\n    tag_116:\n        /* \"Campaign.sol\":2443:2921  {... */\n      pop\n        /* \"Campaign.sol\":2373:2921  function approveRequest(uint32 _requestNumber, bool _approved) public {... */\n      pop\n      pop\n      jump\t// out\n        /* \"#utility.yul\":7:82   */\n    tag_119:\n        /* \"#utility.yul\":40:46   */\n      0x00\n        /* \"#utility.yul\":73:75   */\n      0x40\n        /* \"#utility.yul\":67:76   */\n      mload\n        /* \"#utility.yul\":57:76   */\n      swap1\n      pop\n        /* \"#utility.yul\":7:82   */\n      swap1\n      jump\t// out\n        /* \"#utility.yul\":88:205   */\n    tag_120:\n        /* \"#utility.yul\":197:198   */\n      0x00\n        /* \"#utility.yul\":194:195   */\n      dup1\n        /* \"#utility.yul\":187:199   */\n      revert\n        /* \"#utility.yul\":211:328   */\n    tag_121:\n        /* \"#utility.yul\":320:321   */\n      0x00\n        /* \"#utility.yul\":317:318   */\n      dup1\n        /* \"#utility.yul\":310:322   */\n      revert\n        /* \"#utility.yul\":334:460   */\n    tag_122:\n        /* \"#utility.yul\":371:378   */\n      0x00\n        /* \"#utility.yul\":411:453   */\n      0xffffffffffffffffffffffffffffffffffffffff\n        /* \"#utility.yul\":404:409   */\n      dup3\n        /* \"#utility.yul\":400:454   */\n      and\n        /* \"#utility.yul\":389:454   */\n      swap1\n      pop\n        /* \"#utility.yul\":334:460   */\n      swap2\n      swap1\n      pop\n      jump\t// out\n        /* \"#utility.yul\":466:562   */\n    tag_123:\n        /* \"#utility.yul\":503:510   */\n      0x00\n        /* \"#utility.yul\":532:556   */\n      tag_189\n        /* \"#utility.yul\":550:555   */\n      dup3\n        /* \"#utility.yul\":532:556   */\n      tag_122\n      jump\t// in\n    tag_189:\n        /* \"#utility.yul\":521:556   */\n      swap1\n      pop\n        /* \"#utility.yul\":466:562   */\n      swap2\n      swap1\n      pop\n      jump\t// out\n        /* \"#utility.yul\":568:690   */\n    tag_124:\n        /* \"#utility.yul\":641:665   */\n      tag_191\n        /* \"#utility.yul\":659:664   */\n      dup2\n        /* \"#utility.yul\":641:665   */\n      tag_123\n      jump\t// in\n    tag_191:\n        /* \"#utility.yul\":634:639   */\n      dup2\n        /* \"#utility.yul\":631:666   */\n      eq\n        /* \"#utility.yul\":621:684   */\n      tag_192\n      jumpi\n        /* \"#utility.yul\":680:681   */\n      0x00\n        /* \"#utility.yul\":677:678   */\n      dup1\n        /* \"#utility.yul\":670:682   */\n      revert\n        /* \"#utility.yul\":621:684   */\n    tag_192:\n        /* \"#utility.yul\":568:690   */\n      pop\n      jump\t// out\n        /* \"#utility.yul\":696:835   */\n    tag_125:\n        /* \"#utility.yul\":742:747   */\n      0x00\n        /* \"#utility.yul\":780:786   */\n      dup2\n        /* \"#utility.yul\":767:787   */\n      calldataload\n        /* \"#utility.yul\":758:787   */\n      swap1\n      pop\n        /* \"#utility.yul\":796:829   */\n      tag_194\n        /* \"#utility.yul\":823:828   */\n      dup2\n        /* \"#utility.yul\":796:829   */\n      tag_124\n      jump\t// in\n    tag_194:\n        /* \"#utility.yul\":696:835   */\n      swap3\n      swap2\n      pop\n      pop\n      jump\t// out\n        /* \"#utility.yul\":841:1170   */\n    tag_17:\n        /* \"#utility.yul\":900:906   */\n      0x00\n        /* \"#utility.yul\":949:951   */\n      0x20\n        /* \"#utility.yul\":937:946   */\n      dup3\n        /* \"#utility.yul\":928:935   */\n      dup5\n        /* \"#utility.yul\":924:947   */\n      sub\n        /* \"#utility.yul\":920:952   */\n      slt\n        /* \"#utility.yul\":917:1036   */\n      iszero\n      tag_196\n      jumpi\n        /* \"#utility.yul\":955:1034   */\n      tag_197\n      tag_120\n      jump\t// in\n    tag_197:\n        /* \"#utility.yul\":917:1036   */\n    tag_196:\n        /* \"#utility.yul\":1075:1076   */\n      0x00\n        /* \"#utility.yul\":1100:1153   */\n      tag_198\n        /* \"#utility.yul\":1145:1152   */\n      dup5\n        /* \"#utility.yul\":1136:1142   */\n      dup3\n        /* \"#utility.yul\":1125:1134   */\n      dup6\n        /* \"#utility.yul\":1121:1143   */\n      add\n        /* \"#utility.yul\":1100:1153   */\n      tag_125\n      jump\t// in\n    tag_198:\n        /* \"#utility.yul\":1090:1153   */\n      swap2\n      pop\n        /* \"#utility.yul\":1046:1163   */\n      pop\n        /* \"#utility.yul\":841:1170   */\n      swap3\n      swap2\n      pop\n      pop\n      jump\t// out\n        /* \"#utility.yul\":1176:1253   */\n    tag_126:\n        /* \"#utility.yul\":1213:1220   */\n      0x00\n        /* \"#utility.yul\":1242:1247   */\n      dup2\n        /* \"#utility.yul\":1231:1247   */\n      swap1\n      pop\n        /* \"#utility.yul\":1176:1253   */\n      swap2\n      swap1\n      pop\n      jump\t// out\n        /* \"#utility.yul\":1259:1377   */\n    tag_127:\n        /* \"#utility.yul\":1346:1370   */\n      tag_201\n        /* \"#utility.yul\":1364:1369   */\n      dup2\n        /* \"#utility.yul\":1346:1370   */\n      tag_126\n      jump\t// in\n    tag_201:\n        /* \"#utility.yul\":1341:1344   */\n      dup3\n        /* \"#utility.yul\":1334:1371   */\n      mstore\n        /* \"#utility.yul\":1259:1377   */\n      pop\n      pop\n      jump\t// out\n        /* \"#utility.yul\":1383:1605   */\n    tag_20:\n        /* \"#utility.yul\":1476:1480   */\n      0x00\n        /* \"#utility.yul\":1514:1516   */\n      0x20\n        /* \"#utility.yul\":1503:1512   */\n      dup3\n        /* \"#utility.yul\":1499:1517   */\n      add\n        /* \"#utility.yul\":1491:1517   */\n      swap1\n      pop\n        /* \"#utility.yul\":1527:1598   */\n      tag_203\n        /* \"#utility.yul\":1595:1596   */\n      0x00\n        /* \"#utility.yul\":1584:1593   */\n      dup4\n        /* \"#utility.yul\":1580:1597   */\n      add\n        /* \"#utility.yul\":1571:1577   */\n      dup5\n        /* \"#utility.yul\":1527:1598   */\n      tag_127\n      jump\t// in\n    tag_203:\n        /* \"#utility.yul\":1383:1605   */\n      swap3\n      swap2\n      pop\n      pop\n      jump\t// out\n        /* \"#utility.yul\":1611:1704   */\n    tag_128:\n        /* \"#utility.yul\":1647:1654   */\n      0x00\n        /* \"#utility.yul\":1687:1697   */\n      0xffffffff\n        /* \"#utility.yul\":1680:1685   */\n      dup3\n        /* \"#utility.yul\":1676:1698   */\n      and\n        /* \"#utility.yul\":1665:1698   */\n      swap1\n      pop\n        /* \"#utility.yul\":1611:1704   */\n      swap2\n      swap1\n      pop\n      jump\t// out\n        /* \"#utility.yul\":1710:1830   */\n    tag_129:\n        /* \"#utility.yul\":1782:1805   */\n      tag_206\n        /* \"#utility.yul\":1799:1804   */\n      dup2\n        /* \"#utility.yul\":1782:1805   */\n      tag_128\n      jump\t// in\n    tag_206:\n        /* \"#utility.yul\":1775:1780   */\n      dup2\n        /* \"#utility.yul\":1772:1806   */\n      eq\n        /* \"#utility.yul\":1762:1824   */\n      tag_207\n      jumpi\n        /* \"#utility.yul\":1820:1821   */\n      0x00\n        /* \"#utility.yul\":1817:1818   */\n      dup1\n        /* \"#utility.yul\":1810:1822   */\n      revert\n        /* \"#utility.yul\":1762:1824   */\n    tag_207:\n        /* \"#utility.yul\":1710:1830   */\n      pop\n      jump\t// out\n        /* \"#utility.yul\":1836:1973   */\n    tag_130:\n        /* \"#utility.yul\":1881:1886   */\n      0x00\n        /* \"#utility.yul\":1919:1925   */\n      dup2\n        /* \"#utility.yul\":1906:1926   */\n      calldataload\n        /* \"#utility.yul\":1897:1926   */\n      swap1\n      pop\n        /* \"#utility.yul\":1935:1967   */\n      tag_209\n        /* \"#utility.yul\":1961:1966   */\n      dup2\n        /* \"#utility.yul\":1935:1967   */\n      tag_129\n      jump\t// in\n    tag_209:\n        /* \"#utility.yul\":1836:1973   */\n      swap3\n      swap2\n      pop\n      pop\n      jump\t// out\n        /* \"#utility.yul\":1979:2306   */\n    tag_24:\n        /* \"#utility.yul\":2037:2043   */\n      0x00\n        /* \"#utility.yul\":2086:2088   */\n      0x20\n        /* \"#utility.yul\":2074:2083   */\n      dup3\n        /* \"#utility.yul\":2065:2072   */\n      dup5\n        /* \"#utility.yul\":2061:2084   */\n      sub\n        /* \"#utility.yul\":2057:2089   */\n      slt\n        /* \"#utility.yul\":2054:2173   */\n      iszero\n      tag_211\n      jumpi\n        /* \"#utility.yul\":2092:2171   */\n      tag_212\n      tag_120\n      jump\t// in\n    tag_212:\n        /* \"#utility.yul\":2054:2173   */\n    tag_211:\n        /* \"#utility.yul\":2212:2213   */\n      0x00\n        /* \"#utility.yul\":2237:2289   */\n      tag_213\n        /* \"#utility.yul\":2281:2288   */\n      dup5\n        /* \"#utility.yul\":2272:2278   */\n      dup3\n        /* \"#utility.yul\":2261:2270   */\n      dup6\n        /* \"#utility.yul\":2257:2279   */\n      add\n        /* \"#utility.yul\":2237:2289   */\n      tag_130\n      jump\t// in\n    tag_213:\n        /* \"#utility.yul\":2227:2289   */\n      swap2\n      pop\n        /* \"#utility.yul\":2183:2299   */\n      pop\n        /* \"#utility.yul\":1979:2306   */\n      swap3\n      swap2\n      pop\n      pop\n      jump\t// out\n        /* \"#utility.yul\":2312:2411   */\n    tag_131:\n        /* \"#utility.yul\":2364:2370   */\n      0x00\n        /* \"#utility.yul\":2398:2403   */\n      dup2\n        /* \"#utility.yul\":2392:2404   */\n      mload\n        /* \"#utility.yul\":2382:2404   */\n      swap1\n      pop\n        /* \"#utility.yul\":2312:2411   */\n      swap2\n      swap1\n      pop\n      jump\t// out\n        /* \"#utility.yul\":2417:2586   */\n    tag_132:\n        /* \"#utility.yul\":2501:2512   */\n      0x00\n        /* \"#utility.yul\":2535:2541   */\n      dup3\n        /* \"#utility.yul\":2530:2533   */\n      dup3\n        /* \"#utility.yul\":2523:2542   */\n      mstore\n        /* \"#utility.yul\":2575:2579   */\n      0x20\n        /* \"#utility.yul\":2570:2573   */\n      dup3\n        /* \"#utility.yul\":2566:2580   */\n      add\n        /* \"#utility.yul\":2551:2580   */\n      swap1\n      pop\n        /* \"#utility.yul\":2417:2586   */\n      swap3\n      swap2\n      pop\n      pop\n      jump\t// out\n        /* \"#utility.yul\":2592:2838   */\n    tag_133:\n        /* \"#utility.yul\":2673:2674   */\n      0x00\n        /* \"#utility.yul\":2683:2796   */\n    tag_217:\n        /* \"#utility.yul\":2697:2703   */\n      dup4\n        /* \"#utility.yul\":2694:2695   */\n      dup2\n        /* \"#utility.yul\":2691:2704   */\n      lt\n        /* \"#utility.yul\":2683:2796   */\n      iszero\n      tag_219\n      jumpi\n        /* \"#utility.yul\":2782:2783   */\n      dup1\n        /* \"#utility.yul\":2777:2780   */\n      dup3\n        /* \"#utility.yul\":2773:2784   */\n      add\n        /* \"#utility.yul\":2767:2785   */\n      mload\n        /* \"#utility.yul\":2763:2764   */\n      dup2\n        /* \"#utility.yul\":2758:2761   */\n      dup5\n        /* \"#utility.yul\":2754:2765   */\n      add\n        /* \"#utility.yul\":2747:2786   */\n      mstore\n        /* \"#utility.yul\":2719:2721   */\n      0x20\n        /* \"#utility.yul\":2716:2717   */\n      dup2\n        /* \"#utility.yul\":2712:2722   */\n      add\n        /* \"#utility.yul\":2707:2722   */\n      swap1\n      pop\n        /* \"#utility.yul\":2683:2796   */\n      jump(tag_217)\n    tag_219:\n        /* \"#utility.yul\":2830:2831   */\n      0x00\n        /* \"#utility.yul\":2821:2827   */\n      dup5\n        /* \"#utility.yul\":2816:2819   */\n      dup5\n        /* \"#utility.yul\":2812:2828   */\n      add\n        /* \"#utility.yul\":2805:2832   */\n      mstore\n        /* \"#utility.yul\":2654:2838   */\n      pop\n        /* \"#utility.yul\":2592:2838   */\n      pop\n      pop\n      pop\n      jump\t// out\n        /* \"#utility.yul\":2844:2946   */\n    tag_134:\n        /* \"#utility.yul\":2885:2891   */\n      0x00\n        /* \"#utility.yul\":2936:2938   */\n      0x1f\n        /* \"#utility.yul\":2932:2939   */\n      not\n        /* \"#utility.yul\":2927:2929   */\n      0x1f\n        /* \"#utility.yul\":2920:2925   */\n      dup4\n        /* \"#utility.yul\":2916:2930   */\n      add\n        /* \"#utility.yul\":2912:2940   */\n      and\n        /* \"#utility.yul\":2902:2940   */\n      swap1\n      pop\n        /* \"#utility.yul\":2844:2946   */\n      swap2\n      swap1\n      pop\n      jump\t// out\n        /* \"#utility.yul\":2952:3329   */\n    tag_135:\n        /* \"#utility.yul\":3040:3043   */\n      0x00\n        /* \"#utility.yul\":3068:3107   */\n      tag_222\n        /* \"#utility.yul\":3101:3106   */\n      dup3\n        /* \"#utility.yul\":3068:3107   */\n      tag_131\n      jump\t// in\n    tag_222:\n        /* \"#utility.yul\":3123:3194   */\n      tag_223\n        /* \"#utility.yul\":3187:3193   */\n      dup2\n        /* \"#utility.yul\":3182:3185   */\n      dup6\n        /* \"#utility.yul\":3123:3194   */\n      tag_132\n      jump\t// in\n    tag_223:\n        /* \"#utility.yul\":3116:3194   */\n      swap4\n      pop\n        /* \"#utility.yul\":3203:3268   */\n      tag_224\n        /* \"#utility.yul\":3261:3267   */\n      dup2\n        /* \"#utility.yul\":3256:3259   */\n      dup6\n        /* \"#utility.yul\":3249:3253   */\n      0x20\n        /* \"#utility.yul\":3242:3247   */\n      dup7\n        /* \"#utility.yul\":3238:3254   */\n      add\n        /* \"#utility.yul\":3203:3268   */\n      tag_133\n      jump\t// in\n    tag_224:\n        /* \"#utility.yul\":3293:3322   */\n      tag_225\n        /* \"#utility.yul\":3315:3321   */\n      dup2\n        /* \"#utility.yul\":3293:3322   */\n      tag_134\n      jump\t// in\n    tag_225:\n        /* \"#utility.yul\":3288:3291   */\n      dup5\n        /* \"#utility.yul\":3284:3323   */\n      add\n        /* \"#utility.yul\":3277:3323   */\n      swap2\n      pop\n        /* \"#utility.yul\":3044:3329   */\n      pop\n        /* \"#utility.yul\":2952:3329   */\n      swap3\n      swap2\n      pop\n      pop\n      jump\t// out\n        /* \"#utility.yul\":3335:3453   */\n    tag_136:\n        /* \"#utility.yul\":3422:3446   */\n      tag_227\n        /* \"#utility.yul\":3440:3445   */\n      dup2\n        /* \"#utility.yul\":3422:3446   */\n      tag_123\n      jump\t// in\n    tag_227:\n        /* \"#utility.yul\":3417:3420   */\n      dup3\n        /* \"#utility.yul\":3410:3447   */\n      mstore\n        /* \"#utility.yul\":3335:3453   */\n      pop\n      pop\n      jump\t// out\n        /* \"#utility.yul\":3459:3549   */\n    tag_137:\n        /* \"#utility.yul\":3493:3500   */\n      0x00\n        /* \"#utility.yul\":3536:3541   */\n      dup2\n        /* \"#utility.yul\":3529:3542   */\n      iszero\n        /* \"#utility.yul\":3522:3543   */\n      iszero\n        /* \"#utility.yul\":3511:3543   */\n      swap1\n      pop\n        /* \"#utility.yul\":3459:3549   */\n      swap2\n      swap1\n      pop\n      jump\t// out\n        /* \"#utility.yul\":3555:3664   */\n    tag_138:\n        /* \"#utility.yul\":3636:3657   */\n      tag_230\n        /* \"#utility.yul\":3651:3656   */\n      dup2\n        /* \"#utility.yul\":3636:3657   */\n      tag_137\n      jump\t// in\n    tag_230:\n        /* \"#utility.yul\":3631:3634   */\n      dup3\n        /* \"#utility.yul\":3624:3658   */\n      mstore\n        /* \"#utility.yul\":3555:3664   */\n      pop\n      pop\n      jump\t// out\n        /* \"#utility.yul\":3670:4413   */\n    tag_27:\n        /* \"#utility.yul\":3889:3893   */\n      0x00\n        /* \"#utility.yul\":3927:3930   */\n      0xa0\n        /* \"#utility.yul\":3916:3925   */\n      dup3\n        /* \"#utility.yul\":3912:3931   */\n      add\n        /* \"#utility.yul\":3904:3931   */\n      swap1\n      pop\n        /* \"#utility.yul\":3977:3986   */\n      dup2\n        /* \"#utility.yul\":3971:3975   */\n      dup2\n        /* \"#utility.yul\":3967:3987   */\n      sub\n        /* \"#utility.yul\":3963:3964   */\n      0x00\n        /* \"#utility.yul\":3952:3961   */\n      dup4\n        /* \"#utility.yul\":3948:3965   */\n      add\n        /* \"#utility.yul\":3941:3988   */\n      mstore\n        /* \"#utility.yul\":4005:4083   */\n      tag_232\n        /* \"#utility.yul\":4078:4082   */\n      dup2\n        /* \"#utility.yul\":4069:4075   */\n      dup9\n        /* \"#utility.yul\":4005:4083   */\n      tag_135\n      jump\t// in\n    tag_232:\n        /* \"#utility.yul\":3997:4083   */\n      swap1\n      pop\n        /* \"#utility.yul\":4093:4165   */\n      tag_233\n        /* \"#utility.yul\":4161:4163   */\n      0x20\n        /* \"#utility.yul\":4150:4159   */\n      dup4\n        /* \"#utility.yul\":4146:4164   */\n      add\n        /* \"#utility.yul\":4137:4143   */\n      dup8\n        /* \"#utility.yul\":4093:4165   */\n      tag_127\n      jump\t// in\n    tag_233:\n        /* \"#utility.yul\":4175:4247   */\n      tag_234\n        /* \"#utility.yul\":4243:4245   */\n      0x40\n        /* \"#utility.yul\":4232:4241   */\n      dup4\n        /* \"#utility.yul\":4228:4246   */\n      add\n        /* \"#utility.yul\":4219:4225   */\n      dup7\n        /* \"#utility.yul\":4175:4247   */\n      tag_136\n      jump\t// in\n    tag_234:\n        /* \"#utility.yul\":4257:4323   */\n      tag_235\n        /* \"#utility.yul\":4319:4321   */\n      0x60\n        /* \"#utility.yul\":4308:4317   */\n      dup4\n        /* \"#utility.yul\":4304:4322   */\n      add\n        /* \"#utility.yul\":4295:4301   */\n      dup6\n        /* \"#utility.yul\":4257:4323   */\n      tag_138\n      jump\t// in\n    tag_235:\n        /* \"#utility.yul\":4333:4406   */\n      tag_236\n        /* \"#utility.yul\":4401:4404   */\n      0x80\n        /* \"#utility.yul\":4390:4399   */\n      dup4\n        /* \"#utility.yul\":4386:4405   */\n      add\n        /* \"#utility.yul\":4377:4383   */\n      dup5\n        /* \"#utility.yul\":4333:4406   */\n      tag_127\n      jump\t// in\n    tag_236:\n        /* \"#utility.yul\":3670:4413   */\n      swap7\n      swap6\n      pop\n      pop\n      pop\n      pop\n      pop\n      pop\n      jump\t// out\n        /* \"#utility.yul\":4419:4641   */\n    tag_40:\n        /* \"#utility.yul\":4512:4516   */\n      0x00\n        /* \"#utility.yul\":4550:4552   */\n      0x20\n        /* \"#utility.yul\":4539:4548   */\n      dup3\n        /* \"#utility.yul\":4535:4553   */\n      add\n        /* \"#utility.yul\":4527:4553   */\n      swap1\n      pop\n        /* \"#utility.yul\":4563:4634   */\n      tag_238\n        /* \"#utility.yul\":4631:4632   */\n      0x00\n        /* \"#utility.yul\":4620:4629   */\n      dup4\n        /* \"#utility.yul\":4616:4633   */\n      add\n        /* \"#utility.yul\":4607:4613   */\n      dup5\n        /* \"#utility.yul\":4563:4634   */\n      tag_136\n      jump\t// in\n    tag_238:\n        /* \"#utility.yul\":4419:4641   */\n      swap3\n      swap2\n      pop\n      pop\n      jump\t// out\n        /* \"#utility.yul\":4647:4764   */\n    tag_139:\n        /* \"#utility.yul\":4756:4757   */\n      0x00\n        /* \"#utility.yul\":4753:4754   */\n      dup1\n        /* \"#utility.yul\":4746:4758   */\n      revert\n        /* \"#utility.yul\":4770:4887   */\n    tag_140:\n        /* \"#utility.yul\":4879:4880   */\n      0x00\n        /* \"#utility.yul\":4876:4877   */\n      dup1\n        /* \"#utility.yul\":4869:4881   */\n      revert\n        /* \"#utility.yul\":4893:5073   */\n    tag_141:\n        /* \"#utility.yul\":4941:5018   */\n      0x4e487b7100000000000000000000000000000000000000000000000000000000\n        /* \"#utility.yul\":4938:4939   */\n      0x00\n        /* \"#utility.yul\":4931:5019   */\n      mstore\n        /* \"#utility.yul\":5038:5042   */\n      0x41\n        /* \"#utility.yul\":5035:5036   */\n      0x04\n        /* \"#utility.yul\":5028:5043   */\n      mstore\n        /* \"#utility.yul\":5062:5066   */\n      0x24\n        /* \"#utility.yul\":5059:5060   */\n      0x00\n        /* \"#utility.yul\":5052:5067   */\n      revert\n        /* \"#utility.yul\":5079:5360   */\n    tag_142:\n        /* \"#utility.yul\":5162:5189   */\n      tag_243\n        /* \"#utility.yul\":5184:5188   */\n      dup3\n        /* \"#utility.yul\":5162:5189   */\n      tag_134\n      jump\t// in\n    tag_243:\n        /* \"#utility.yul\":5154:5160   */\n      dup2\n        /* \"#utility.yul\":5150:5190   */\n      add\n        /* \"#utility.yul\":5292:5298   */\n      dup2\n        /* \"#utility.yul\":5280:5290   */\n      dup2\n        /* \"#utility.yul\":5277:5299   */\n      lt\n        /* \"#utility.yul\":5256:5274   */\n      0xffffffffffffffff\n        /* \"#utility.yul\":5244:5254   */\n      dup3\n        /* \"#utility.yul\":5241:5275   */\n      gt\n        /* \"#utility.yul\":5238:5300   */\n      or\n        /* \"#utility.yul\":5235:5323   */\n      iszero\n      tag_244\n      jumpi\n        /* \"#utility.yul\":5303:5321   */\n      tag_245\n      tag_141\n      jump\t// in\n    tag_245:\n        /* \"#utility.yul\":5235:5323   */\n    tag_244:\n        /* \"#utility.yul\":5343:5353   */\n      dup1\n        /* \"#utility.yul\":5339:5341   */\n      0x40\n        /* \"#utility.yul\":5332:5354   */\n      mstore\n        /* \"#utility.yul\":5122:5360   */\n      pop\n        /* \"#utility.yul\":5079:5360   */\n      pop\n      pop\n      jump\t// out\n        /* \"#utility.yul\":5366:5495   */\n    tag_143:\n        /* \"#utility.yul\":5400:5406   */\n      0x00\n        /* \"#utility.yul\":5427:5447   */\n      tag_247\n      tag_119\n      jump\t// in\n    tag_247:\n        /* \"#utility.yul\":5417:5447   */\n      swap1\n      pop\n        /* \"#utility.yul\":5456:5489   */\n      tag_248\n        /* \"#utility.yul\":5484:5488   */\n      dup3\n        /* \"#utility.yul\":5476:5482   */\n      dup3\n        /* \"#utility.yul\":5456:5489   */\n      tag_142\n      jump\t// in\n    tag_248:\n        /* \"#utility.yul\":5366:5495   */\n      swap2\n      swap1\n      pop\n      jump\t// out\n        /* \"#utility.yul\":5501:5809   */\n    tag_144:\n        /* \"#utility.yul\":5563:5567   */\n      0x00\n        /* \"#utility.yul\":5653:5671   */\n      0xffffffffffffffff\n        /* \"#utility.yul\":5645:5651   */\n      dup3\n        /* \"#utility.yul\":5642:5672   */\n      gt\n        /* \"#utility.yul\":5639:5695   */\n      iszero\n      tag_250\n      jumpi\n        /* \"#utility.yul\":5675:5693   */\n      tag_251\n      tag_141\n      jump\t// in\n    tag_251:\n        /* \"#utility.yul\":5639:5695   */\n    tag_250:\n        /* \"#utility.yul\":5713:5742   */\n      tag_252\n        /* \"#utility.yul\":5735:5741   */\n      dup3\n        /* \"#utility.yul\":5713:5742   */\n      tag_134\n      jump\t// in\n    tag_252:\n        /* \"#utility.yul\":5705:5742   */\n      swap1\n      pop\n        /* \"#utility.yul\":5797:5801   */\n      0x20\n        /* \"#utility.yul\":5791:5795   */\n      dup2\n        /* \"#utility.yul\":5787:5802   */\n      add\n        /* \"#utility.yul\":5779:5802   */\n      swap1\n      pop\n        /* \"#utility.yul\":5501:5809   */\n      swap2\n      swap1\n      pop\n      jump\t// out\n        /* \"#utility.yul\":5815:5961   */\n    tag_145:\n        /* \"#utility.yul\":5912:5918   */\n      dup3\n        /* \"#utility.yul\":5907:5910   */\n      dup2\n        /* \"#utility.yul\":5902:5905   */\n      dup4\n        /* \"#utility.yul\":5889:5919   */\n      calldatacopy\n        /* \"#utility.yul\":5953:5954   */\n      0x00\n        /* \"#utility.yul\":5944:5950   */\n      dup4\n        /* \"#utility.yul\":5939:5942   */\n      dup4\n        /* \"#utility.yul\":5935:5951   */\n      add\n        /* \"#utility.yul\":5928:5955   */\n      mstore\n        /* \"#utility.yul\":5815:5961   */\n      pop\n      pop\n      pop\n      jump\t// out\n        /* \"#utility.yul\":5967:6392   */\n    tag_146:\n        /* \"#utility.yul\":6045:6050   */\n      0x00\n        /* \"#utility.yul\":6070:6136   */\n      tag_255\n        /* \"#utility.yul\":6086:6135   */\n      tag_256\n        /* \"#utility.yul\":6128:6134   */\n      dup5\n        /* \"#utility.yul\":6086:6135   */\n      tag_144\n      jump\t// in\n    tag_256:\n        /* \"#utility.yul\":6070:6136   */\n      tag_143\n      jump\t// in\n    tag_255:\n        /* \"#utility.yul\":6061:6136   */\n      swap1\n      pop\n        /* \"#utility.yul\":6159:6165   */\n      dup3\n        /* \"#utility.yul\":6152:6157   */\n      dup2\n        /* \"#utility.yul\":6145:6166   */\n      mstore\n        /* \"#utility.yul\":6197:6201   */\n      0x20\n        /* \"#utility.yul\":6190:6195   */\n      dup2\n        /* \"#utility.yul\":6186:6202   */\n      add\n        /* \"#utility.yul\":6235:6238   */\n      dup5\n        /* \"#utility.yul\":6226:6232   */\n      dup5\n        /* \"#utility.yul\":6221:6224   */\n      dup5\n        /* \"#utility.yul\":6217:6233   */\n      add\n        /* \"#utility.yul\":6214:6239   */\n      gt\n        /* \"#utility.yul\":6211:6323   */\n      iszero\n      tag_257\n      jumpi\n        /* \"#utility.yul\":6242:6321   */\n      tag_258\n      tag_140\n      jump\t// in\n    tag_258:\n        /* \"#utility.yul\":6211:6323   */\n    tag_257:\n        /* \"#utility.yul\":6332:6386   */\n      tag_259\n        /* \"#utility.yul\":6379:6385   */\n      dup5\n        /* \"#utility.yul\":6374:6377   */\n      dup3\n        /* \"#utility.yul\":6369:6372   */\n      dup6\n        /* \"#utility.yul\":6332:6386   */\n      tag_145\n      jump\t// in\n    tag_259:\n        /* \"#utility.yul\":6051:6392   */\n      pop\n        /* \"#utility.yul\":5967:6392   */\n      swap4\n      swap3\n      pop\n      pop\n      pop\n      jump\t// out\n        /* \"#utility.yul\":6412:6752   */\n    tag_147:\n        /* \"#utility.yul\":6468:6473   */\n      0x00\n        /* \"#utility.yul\":6517:6520   */\n      dup3\n        /* \"#utility.yul\":6510:6514   */\n      0x1f\n        /* \"#utility.yul\":6502:6508   */\n      dup4\n        /* \"#utility.yul\":6498:6515   */\n      add\n        /* \"#utility.yul\":6494:6521   */\n      slt\n        /* \"#utility.yul\":6484:6606   */\n      tag_261\n      jumpi\n        /* \"#utility.yul\":6525:6604   */\n      tag_262\n      tag_139\n      jump\t// in\n    tag_262:\n        /* \"#utility.yul\":6484:6606   */\n    tag_261:\n        /* \"#utility.yul\":6642:6648   */\n      dup2\n        /* \"#utility.yul\":6629:6649   */\n      calldataload\n        /* \"#utility.yul\":6667:6746   */\n      tag_263\n        /* \"#utility.yul\":6742:6745   */\n      dup5\n        /* \"#utility.yul\":6734:6740   */\n      dup3\n        /* \"#utility.yul\":6727:6731   */\n      0x20\n        /* \"#utility.yul\":6719:6725   */\n      dup7\n        /* \"#utility.yul\":6715:6732   */\n      add\n        /* \"#utility.yul\":6667:6746   */\n      tag_146\n      jump\t// in\n    tag_263:\n        /* \"#utility.yul\":6658:6746   */\n      swap2\n      pop\n        /* \"#utility.yul\":6474:6752   */\n      pop\n        /* \"#utility.yul\":6412:6752   */\n      swap3\n      swap2\n      pop\n      pop\n      jump\t// out\n        /* \"#utility.yul\":6758:6880   */\n    tag_148:\n        /* \"#utility.yul\":6831:6855   */\n      tag_265\n        /* \"#utility.yul\":6849:6854   */\n      dup2\n        /* \"#utility.yul\":6831:6855   */\n      tag_126\n      jump\t// in\n    tag_265:\n        /* \"#utility.yul\":6824:6829   */\n      dup2\n        /* \"#utility.yul\":6821:6856   */\n      eq\n        /* \"#utility.yul\":6811:6874   */\n      tag_266\n      jumpi\n        /* \"#utility.yul\":6870:6871   */\n      0x00\n        /* \"#utility.yul\":6867:6868   */\n      dup1\n        /* \"#utility.yul\":6860:6872   */\n      revert\n        /* \"#utility.yul\":6811:6874   */\n    tag_266:\n        /* \"#utility.yul\":6758:6880   */\n      pop\n      jump\t// out\n        /* \"#utility.yul\":6886:7025   */\n    tag_149:\n        /* \"#utility.yul\":6932:6937   */\n      0x00\n        /* \"#utility.yul\":6970:6976   */\n      dup2\n        /* \"#utility.yul\":6957:6977   */\n      calldataload\n        /* \"#utility.yul\":6948:6977   */\n      swap1\n      pop\n        /* \"#utility.yul\":6986:7019   */\n      tag_268\n        /* \"#utility.yul\":7013:7018   */\n      dup2\n        /* \"#utility.yul\":6986:7019   */\n      tag_148\n      jump\t// in\n    tag_268:\n        /* \"#utility.yul\":6886:7025   */\n      swap3\n      swap2\n      pop\n      pop\n      jump\t// out\n        /* \"#utility.yul\":7031:7830   */\n    tag_53:\n        /* \"#utility.yul\":7118:7124   */\n      0x00\n        /* \"#utility.yul\":7126:7132   */\n      dup1\n        /* \"#utility.yul\":7134:7140   */\n      0x00\n        /* \"#utility.yul\":7183:7185   */\n      0x60\n        /* \"#utility.yul\":7171:7180   */\n      dup5\n        /* \"#utility.yul\":7162:7169   */\n      dup7\n        /* \"#utility.yul\":7158:7181   */\n      sub\n        /* \"#utility.yul\":7154:7186   */\n      slt\n        /* \"#utility.yul\":7151:7270   */\n      iszero\n      tag_270\n      jumpi\n        /* \"#utility.yul\":7189:7268   */\n      tag_271\n      tag_120\n      jump\t// in\n    tag_271:\n        /* \"#utility.yul\":7151:7270   */\n    tag_270:\n        /* \"#utility.yul\":7337:7338   */\n      0x00\n        /* \"#utility.yul\":7326:7335   */\n      dup5\n        /* \"#utility.yul\":7322:7339   */\n      add\n        /* \"#utility.yul\":7309:7340   */\n      calldataload\n        /* \"#utility.yul\":7367:7385   */\n      0xffffffffffffffff\n        /* \"#utility.yul\":7359:7365   */\n      dup2\n        /* \"#utility.yul\":7356:7386   */\n      gt\n        /* \"#utility.yul\":7353:7470   */\n      iszero\n      tag_272\n      jumpi\n        /* \"#utility.yul\":7389:7468   */\n      tag_273\n      tag_121\n      jump\t// in\n    tag_273:\n        /* \"#utility.yul\":7353:7470   */\n    tag_272:\n        /* \"#utility.yul\":7494:7557   */\n      tag_274\n        /* \"#utility.yul\":7549:7556   */\n      dup7\n        /* \"#utility.yul\":7540:7546   */\n      dup3\n        /* \"#utility.yul\":7529:7538   */\n      dup8\n        /* \"#utility.yul\":7525:7547   */\n      add\n        /* \"#utility.yul\":7494:7557   */\n      tag_147\n      jump\t// in\n    tag_274:\n        /* \"#utility.yul\":7484:7557   */\n      swap4\n      pop\n        /* \"#utility.yul\":7280:7567   */\n      pop\n        /* \"#utility.yul\":7606:7608   */\n      0x20\n        /* \"#utility.yul\":7632:7685   */\n      tag_275\n        /* \"#utility.yul\":7677:7684   */\n      dup7\n        /* \"#utility.yul\":7668:7674   */\n      dup3\n        /* \"#utility.yul\":7657:7666   */\n      dup8\n        /* \"#utility.yul\":7653:7675   */\n      add\n        /* \"#utility.yul\":7632:7685   */\n      tag_149\n      jump\t// in\n    tag_275:\n        /* \"#utility.yul\":7622:7685   */\n      swap3\n      pop\n        /* \"#utility.yul\":7577:7695   */\n      pop\n        /* \"#utility.yul\":7734:7736   */\n      0x40\n        /* \"#utility.yul\":7760:7813   */\n      tag_276\n        /* \"#utility.yul\":7805:7812   */\n      dup7\n        /* \"#utility.yul\":7796:7802   */\n      dup3\n        /* \"#utility.yul\":7785:7794   */\n      dup8\n        /* \"#utility.yul\":7781:7803   */\n      add\n        /* \"#utility.yul\":7760:7813   */\n      tag_125\n      jump\t// in\n    tag_276:\n        /* \"#utility.yul\":7750:7813   */\n      swap2\n      pop\n        /* \"#utility.yul\":7705:7823   */\n      pop\n        /* \"#utility.yul\":7031:7830   */\n      swap3\n      pop\n      swap3\n      pop\n      swap3\n      jump\t// out\n        /* \"#utility.yul\":7836:7951   */\n    tag_150:\n        /* \"#utility.yul\":7921:7944   */\n      tag_278\n        /* \"#utility.yul\":7938:7943   */\n      dup2\n        /* \"#utility.yul\":7921:7944   */\n      tag_128\n      jump\t// in\n    tag_278:\n        /* \"#utility.yul\":7916:7919   */\n      dup3\n        /* \"#utility.yul\":7909:7945   */\n      mstore\n        /* \"#utility.yul\":7836:7951   */\n      pop\n      pop\n      jump\t// out\n        /* \"#utility.yul\":7957:8175   */\n    tag_59:\n        /* \"#utility.yul\":8048:8052   */\n      0x00\n        /* \"#utility.yul\":8086:8088   */\n      0x20\n        /* \"#utility.yul\":8075:8084   */\n      dup3\n        /* \"#utility.yul\":8071:8089   */\n      add\n        /* \"#utility.yul\":8063:8089   */\n      swap1\n      pop\n        /* \"#utility.yul\":8099:8168   */\n      tag_280\n        /* \"#utility.yul\":8165:8166   */\n      0x00\n        /* \"#utility.yul\":8154:8163   */\n      dup4\n        /* \"#utility.yul\":8150:8167   */\n      add\n        /* \"#utility.yul\":8141:8147   */\n      dup5\n        /* \"#utility.yul\":8099:8168   */\n      tag_150\n      jump\t// in\n    tag_280:\n        /* \"#utility.yul\":7957:8175   */\n      swap3\n      swap2\n      pop\n      pop\n      jump\t// out\n        /* \"#utility.yul\":8181:8297   */\n    tag_151:\n        /* \"#utility.yul\":8251:8272   */\n      tag_282\n        /* \"#utility.yul\":8266:8271   */\n      dup2\n        /* \"#utility.yul\":8251:8272   */\n      tag_137\n      jump\t// in\n    tag_282:\n        /* \"#utility.yul\":8244:8249   */\n      dup2\n        /* \"#utility.yul\":8241:8273   */\n      eq\n        /* \"#utility.yul\":8231:8291   */\n      tag_283\n      jumpi\n        /* \"#utility.yul\":8287:8288   */\n      0x00\n        /* \"#utility.yul\":8284:8285   */\n      dup1\n        /* \"#utility.yul\":8277:8289   */\n      revert\n        /* \"#utility.yul\":8231:8291   */\n    tag_283:\n        /* \"#utility.yul\":8181:8297   */\n      pop\n      jump\t// out\n        /* \"#utility.yul\":8303:8436   */\n    tag_152:\n        /* \"#utility.yul\":8346:8351   */\n      0x00\n        /* \"#utility.yul\":8384:8390   */\n      dup2\n        /* \"#utility.yul\":8371:8391   */\n      calldataload\n        /* \"#utility.yul\":8362:8391   */\n      swap1\n      pop\n        /* \"#utility.yul\":8400:8430   */\n      tag_285\n        /* \"#utility.yul\":8424:8429   */\n      dup2\n        /* \"#utility.yul\":8400:8430   */\n      tag_151\n      jump\t// in\n    tag_285:\n        /* \"#utility.yul\":8303:8436   */\n      swap3\n      swap2\n      pop\n      pop\n      jump\t// out\n        /* \"#utility.yul\":8442:8908   */\n    tag_65:\n        /* \"#utility.yul\":8506:8512   */\n      0x00\n        /* \"#utility.yul\":8514:8520   */\n      dup1\n        /* \"#utility.yul\":8563:8565   */\n      0x40\n        /* \"#utility.yul\":8551:8560   */\n      dup4\n        /* \"#utility.yul\":8542:8549   */\n      dup6\n        /* \"#utility.yul\":8538:8561   */\n      sub\n        /* \"#utility.yul\":8534:8566   */\n      slt\n        /* \"#utility.yul\":8531:8650   */\n      iszero\n      tag_287\n      jumpi\n        /* \"#utility.yul\":8569:8648   */\n      tag_288\n      tag_120\n      jump\t// in\n    tag_288:\n        /* \"#utility.yul\":8531:8650   */\n    tag_287:\n        /* \"#utility.yul\":8689:8690   */\n      0x00\n        /* \"#utility.yul\":8714:8766   */\n      tag_289\n        /* \"#utility.yul\":8758:8765   */\n      dup6\n        /* \"#utility.yul\":8749:8755   */\n      dup3\n        /* \"#utility.yul\":8738:8747   */\n      dup7\n        /* \"#utility.yul\":8734:8756   */\n      add\n        /* \"#utility.yul\":8714:8766   */\n      tag_130\n      jump\t// in\n    tag_289:\n        /* \"#utility.yul\":8704:8766   */\n      swap3\n      pop\n        /* \"#utility.yul\":8660:8776   */\n      pop\n        /* \"#utility.yul\":8815:8817   */\n      0x20\n        /* \"#utility.yul\":8841:8891   */\n      tag_290\n        /* \"#utility.yul\":8883:8890   */\n      dup6\n        /* \"#utility.yul\":8874:8880   */\n      dup3\n        /* \"#utility.yul\":8863:8872   */\n      dup7\n        /* \"#utility.yul\":8859:8881   */\n      add\n        /* \"#utility.yul\":8841:8891   */\n      tag_152\n      jump\t// in\n    tag_290:\n        /* \"#utility.yul\":8831:8891   */\n      swap2\n      pop\n        /* \"#utility.yul\":8786:8901   */\n      pop\n        /* \"#utility.yul\":8442:8908   */\n      swap3\n      pop\n      swap3\n      swap1\n      pop\n      jump\t// out\n        /* \"#utility.yul\":8914:9094   */\n    tag_153:\n        /* \"#utility.yul\":8962:9039   */\n      0x4e487b7100000000000000000000000000000000000000000000000000000000\n        /* \"#utility.yul\":8959:8960   */\n      0x00\n        /* \"#utility.yul\":8952:9040   */\n      mstore\n        /* \"#utility.yul\":9059:9063   */\n      0x22\n        /* \"#utility.yul\":9056:9057   */\n      0x04\n        /* \"#utility.yul\":9049:9064   */\n      mstore\n        /* \"#utility.yul\":9083:9087   */\n      0x24\n        /* \"#utility.yul\":9080:9081   */\n      0x00\n        /* \"#utility.yul\":9073:9088   */\n      revert\n        /* \"#utility.yul\":9100:9420   */\n    tag_68:\n        /* \"#utility.yul\":9144:9150   */\n      0x00\n        /* \"#utility.yul\":9181:9182   */\n      0x02\n        /* \"#utility.yul\":9175:9179   */\n      dup3\n        /* \"#utility.yul\":9171:9183   */\n      div\n        /* \"#utility.yul\":9161:9183   */\n      swap1\n      pop\n        /* \"#utility.yul\":9228:9229   */\n      0x01\n        /* \"#utility.yul\":9222:9226   */\n      dup3\n        /* \"#utility.yul\":9218:9230   */\n      and\n        /* \"#utility.yul\":9249:9267   */\n      dup1\n        /* \"#utility.yul\":9239:9320   */\n      tag_293\n      jumpi\n        /* \"#utility.yul\":9305:9309   */\n      0x7f\n        /* \"#utility.yul\":9297:9303   */\n      dup3\n        /* \"#utility.yul\":9293:9310   */\n      and\n        /* \"#utility.yul\":9283:9310   */\n      swap2\n      pop\n        /* \"#utility.yul\":9239:9320   */\n    tag_293:\n        /* \"#utility.yul\":9367:9369   */\n      0x20\n        /* \"#utility.yul\":9359:9365   */\n      dup3\n        /* \"#utility.yul\":9356:9370   */\n      lt\n        /* \"#utility.yul\":9336:9354   */\n      dup2\n        /* \"#utility.yul\":9333:9371   */\n      sub\n        /* \"#utility.yul\":9330:9414   */\n      tag_294\n      jumpi\n        /* \"#utility.yul\":9386:9404   */\n      tag_295\n      tag_153\n      jump\t// in\n    tag_295:\n        /* \"#utility.yul\":9330:9414   */\n    tag_294:\n        /* \"#utility.yul\":9151:9420   */\n      pop\n        /* \"#utility.yul\":9100:9420   */\n      swap2\n      swap1\n      pop\n      jump\t// out\n        /* \"#utility.yul\":9426:9595   */\n    tag_154:\n        /* \"#utility.yul\":9566:9587   */\n      0x4d616e6167657220616363657373206f6e6c7900000000000000000000000000\n        /* \"#utility.yul\":9562:9563   */\n      0x00\n        /* \"#utility.yul\":9554:9560   */\n      dup3\n        /* \"#utility.yul\":9550:9564   */\n      add\n        /* \"#utility.yul\":9543:9588   */\n      mstore\n        /* \"#utility.yul\":9426:9595   */\n      pop\n      jump\t// out\n        /* \"#utility.yul\":9601:9967   */\n    tag_155:\n        /* \"#utility.yul\":9743:9746   */\n      0x00\n        /* \"#utility.yul\":9764:9831   */\n      tag_298\n        /* \"#utility.yul\":9828:9830   */\n      0x13\n        /* \"#utility.yul\":9823:9826   */\n      dup4\n        /* \"#utility.yul\":9764:9831   */\n      tag_132\n      jump\t// in\n    tag_298:\n        /* \"#utility.yul\":9757:9831   */\n      swap2\n      pop\n        /* \"#utility.yul\":9840:9933   */\n      tag_299\n        /* \"#utility.yul\":9929:9932   */\n      dup3\n        /* \"#utility.yul\":9840:9933   */\n      tag_154\n      jump\t// in\n    tag_299:\n        /* \"#utility.yul\":9958:9960   */\n      0x20\n        /* \"#utility.yul\":9953:9956   */\n      dup3\n        /* \"#utility.yul\":9949:9961   */\n      add\n        /* \"#utility.yul\":9942:9961   */\n      swap1\n      pop\n        /* \"#utility.yul\":9601:9967   */\n      swap2\n      swap1\n      pop\n      jump\t// out\n        /* \"#utility.yul\":9973:10392   */\n    tag_76:\n        /* \"#utility.yul\":10139:10143   */\n      0x00\n        /* \"#utility.yul\":10177:10179   */\n      0x20\n        /* \"#utility.yul\":10166:10175   */\n      dup3\n        /* \"#utility.yul\":10162:10180   */\n      add\n        /* \"#utility.yul\":10154:10180   */\n      swap1\n      pop\n        /* \"#utility.yul\":10226:10235   */\n      dup2\n        /* \"#utility.yul\":10220:10224   */\n      dup2\n        /* \"#utility.yul\":10216:10236   */\n      sub\n        /* \"#utility.yul\":10212:10213   */\n      0x00\n        /* \"#utility.yul\":10201:10210   */\n      dup4\n        /* \"#utility.yul\":10197:10214   */\n      add\n        /* \"#utility.yul\":10190:10237   */\n      mstore\n        /* \"#utility.yul\":10254:10385   */\n      tag_301\n        /* \"#utility.yul\":10380:10384   */\n      dup2\n        /* \"#utility.yul\":10254:10385   */\n      tag_155\n      jump\t// in\n    tag_301:\n        /* \"#utility.yul\":10246:10385   */\n      swap1\n      pop\n        /* \"#utility.yul\":9973:10392   */\n      swap2\n      swap1\n      pop\n      jump\t// out\n        /* \"#utility.yul\":10398:10576   */\n    tag_156:\n        /* \"#utility.yul\":10538:10568   */\n      0x5265717565737420697320616c726561647920636f6d706c6574656400000000\n        /* \"#utility.yul\":10534:10535   */\n      0x00\n        /* \"#utility.yul\":10526:10532   */\n      dup3\n        /* \"#utility.yul\":10522:10536   */\n      add\n        /* \"#utility.yul\":10515:10569   */\n      mstore\n        /* \"#utility.yul\":10398:10576   */\n      pop\n      jump\t// out\n        /* \"#utility.yul\":10582:10948   */\n    tag_157:\n        /* \"#utility.yul\":10724:10727   */\n      0x00\n        /* \"#utility.yul\":10745:10812   */\n      tag_304\n        /* \"#utility.yul\":10809:10811   */\n      0x1c\n        /* \"#utility.yul\":10804:10807   */\n      dup4\n        /* \"#utility.yul\":10745:10812   */\n      tag_132\n      jump\t// in\n    tag_304:\n        /* \"#utility.yul\":10738:10812   */\n      swap2\n      pop\n        /* \"#utility.yul\":10821:10914   */\n      tag_305\n        /* \"#utility.yul\":10910:10913   */\n      dup3\n        /* \"#utility.yul\":10821:10914   */\n      tag_156\n      jump\t// in\n    tag_305:\n        /* \"#utility.yul\":10939:10941   */\n      0x20\n        /* \"#utility.yul\":10934:10937   */\n      dup3\n        /* \"#utility.yul\":10930:10942   */\n      add\n        /* \"#utility.yul\":10923:10942   */\n      swap1\n      pop\n        /* \"#utility.yul\":10582:10948   */\n      swap2\n      swap1\n      pop\n      jump\t// out\n        /* \"#utility.yul\":10954:11373   */\n    tag_80:\n        /* \"#utility.yul\":11120:11124   */\n      0x00\n        /* \"#utility.yul\":11158:11160   */\n      0x20\n        /* \"#utility.yul\":11147:11156   */\n      dup3\n        /* \"#utility.yul\":11143:11161   */\n      add\n        /* \"#utility.yul\":11135:11161   */\n      swap1\n      pop\n        /* \"#utility.yul\":11207:11216   */\n      dup2\n        /* \"#utility.yul\":11201:11205   */\n      dup2\n        /* \"#utility.yul\":11197:11217   */\n      sub\n        /* \"#utility.yul\":11193:11194   */\n      0x00\n        /* \"#utility.yul\":11182:11191   */\n      dup4\n        /* \"#utility.yul\":11178:11195   */\n      add\n        /* \"#utility.yul\":11171:11218   */\n      mstore\n        /* \"#utility.yul\":11235:11366   */\n      tag_307\n        /* \"#utility.yul\":11361:11365   */\n      dup2\n        /* \"#utility.yul\":11235:11366   */\n      tag_157\n      jump\t// in\n    tag_307:\n        /* \"#utility.yul\":11227:11366   */\n      swap1\n      pop\n        /* \"#utility.yul\":10954:11373   */\n      swap2\n      swap1\n      pop\n      jump\t// out\n        /* \"#utility.yul\":11379:11559   */\n    tag_158:\n        /* \"#utility.yul\":11427:11504   */\n      0x4e487b7100000000000000000000000000000000000000000000000000000000\n        /* \"#utility.yul\":11424:11425   */\n      0x00\n        /* \"#utility.yul\":11417:11505   */\n      mstore\n        /* \"#utility.yul\":11524:11528   */\n      0x12\n        /* \"#utility.yul\":11521:11522   */\n      0x04\n        /* \"#utility.yul\":11514:11529   */\n      mstore\n        /* \"#utility.yul\":11548:11552   */\n      0x24\n        /* \"#utility.yul\":11545:11546   */\n      0x00\n        /* \"#utility.yul\":11538:11553   */\n      revert\n        /* \"#utility.yul\":11565:11745   */\n    tag_159:\n        /* \"#utility.yul\":11613:11690   */\n      0x4e487b7100000000000000000000000000000000000000000000000000000000\n        /* \"#utility.yul\":11610:11611   */\n      0x00\n        /* \"#utility.yul\":11603:11691   */\n      mstore\n        /* \"#utility.yul\":11710:11714   */\n      0x11\n        /* \"#utility.yul\":11707:11708   */\n      0x04\n        /* \"#utility.yul\":11700:11715   */\n      mstore\n        /* \"#utility.yul\":11734:11738   */\n      0x24\n        /* \"#utility.yul\":11731:11732   */\n      0x00\n        /* \"#utility.yul\":11724:11739   */\n      revert\n        /* \"#utility.yul\":11751:11936   */\n    tag_82:\n        /* \"#utility.yul\":11791:11792   */\n      0x00\n        /* \"#utility.yul\":11808:11828   */\n      tag_311\n        /* \"#utility.yul\":11826:11827   */\n      dup3\n        /* \"#utility.yul\":11808:11828   */\n      tag_126\n      jump\t// in\n    tag_311:\n        /* \"#utility.yul\":11803:11828   */\n      swap2\n      pop\n        /* \"#utility.yul\":11842:11862   */\n      tag_312\n        /* \"#utility.yul\":11860:11861   */\n      dup4\n        /* \"#utility.yul\":11842:11862   */\n      tag_126\n      jump\t// in\n    tag_312:\n        /* \"#utility.yul\":11837:11862   */\n      swap3\n      pop\n        /* \"#utility.yul\":11881:11882   */\n      dup3\n        /* \"#utility.yul\":11871:11906   */\n      tag_313\n      jumpi\n        /* \"#utility.yul\":11886:11904   */\n      tag_314\n      tag_158\n      jump\t// in\n    tag_314:\n        /* \"#utility.yul\":11871:11906   */\n    tag_313:\n        /* \"#utility.yul\":11928:11929   */\n      dup3\n        /* \"#utility.yul\":11925:11926   */\n      dup3\n        /* \"#utility.yul\":11921:11930   */\n      div\n        /* \"#utility.yul\":11916:11930   */\n      swap1\n      pop\n        /* \"#utility.yul\":11751:11936   */\n      swap3\n      swap2\n      pop\n      pop\n      jump\t// out\n        /* \"#utility.yul\":11942:12168   */\n    tag_160:\n        /* \"#utility.yul\":12082:12116   */\n      0x417070726f76616c20726174696e67206d757374206265206772617465722074\n        /* \"#utility.yul\":12078:12079   */\n      0x00\n        /* \"#utility.yul\":12070:12076   */\n      dup3\n        /* \"#utility.yul\":12066:12080   */\n      add\n        /* \"#utility.yul\":12059:12117   */\n      mstore\n        /* \"#utility.yul\":12151:12160   */\n      0x68616e2035302500000000000000000000000000000000000000000000000000\n        /* \"#utility.yul\":12146:12148   */\n      0x20\n        /* \"#utility.yul\":12138:12144   */\n      dup3\n        /* \"#utility.yul\":12134:12149   */\n      add\n        /* \"#utility.yul\":12127:12161   */\n      mstore\n        /* \"#utility.yul\":11942:12168   */\n      pop\n      jump\t// out\n        /* \"#utility.yul\":12174:12540   */\n    tag_161:\n        /* \"#utility.yul\":12316:12319   */\n      0x00\n        /* \"#utility.yul\":12337:12404   */\n      tag_317\n        /* \"#utility.yul\":12401:12403   */\n      0x27\n        /* \"#utility.yul\":12396:12399   */\n      dup4\n        /* \"#utility.yul\":12337:12404   */\n      tag_132\n      jump\t// in\n    tag_317:\n        /* \"#utility.yul\":12330:12404   */\n      swap2\n      pop\n        /* \"#utility.yul\":12413:12506   */\n      tag_318\n        /* \"#utility.yul\":12502:12505   */\n      dup3\n        /* \"#utility.yul\":12413:12506   */\n      tag_160\n      jump\t// in\n    tag_318:\n        /* \"#utility.yul\":12531:12533   */\n      0x40\n        /* \"#utility.yul\":12526:12529   */\n      dup3\n        /* \"#utility.yul\":12522:12534   */\n      add\n        /* \"#utility.yul\":12515:12534   */\n      swap1\n      pop\n        /* \"#utility.yul\":12174:12540   */\n      swap2\n      swap1\n      pop\n      jump\t// out\n        /* \"#utility.yul\":12546:12965   */\n    tag_85:\n        /* \"#utility.yul\":12712:12716   */\n      0x00\n        /* \"#utility.yul\":12750:12752   */\n      0x20\n        /* \"#utility.yul\":12739:12748   */\n      dup3\n        /* \"#utility.yul\":12735:12753   */\n      add\n        /* \"#utility.yul\":12727:12753   */\n      swap1\n      pop\n        /* \"#utility.yul\":12799:12808   */\n      dup2\n        /* \"#utility.yul\":12793:12797   */\n      dup2\n        /* \"#utility.yul\":12789:12809   */\n      sub\n        /* \"#utility.yul\":12785:12786   */\n      0x00\n        /* \"#utility.yul\":12774:12783   */\n      dup4\n        /* \"#utility.yul\":12770:12787   */\n      add\n        /* \"#utility.yul\":12763:12810   */\n      mstore\n        /* \"#utility.yul\":12827:12958   */\n      tag_320\n        /* \"#utility.yul\":12953:12957   */\n      dup2\n        /* \"#utility.yul\":12827:12958   */\n      tag_161\n      jump\t// in\n    tag_320:\n        /* \"#utility.yul\":12819:12958   */\n      swap1\n      pop\n        /* \"#utility.yul\":12546:12965   */\n      swap2\n      swap1\n      pop\n      jump\t// out\n        /* \"#utility.yul\":12971:13146   */\n    tag_93:\n        /* \"#utility.yul\":13009:13012   */\n      0x00\n        /* \"#utility.yul\":13032:13055   */\n      tag_322\n        /* \"#utility.yul\":13049:13054   */\n      dup3\n        /* \"#utility.yul\":13032:13055   */\n      tag_128\n      jump\t// in\n    tag_322:\n        /* \"#utility.yul\":13023:13055   */\n      swap2\n      pop\n        /* \"#utility.yul\":13077:13087   */\n      0xffffffff\n        /* \"#utility.yul\":13070:13075   */\n      dup3\n        /* \"#utility.yul\":13067:13088   */\n      sub\n        /* \"#utility.yul\":13064:13111   */\n      tag_323\n      jumpi\n        /* \"#utility.yul\":13091:13109   */\n      tag_324\n      tag_159\n      jump\t// in\n    tag_324:\n        /* \"#utility.yul\":13064:13111   */\n    tag_323:\n        /* \"#utility.yul\":13138:13139   */\n      0x01\n        /* \"#utility.yul\":13131:13136   */\n      dup3\n        /* \"#utility.yul\":13127:13140   */\n      add\n        /* \"#utility.yul\":13120:13140   */\n      swap1\n      pop\n        /* \"#utility.yul\":12971:13146   */\n      swap2\n      swap1\n      pop\n      jump\t// out\n        /* \"#utility.yul\":13152:13293   */\n    tag_162:\n        /* \"#utility.yul\":13201:13205   */\n      0x00\n        /* \"#utility.yul\":13224:13227   */\n      dup2\n        /* \"#utility.yul\":13216:13227   */\n      swap1\n      pop\n        /* \"#utility.yul\":13247:13250   */\n      dup2\n        /* \"#utility.yul\":13244:13245   */\n      0x00\n        /* \"#utility.yul\":13237:13251   */\n      mstore\n        /* \"#utility.yul\":13281:13285   */\n      0x20\n        /* \"#utility.yul\":13278:13279   */\n      0x00\n        /* \"#utility.yul\":13268:13286   */\n      keccak256\n        /* \"#utility.yul\":13260:13286   */\n      swap1\n      pop\n        /* \"#utility.yul\":13152:13293   */\n      swap2\n      swap1\n      pop\n      jump\t// out\n        /* \"#utility.yul\":13299:13392   */\n    tag_163:\n        /* \"#utility.yul\":13336:13342   */\n      0x00\n        /* \"#utility.yul\":13383:13385   */\n      0x20\n        /* \"#utility.yul\":13378:13380   */\n      0x1f\n        /* \"#utility.yul\":13371:13376   */\n      dup4\n        /* \"#utility.yul\":13367:13381   */\n      add\n        /* \"#utility.yul\":13363:13386   */\n      div\n        /* \"#utility.yul\":13353:13386   */\n      swap1\n      pop\n        /* \"#utility.yul\":13299:13392   */\n      swap2\n      swap1\n      pop\n      jump\t// out\n        /* \"#utility.yul\":13398:13505   */\n    tag_164:\n        /* \"#utility.yul\":13442:13450   */\n      0x00\n        /* \"#utility.yul\":13492:13497   */\n      dup3\n        /* \"#utility.yul\":13486:13490   */\n      dup3\n        /* \"#utility.yul\":13482:13498   */\n      shl\n        /* \"#utility.yul\":13461:13498   */\n      swap1\n      pop\n        /* \"#utility.yul\":13398:13505   */\n      swap3\n      swap2\n      pop\n      pop\n      jump\t// out\n        /* \"#utility.yul\":13511:13904   */\n    tag_165:\n        /* \"#utility.yul\":13580:13586   */\n      0x00\n        /* \"#utility.yul\":13630:13631   */\n      0x08\n        /* \"#utility.yul\":13618:13628   */\n      dup4\n        /* \"#utility.yul\":13614:13632   */\n      mul\n        /* \"#utility.yul\":13653:13750   */\n      tag_329\n        /* \"#utility.yul\":13683:13749   */\n      0xffffffffffffffffffffffffffffffffffffffffffffffffffffffffffffffff\n        /* \"#utility.yul\":13672:13681   */\n      dup3\n        /* \"#utility.yul\":13653:13750   */\n      tag_164\n      jump\t// in\n    tag_329:\n        /* \"#utility.yul\":13771:13810   */\n      tag_330\n        /* \"#utility.yul\":13801:13809   */\n      dup7\n        /* \"#utility.yul\":13790:13799   */\n      dup4\n        /* \"#utility.yul\":13771:13810   */\n      tag_164\n      jump\t// in\n    tag_330:\n        /* \"#utility.yul\":13759:13810   */\n      swap6\n      pop\n        /* \"#utility.yul\":13843:13847   */\n      dup1\n        /* \"#utility.yul\":13839:13848   */\n      not\n        /* \"#utility.yul\":13832:13837   */\n      dup5\n        /* \"#utility.yul\":13828:13849   */\n      and\n        /* \"#utility.yul\":13819:13849   */\n      swap4\n      pop\n        /* \"#utility.yul\":13892:13896   */\n      dup1\n        /* \"#utility.yul\":13882:13890   */\n      dup7\n        /* \"#utility.yul\":13878:13897   */\n      and\n        /* \"#utility.yul\":13871:13876   */\n      dup5\n        /* \"#utility.yul\":13868:13898   */\n      or\n        /* \"#utility.yul\":13858:13898   */\n      swap3\n      pop\n        /* \"#utility.yul\":13587:13904   */\n      pop\n      pop\n        /* \"#utility.yul\":13511:13904   */\n      swap4\n      swap3\n      pop\n      pop\n      pop\n      jump\t// out\n        /* \"#utility.yul\":13910:13970   */\n    tag_166:\n        /* \"#utility.yul\":13938:13941   */\n      0x00\n        /* \"#utility.yul\":13959:13964   */\n      dup2\n        /* \"#utility.yul\":13952:13964   */\n      swap1\n      pop\n        /* \"#utility.yul\":13910:13970   */\n      swap2\n      swap1\n      pop\n      jump\t// out\n        /* \"#utility.yul\":13976:14118   */\n    tag_167:\n        /* \"#utility.yul\":14026:14035   */\n      0x00\n        /* \"#utility.yul\":14059:14112   */\n      tag_333\n        /* \"#utility.yul\":14077:14111   */\n      tag_334\n        /* \"#utility.yul\":14086:14110   */\n      tag_335\n        /* \"#utility.yul\":14104:14109   */\n      dup5\n        /* \"#utility.yul\":14086:14110   */\n      tag_126\n      jump\t// in\n    tag_335:\n        /* \"#utility.yul\":14077:14111   */\n      tag_166\n      jump\t// in\n    tag_334:\n        /* \"#utility.yul\":14059:14112   */\n      tag_126\n      jump\t// in\n    tag_333:\n        /* \"#utility.yul\":14046:14112   */\n      swap1\n      pop\n        /* \"#utility.yul\":13976:14118   */\n      swap2\n      swap1\n      pop\n      jump\t// out\n        /* \"#utility.yul\":14124:14199   */\n    tag_168:\n        /* \"#utility.yul\":14167:14170   */\n      0x00\n        /* \"#utility.yul\":14188:14193   */\n      dup2\n        /* \"#utility.yul\":14181:14193   */\n      swap1\n      pop\n        /* \"#utility.yul\":14124:14199   */\n      swap2\n      swap1\n      pop\n      jump\t// out\n        /* \"#utility.yul\":14205:14474   */\n    tag_169:\n        /* \"#utility.yul\":14315:14354   */\n      tag_338\n        /* \"#utility.yul\":14346:14353   */\n      dup4\n        /* \"#utility.yul\":14315:14354   */\n      tag_167\n      jump\t// in\n    tag_338:\n        /* \"#utility.yul\":14376:14467   */\n      tag_339\n        /* \"#utility.yul\":14425:14466   */\n      tag_340\n        /* \"#utility.yul\":14449:14465   */\n      dup3\n        /* \"#utility.yul\":14425:14466   */\n      tag_168\n      jump\t// in\n    tag_340:\n        /* \"#utility.yul\":14417:14423   */\n      dup5\n        /* \"#utility.yul\":14410:14414   */\n      dup5\n        /* \"#utility.yul\":14404:14415   */\n      sload\n        /* \"#utility.yul\":14376:14467   */\n      tag_165\n      jump\t// in\n    tag_339:\n        /* \"#utility.yul\":14370:14374   */\n      dup3\n        /* \"#utility.yul\":14363:14468   */\n      sstore\n        /* \"#utility.yul\":14281:14474   */\n      pop\n        /* \"#utility.yul\":14205:14474   */\n      pop\n      pop\n      pop\n      jump\t// out\n        /* \"#utility.yul\":14480:14553   */\n    tag_170:\n        /* \"#utility.yul\":14525:14528   */\n      0x00\n        /* \"#utility.yul\":14480:14553   */\n      swap1\n      jump\t// out\n        /* \"#utility.yul\":14559:14748   */\n    tag_171:\n        /* \"#utility.yul\":14636:14668   */\n      tag_343\n      tag_170\n      jump\t// in\n    tag_343:\n        /* \"#utility.yul\":14677:14742   */\n      tag_344\n        /* \"#utility.yul\":14735:14741   */\n      dup2\n        /* \"#utility.yul\":14727:14733   */\n      dup5\n        /* \"#utility.yul\":14721:14725   */\n      dup5\n        /* \"#utility.yul\":14677:14742   */\n      tag_169\n      jump\t// in\n    tag_344:\n        /* \"#utility.yul\":14612:14748   */\n      pop\n        /* \"#utility.yul\":14559:14748   */\n      pop\n      pop\n      jump\t// out\n        /* \"#utility.yul\":14754:14940   */\n    tag_172:\n        /* \"#utility.yul\":14814:14934   */\n    tag_346:\n        /* \"#utility.yul\":14831:14834   */\n      dup2\n        /* \"#utility.yul\":14824:14829   */\n      dup2\n        /* \"#utility.yul\":14821:14835   */\n      lt\n        /* \"#utility.yul\":14814:14934   */\n      iszero\n      tag_348\n      jumpi\n        /* \"#utility.yul\":14885:14924   */\n      tag_349\n        /* \"#utility.yul\":14922:14923   */\n      0x00\n        /* \"#utility.yul\":14915:14920   */\n      dup3\n        /* \"#utility.yul\":14885:14924   */\n      tag_171\n      jump\t// in\n    tag_349:\n        /* \"#utility.yul\":14858:14859   */\n      0x01\n        /* \"#utility.yul\":14851:14856   */\n      dup2\n        /* \"#utility.yul\":14847:14860   */\n      add\n        /* \"#utility.yul\":14838:14860   */\n      swap1\n      pop\n        /* \"#utility.yul\":14814:14934   */\n      jump(tag_346)\n    tag_348:\n        /* \"#utility.yul\":14754:14940   */\n      pop\n      pop\n      jump\t// out\n        /* \"#utility.yul\":14946:15489   */\n    tag_173:\n        /* \"#utility.yul\":15047:15049   */\n      0x1f\n        /* \"#utility.yul\":15042:15045   */\n      dup3\n        /* \"#utility.yul\":15039:15050   */\n      gt\n        /* \"#utility.yul\":15036:15482   */\n      iszero\n      tag_351\n      jumpi\n        /* \"#utility.yul\":15081:15119   */\n      tag_352\n        /* \"#utility.yul\":15113:15118   */\n      dup2\n        /* \"#utility.yul\":15081:15119   */\n      tag_162\n      jump\t// in\n    tag_352:\n        /* \"#utility.yul\":15165:15194   */\n      tag_353\n        /* \"#utility.yul\":15183:15193   */\n      dup5\n        /* \"#utility.yul\":15165:15194   */\n      tag_163\n      jump\t// in\n    tag_353:\n        /* \"#utility.yul\":15155:15163   */\n      dup2\n        /* \"#utility.yul\":15151:15195   */\n      add\n        /* \"#utility.yul\":15348:15350   */\n      0x20\n        /* \"#utility.yul\":15336:15346   */\n      dup6\n        /* \"#utility.yul\":15333:15351   */\n      lt\n        /* \"#utility.yul\":15330:15379   */\n      iszero\n      tag_354\n      jumpi\n        /* \"#utility.yul\":15369:15377   */\n      dup2\n        /* \"#utility.yul\":15354:15377   */\n      swap1\n      pop\n        /* \"#utility.yul\":15330:15379   */\n    tag_354:\n        /* \"#utility.yul\":15392:15472   */\n      tag_355\n        /* \"#utility.yul\":15448:15470   */\n      tag_356\n        /* \"#utility.yul\":15466:15469   */\n      dup6\n        /* \"#utility.yul\":15448:15470   */\n      tag_163\n      jump\t// in\n    tag_356:\n        /* \"#utility.yul\":15438:15446   */\n      dup4\n        /* \"#utility.yul\":15434:15471   */\n      add\n        /* \"#utility.yul\":15421:15432   */\n      dup3\n        /* \"#utility.yul\":15392:15472   */\n      tag_172\n      jump\t// in\n    tag_355:\n        /* \"#utility.yul\":15051:15482   */\n      pop\n      pop\n        /* \"#utility.yul\":15036:15482   */\n    tag_351:\n        /* \"#utility.yul\":14946:15489   */\n      pop\n      pop\n      pop\n      jump\t// out\n        /* \"#utility.yul\":15495:15612   */\n    tag_174:\n        /* \"#utility.yul\":15549:15557   */\n      0x00\n        /* \"#utility.yul\":15599:15604   */\n      dup3\n        /* \"#utility.yul\":15593:15597   */\n      dup3\n        /* \"#utility.yul\":15589:15605   */\n      shr\n        /* \"#utility.yul\":15568:15605   */\n      swap1\n      pop\n        /* \"#utility.yul\":15495:15612   */\n      swap3\n      swap2\n      pop\n      pop\n      jump\t// out\n        /* \"#utility.yul\":15618:15787   */\n    tag_175:\n        /* \"#utility.yul\":15662:15668   */\n      0x00\n        /* \"#utility.yul\":15695:15746   */\n      tag_359\n        /* \"#utility.yul\":15743:15744   */\n      0x00\n        /* \"#utility.yul\":15739:15745   */\n      not\n        /* \"#utility.yul\":15731:15736   */\n      dup5\n        /* \"#utility.yul\":15728:15729   */\n      0x08\n        /* \"#utility.yul\":15724:15737   */\n      mul\n        /* \"#utility.yul\":15695:15746   */\n      tag_174\n      jump\t// in\n    tag_359:\n        /* \"#utility.yul\":15691:15747   */\n      not\n        /* \"#utility.yul\":15776:15780   */\n      dup1\n        /* \"#utility.yul\":15770:15774   */\n      dup4\n        /* \"#utility.yul\":15766:15781   */\n      and\n        /* \"#utility.yul\":15756:15781   */\n      swap2\n      pop\n        /* \"#utility.yul\":15669:15787   */\n      pop\n        /* \"#utility.yul\":15618:15787   */\n      swap3\n      swap2\n      pop\n      pop\n      jump\t// out\n        /* \"#utility.yul\":15792:16087   */\n    tag_176:\n        /* \"#utility.yul\":15868:15872   */\n      0x00\n        /* \"#utility.yul\":16014:16043   */\n      tag_361\n        /* \"#utility.yul\":16039:16042   */\n      dup4\n        /* \"#utility.yul\":16033:16037   */\n      dup4\n        /* \"#utility.yul\":16014:16043   */\n      tag_175\n      jump\t// in\n    tag_361:\n        /* \"#utility.yul\":16006:16043   */\n      swap2\n      pop\n        /* \"#utility.yul\":16076:16079   */\n      dup3\n        /* \"#utility.yul\":16073:16074   */\n      0x02\n        /* \"#utility.yul\":16069:16080   */\n      mul\n        /* \"#utility.yul\":16063:16067   */\n      dup3\n        /* \"#utility.yul\":16060:16081   */\n      or\n        /* \"#utility.yul\":16052:16081   */\n      swap1\n      pop\n        /* \"#utility.yul\":15792:16087   */\n      swap3\n      swap2\n      pop\n      pop\n      jump\t// out\n        /* \"#utility.yul\":16092:17487   */\n    tag_95:\n        /* \"#utility.yul\":16209:16246   */\n      tag_363\n        /* \"#utility.yul\":16242:16245   */\n      dup3\n        /* \"#utility.yul\":16209:16246   */\n      tag_131\n      jump\t// in\n    tag_363:\n        /* \"#utility.yul\":16311:16329   */\n      0xffffffffffffffff\n        /* \"#utility.yul\":16303:16309   */\n      dup2\n        /* \"#utility.yul\":16300:16330   */\n      gt\n        /* \"#utility.yul\":16297:16353   */\n      iszero\n      tag_364\n      jumpi\n        /* \"#utility.yul\":16333:16351   */\n      tag_365\n      tag_141\n      jump\t// in\n    tag_365:\n        /* \"#utility.yul\":16297:16353   */\n    tag_364:\n        /* \"#utility.yul\":16377:16415   */\n      tag_366\n        /* \"#utility.yul\":16409:16413   */\n      dup3\n        /* \"#utility.yul\":16403:16414   */\n      sload\n        /* \"#utility.yul\":16377:16415   */\n      tag_68\n      jump\t// in\n    tag_366:\n        /* \"#utility.yul\":16462:16529   */\n      tag_367\n        /* \"#utility.yul\":16522:16528   */\n      dup3\n        /* \"#utility.yul\":16514:16520   */\n      dup3\n        /* \"#utility.yul\":16508:16512   */\n      dup6\n        /* \"#utility.yul\":16462:16529   */\n      tag_173\n      jump\t// in\n    tag_367:\n        /* \"#utility.yul\":16556:16557   */\n      0x00\n        /* \"#utility.yul\":16580:16584   */\n      0x20\n        /* \"#utility.yul\":16567:16584   */\n      swap1\n      pop\n        /* \"#utility.yul\":16612:16614   */\n      0x1f\n        /* \"#utility.yul\":16604:16610   */\n      dup4\n        /* \"#utility.yul\":16601:16615   */\n      gt\n        /* \"#utility.yul\":16629:16630   */\n      0x01\n        /* \"#utility.yul\":16624:17242   */\n      dup2\n      eq\n      tag_369\n      jumpi\n        /* \"#utility.yul\":17286:17287   */\n      0x00\n        /* \"#utility.yul\":17303:17309   */\n      dup5\n        /* \"#utility.yul\":17300:17377   */\n      iszero\n      tag_370\n      jumpi\n        /* \"#utility.yul\":17352:17361   */\n      dup3\n        /* \"#utility.yul\":17347:17350   */\n      dup8\n        /* \"#utility.yul\":17343:17362   */\n      add\n        /* \"#utility.yul\":17337:17363   */\n      mload\n        /* \"#utility.yul\":17328:17363   */\n      swap1\n      pop\n        /* \"#utility.yul\":17300:17377   */\n    tag_370:\n        /* \"#utility.yul\":17403:17470   */\n      tag_371\n        /* \"#utility.yul\":17463:17469   */\n      dup6\n        /* \"#utility.yul\":17456:17461   */\n      dup3\n        /* \"#utility.yul\":17403:17470   */\n      tag_176\n      jump\t// in\n    tag_371:\n        /* \"#utility.yul\":17397:17401   */\n      dup7\n        /* \"#utility.yul\":17390:17471   */\n      sstore\n        /* \"#utility.yul\":17259:17481   */\n      pop\n        /* \"#utility.yul\":16594:17481   */\n      jump(tag_368)\n        /* \"#utility.yul\":16624:17242   */\n    tag_369:\n        /* \"#utility.yul\":16676:16680   */\n      0x1f\n        /* \"#utility.yul\":16672:16681   */\n      not\n        /* \"#utility.yul\":16664:16670   */\n      dup5\n        /* \"#utility.yul\":16660:16682   */\n      and\n        /* \"#utility.yul\":16710:16747   */\n      tag_372\n        /* \"#utility.yul\":16742:16746   */\n      dup7\n        /* \"#utility.yul\":16710:16747   */\n      tag_162\n      jump\t// in\n    tag_372:\n        /* \"#utility.yul\":16769:16770   */\n      0x00\n        /* \"#utility.yul\":16783:16991   */\n    tag_373:\n        /* \"#utility.yul\":16797:16804   */\n      dup3\n        /* \"#utility.yul\":16794:16795   */\n      dup2\n        /* \"#utility.yul\":16791:16805   */\n      lt\n        /* \"#utility.yul\":16783:16991   */\n      iszero\n      tag_375\n      jumpi\n        /* \"#utility.yul\":16876:16885   */\n      dup5\n        /* \"#utility.yul\":16871:16874   */\n      dup10\n        /* \"#utility.yul\":16867:16886   */\n      add\n        /* \"#utility.yul\":16861:16887   */\n      mload\n        /* \"#utility.yul\":16853:16859   */\n      dup3\n        /* \"#utility.yul\":16846:16888   */\n      sstore\n        /* \"#utility.yul\":16927:16928   */\n      0x01\n        /* \"#utility.yul\":16919:16925   */\n      dup3\n        /* \"#utility.yul\":16915:16929   */\n      add\n        /* \"#utility.yul\":16905:16929   */\n      swap2\n      pop\n        /* \"#utility.yul\":16974:16976   */\n      0x20\n        /* \"#utility.yul\":16963:16972   */\n      dup6\n        /* \"#utility.yul\":16959:16977   */\n      add\n        /* \"#utility.yul\":16946:16977   */\n      swap5\n      pop\n        /* \"#utility.yul\":16820:16824   */\n      0x20\n        /* \"#utility.yul\":16817:16818   */\n      dup2\n        /* \"#utility.yul\":16813:16825   */\n      add\n        /* \"#utility.yul\":16808:16825   */\n      swap1\n      pop\n        /* \"#utility.yul\":16783:16991   */\n      jump(tag_373)\n    tag_375:\n        /* \"#utility.yul\":17019:17025   */\n      dup7\n        /* \"#utility.yul\":17010:17017   */\n      dup4\n        /* \"#utility.yul\":17007:17026   */\n      lt\n        /* \"#utility.yul\":17004:17183   */\n      iszero\n      tag_376\n      jumpi\n        /* \"#utility.yul\":17077:17086   */\n      dup5\n        /* \"#utility.yul\":17072:17075   */\n      dup10\n        /* \"#utility.yul\":17068:17087   */\n      add\n        /* \"#utility.yul\":17062:17088   */\n      mload\n        /* \"#utility.yul\":17120:17168   */\n      tag_377\n        /* \"#utility.yul\":17162:17166   */\n      0x1f\n        /* \"#utility.yul\":17154:17160   */\n      dup10\n        /* \"#utility.yul\":17150:17167   */\n      and\n        /* \"#utility.yul\":17139:17148   */\n      dup3\n        /* \"#utility.yul\":17120:17168   */\n      tag_175\n      jump\t// in\n    tag_377:\n        /* \"#utility.yul\":17112:17118   */\n      dup4\n        /* \"#utility.yul\":17105:17169   */\n      sstore\n        /* \"#utility.yul\":17027:17183   */\n      pop\n        /* \"#utility.yul\":17004:17183   */\n    tag_376:\n        /* \"#utility.yul\":17229:17230   */\n      0x01\n        /* \"#utility.yul\":17225:17226   */\n      0x02\n        /* \"#utility.yul\":17217:17223   */\n      dup9\n        /* \"#utility.yul\":17213:17227   */\n      mul\n        /* \"#utility.yul\":17209:17231   */\n      add\n        /* \"#utility.yul\":17203:17207   */\n      dup9\n        /* \"#utility.yul\":17196:17232   */\n      sstore\n        /* \"#utility.yul\":16631:17242   */\n      pop\n      pop\n      pop\n        /* \"#utility.yul\":16594:17481   */\n    tag_368:\n      pop\n        /* \"#utility.yul\":16184:17487   */\n      pop\n      pop\n      pop\n        /* \"#utility.yul\":16092:17487   */\n      pop\n      pop\n      jump\t// out\n        /* \"#utility.yul\":17493:17725   */\n    tag_177:\n        /* \"#utility.yul\":17633:17667   */\n      0x412076616c696420636f6e747269627574696f6d206d75737420626520612070\n        /* \"#utility.yul\":17629:17630   */\n      0x00\n        /* \"#utility.yul\":17621:17627   */\n      dup3\n        /* \"#utility.yul\":17617:17631   */\n      add\n        /* \"#utility.yul\":17610:17668   */\n      mstore\n        /* \"#utility.yul\":17702:17717   */\n      0x6f7369746976652076616c756500000000000000000000000000000000000000\n        /* \"#utility.yul\":17697:17699   */\n      0x20\n        /* \"#utility.yul\":17689:17695   */\n      dup3\n        /* \"#utility.yul\":17685:17700   */\n      add\n        /* \"#utility.yul\":17678:17718   */\n      mstore\n        /* \"#utility.yul\":17493:17725   */\n      pop\n      jump\t// out\n        /* \"#utility.yul\":17731:18097   */\n    tag_178:\n        /* \"#utility.yul\":17873:17876   */\n      0x00\n        /* \"#utility.yul\":17894:17961   */\n      tag_380\n        /* \"#utility.yul\":17958:17960   */\n      0x2d\n        /* \"#utility.yul\":17953:17956   */\n      dup4\n        /* \"#utility.yul\":17894:17961   */\n      tag_132\n      jump\t// in\n    tag_380:\n        /* \"#utility.yul\":17887:17961   */\n      swap2\n      pop\n        /* \"#utility.yul\":17970:18063   */\n      tag_381\n        /* \"#utility.yul\":18059:18062   */\n      dup3\n        /* \"#utility.yul\":17970:18063   */\n      tag_177\n      jump\t// in\n    tag_381:\n        /* \"#utility.yul\":18088:18090   */\n      0x40\n        /* \"#utility.yul\":18083:18086   */\n      dup3\n        /* \"#utility.yul\":18079:18091   */\n      add\n        /* \"#utility.yul\":18072:18091   */\n      swap1\n      pop\n        /* \"#utility.yul\":17731:18097   */\n      swap2\n      swap1\n      pop\n      jump\t// out\n        /* \"#utility.yul\":18103:18522   */\n    tag_99:\n        /* \"#utility.yul\":18269:18273   */\n      0x00\n        /* \"#utility.yul\":18307:18309   */\n      0x20\n        /* \"#utility.yul\":18296:18305   */\n      dup3\n        /* \"#utility.yul\":18292:18310   */\n      add\n        /* \"#utility.yul\":18284:18310   */\n      swap1\n      pop\n        /* \"#utility.yul\":18356:18365   */\n      dup2\n        /* \"#utility.yul\":18350:18354   */\n      dup2\n        /* \"#utility.yul\":18346:18366   */\n      sub\n        /* \"#utility.yul\":18342:18343   */\n      0x00\n        /* \"#utility.yul\":18331:18340   */\n      dup4\n        /* \"#utility.yul\":18327:18344   */\n      add\n        /* \"#utility.yul\":18320:18367   */\n      mstore\n        /* \"#utility.yul\":18384:18515   */\n      tag_383\n        /* \"#utility.yul\":18510:18514   */\n      dup2\n        /* \"#utility.yul\":18384:18515   */\n      tag_178\n      jump\t// in\n    tag_383:\n        /* \"#utility.yul\":18376:18515   */\n      swap1\n      pop\n        /* \"#utility.yul\":18103:18522   */\n      swap2\n      swap1\n      pop\n      jump\t// out\n        /* \"#utility.yul\":18528:18719   */\n    tag_102:\n        /* \"#utility.yul\":18568:18571   */\n      0x00\n        /* \"#utility.yul\":18587:18607   */\n      tag_385\n        /* \"#utility.yul\":18605:18606   */\n      dup3\n        /* \"#utility.yul\":18587:18607   */\n      tag_126\n      jump\t// in\n    tag_385:\n        /* \"#utility.yul\":18582:18607   */\n      swap2\n      pop\n        /* \"#utility.yul\":18621:18641   */\n      tag_386\n        /* \"#utility.yul\":18639:18640   */\n      dup4\n        /* \"#utility.yul\":18621:18641   */\n      tag_126\n      jump\t// in\n    tag_386:\n        /* \"#utility.yul\":18616:18641   */\n      swap3\n      pop\n        /* \"#utility.yul\":18664:18665   */\n      dup3\n        /* \"#utility.yul\":18661:18662   */\n      dup3\n        /* \"#utility.yul\":18657:18666   */\n      add\n        /* \"#utility.yul\":18650:18666   */\n      swap1\n      pop\n        /* \"#utility.yul\":18685:18688   */\n      dup1\n        /* \"#utility.yul\":18682:18683   */\n      dup3\n        /* \"#utility.yul\":18679:18689   */\n      gt\n        /* \"#utility.yul\":18676:18712   */\n      iszero\n      tag_387\n      jumpi\n        /* \"#utility.yul\":18692:18710   */\n      tag_388\n      tag_159\n      jump\t// in\n    tag_388:\n        /* \"#utility.yul\":18676:18712   */\n    tag_387:\n        /* \"#utility.yul\":18528:18719   */\n      swap3\n      swap2\n      pop\n      pop\n      jump\t// out\n        /* \"#utility.yul\":18725:18897   */\n    tag_179:\n        /* \"#utility.yul\":18865:18889   */\n      0x417070726f7665727320616363657373206f6e6c792100000000000000000000\n        /* \"#utility.yul\":18861:18862   */\n      0x00\n        /* \"#utility.yul\":18853:18859   */\n      dup3\n        /* \"#utility.yul\":18849:18863   */\n      add\n        /* \"#utility.yul\":18842:18890   */\n      mstore\n        /* \"#utility.yul\":18725:18897   */\n      pop\n      jump\t// out\n        /* \"#utility.yul\":18903:19269   */\n    tag_180:\n        /* \"#utility.yul\":19045:19048   */\n      0x00\n        /* \"#utility.yul\":19066:19133   */\n      tag_391\n        /* \"#utility.yul\":19130:19132   */\n      0x16\n        /* \"#utility.yul\":19125:19128   */\n      dup4\n        /* \"#utility.yul\":19066:19133   */\n      tag_132\n      jump\t// in\n    tag_391:\n        /* \"#utility.yul\":19059:19133   */\n      swap2\n      pop\n        /* \"#utility.yul\":19142:19235   */\n      tag_392\n        /* \"#utility.yul\":19231:19234   */\n      dup3\n        /* \"#utility.yul\":19142:19235   */\n      tag_179\n      jump\t// in\n    tag_392:\n        /* \"#utility.yul\":19260:19262   */\n      0x20\n        /* \"#utility.yul\":19255:19258   */\n      dup3\n        /* \"#utility.yul\":19251:19263   */\n      add\n        /* \"#utility.yul\":19244:19263   */\n      swap1\n      pop\n        /* \"#utility.yul\":18903:19269   */\n      swap2\n      swap1\n      pop\n      jump\t// out\n        /* \"#utility.yul\":19275:19694   */\n    tag_110:\n        /* \"#utility.yul\":19441:19445   */\n      0x00\n        /* \"#utility.yul\":19479:19481   */\n      0x20\n        /* \"#utility.yul\":19468:19477   */\n      dup3\n        /* \"#utility.yul\":19464:19482   */\n      add\n        /* \"#utility.yul\":19456:19482   */\n      swap1\n      pop\n        /* \"#utility.yul\":19528:19537   */\n      dup2\n        /* \"#utility.yul\":19522:19526   */\n      dup2\n        /* \"#utility.yul\":19518:19538   */\n      sub\n        /* \"#utility.yul\":19514:19515   */\n      0x00\n        /* \"#utility.yul\":19503:19512   */\n      dup4\n        /* \"#utility.yul\":19499:19516   */\n      add\n        /* \"#utility.yul\":19492:19539   */\n      mstore\n        /* \"#utility.yul\":19556:19687   */\n      tag_394\n        /* \"#utility.yul\":19682:19686   */\n      dup2\n        /* \"#utility.yul\":19556:19687   */\n      tag_180\n      jump\t// in\n    tag_394:\n        /* \"#utility.yul\":19548:19687   */\n      swap1\n      pop\n        /* \"#utility.yul\":19275:19694   */\n      swap2\n      swap1\n      pop\n      jump\t// out\n        /* \"#utility.yul\":19700:19880   */\n    tag_181:\n        /* \"#utility.yul\":19840:19872   */\n      0x417070726f76616c20766f746520616c7265616479207265636f726465640000\n        /* \"#utility.yul\":19836:19837   */\n      0x00\n        /* \"#utility.yul\":19828:19834   */\n      dup3\n        /* \"#utility.yul\":19824:19838   */\n      add\n        /* \"#utility.yul\":19817:19873   */\n      mstore\n        /* \"#utility.yul\":19700:19880   */\n      pop\n      jump\t// out\n        /* \"#utility.yul\":19886:20252   */\n    tag_182:\n        /* \"#utility.yul\":20028:20031   */\n      0x00\n        /* \"#utility.yul\":20049:20116   */\n      tag_397\n        /* \"#utility.yul\":20113:20115   */\n      0x1e\n        /* \"#utility.yul\":20108:20111   */\n      dup4\n        /* \"#utility.yul\":20049:20116   */\n      tag_132\n      jump\t// in\n    tag_397:\n        /* \"#utility.yul\":20042:20116   */\n      swap2\n      pop\n        /* \"#utility.yul\":20125:20218   */\n      tag_398\n        /* \"#utility.yul\":20214:20217   */\n      dup3\n        /* \"#utility.yul\":20125:20218   */\n      tag_181\n      jump\t// in\n    tag_398:\n        /* \"#utility.yul\":20243:20245   */\n      0x20\n        /* \"#utility.yul\":20238:20241   */\n      dup3\n        /* \"#utility.yul\":20234:20246   */\n      add\n        /* \"#utility.yul\":20227:20246   */\n      swap1\n      pop\n        /* \"#utility.yul\":19886:20252   */\n      swap2\n      swap1\n      pop\n      jump\t// out\n        /* \"#utility.yul\":20258:20677   */\n    tag_113:\n        /* \"#utility.yul\":20424:20428   */\n      0x00\n        /* \"#utility.yul\":20462:20464   */\n      0x20\n        /* \"#utility.yul\":20451:20460   */\n      dup3\n        /* \"#utility.yul\":20447:20465   */\n      add\n        /* \"#utility.yul\":20439:20465   */\n      swap1\n      pop\n        /* \"#utility.yul\":20511:20520   */\n      dup2\n        /* \"#utility.yul\":20505:20509   */\n      dup2\n        /* \"#utility.yul\":20501:20521   */\n      sub\n        /* \"#utility.yul\":20497:20498   */\n      0x00\n        /* \"#utility.yul\":20486:20495   */\n      dup4\n        /* \"#utility.yul\":20482:20499   */\n      add\n        /* \"#utility.yul\":20475:20522   */\n      mstore\n        /* \"#utility.yul\":20539:20670   */\n      tag_400\n        /* \"#utility.yul\":20665:20669   */\n      dup2\n        /* \"#utility.yul\":20539:20670   */\n      tag_182\n      jump\t// in\n    tag_400:\n        /* \"#utility.yul\":20531:20670   */\n      swap1\n      pop\n        /* \"#utility.yul\":20258:20677   */\n      swap2\n      swap1\n      pop\n      jump\t// out\n        /* \"#utility.yul\":20683:20877   */\n    tag_118:\n        /* \"#utility.yul\":20723:20727   */\n      0x00\n        /* \"#utility.yul\":20743:20763   */\n      tag_402\n        /* \"#utility.yul\":20761:20762   */\n      dup3\n        /* \"#utility.yul\":20743:20763   */\n      tag_126\n      jump\t// in\n    tag_402:\n        /* \"#utility.yul\":20738:20763   */\n      swap2\n      pop\n        /* \"#utility.yul\":20777:20797   */\n      tag_403\n        /* \"#utility.yul\":20795:20796   */\n      dup4\n        /* \"#utility.yul\":20777:20797   */\n      tag_126\n      jump\t// in\n    tag_403:\n        /* \"#utility.yul\":20772:20797   */\n      swap3\n      pop\n        /* \"#utility.yul\":20821:20822   */\n      dup3\n        /* \"#utility.yul\":20818:20819   */\n      dup3\n        /* \"#utility.yul\":20814:20823   */\n      sub\n        /* \"#utility.yul\":20806:20823   */\n      swap1\n      pop\n        /* \"#utility.yul\":20845:20846   */\n      dup2\n        /* \"#utility.yul\":20839:20843   */\n      dup2\n        /* \"#utility.yul\":20836:20847   */\n      gt\n        /* \"#utility.yul\":20833:20870   */\n      iszero\n      tag_404\n      jumpi\n        /* \"#utility.yul\":20850:20868   */\n      tag_405\n      tag_159\n      jump\t// in\n    tag_405:\n        /* \"#utility.yul\":20833:20870   */\n    tag_404:\n        /* \"#utility.yul\":20683:20877   */\n      swap3\n      swap2\n      pop\n      pop\n      jump\t// out\n\n    auxdata: 0xa2646970667358221220baa164571797d8b68a2ad691e423769034889cece9ed089fb359b6d97d8324f264736f6c63430008130033\n}\n","bytecode":{"linkReferences":{},"object":"60806040523480156200001157600080fd5b5060405162001a9238038062001a92833981810160405281019062000037919062000178565b66038d7ea4c6800081101562000084576040517f08c379a00000000000000000000000000000000000000000000000000000000081526004016200007b906200026c565b60405180910390fd5b816000806101000a81548173ffffffffffffffffffffffffffffffffffffffff021916908373ffffffffffffffffffffffffffffffffffffffff1602179055508060018190555050506200028e565b600080fd5b600073ffffffffffffffffffffffffffffffffffffffff82169050919050565b60006200010582620000d8565b9050919050565b6200011781620000f8565b81146200012357600080fd5b50565b60008151905062000137816200010c565b92915050565b6000819050919050565b62000152816200013d565b81146200015e57600080fd5b50565b600081519050620001728162000147565b92915050565b60008060408385031215620001925762000191620000d3565b5b6000620001a28582860162000126565b9250506020620001b58582860162000161565b9150509250929050565b600082825260208201905092915050565b7f417070726f7665722773206d696e696d756d20636f6e7472696275746f6e206d60008201527f7573742062652067726561746572207468616e206f7220657175616c20746f2060208201527f302e303031204574686572000000000000000000000000000000000000000000604082015250565b600062000254604b83620001bf565b91506200026182620001d0565b606082019050919050565b60006020820190508181036000830152620002878162000245565b9050919050565b6117f4806200029e6000396000f3fe60806040526004361061009c5760003560e01c8063647c75e211610064578063647c75e2146101a057806370cecd56146101dd5780638a9cfd55146102065780639fb42b1f1461022f578063d7bb99ba1461025a578063e9188f55146102645761009c565b80630a144391146100a15780630ab469b0146100de5780632a4ed00f1461011f578063435f110b1461014a578063481c6a7514610175575b600080fd5b3480156100ad57600080fd5b506100c860048036038101906100c39190610c8a565b61028d565b6040516100d59190610cd0565b60405180910390f35b3480156100ea57600080fd5b5061010560048036038101906101009190610d27565b6102a5565b604051610116959493929190610e0e565b60405180910390f35b34801561012b57600080fd5b50610134610390565b6040516101419190610cd0565b60405180910390f35b34801561015657600080fd5b5061015f610396565b60405161016c9190610cd0565b60405180910390f35b34801561018157600080fd5b5061018a61039c565b6040516101979190610e68565b60405180910390f35b3480156101ac57600080fd5b506101c760048036038101906101c29190610c8a565b6103c0565b6040516101d49190610cd0565b60405180910390f35b3480156101e957600080fd5b5061020460048036038101906101ff9190610d27565b6103d8565b005b34801561021257600080fd5b5061022d60048036038101906102289190610fe4565b6105be565b005b34801561023b57600080fd5b50610244610739565b6040516102519190611062565b60405180910390f35b61026261074f565b005b34801561027057600080fd5b5061028b600480360381019061028691906110a9565b6109bf565b005b60036020528060005260406000206000915090505481565b60066020528060005260406000206000915090508060000180546102c890611118565b80601f01602080910402602001604051908101604052809291908181526020018280546102f490611118565b80156103415780601f1061031657610100808354040283529160200191610341565b820191906000526020600020905b81548152906001019060200180831161032457829003601f168201915b5050505050908060010154908060020160009054906101000a900473ffffffffffffffffffffffffffffffffffffffff16908060020160149054906101000a900460ff16908060030154905085565b60015481565b60025481565b60008054906101000a900473ffffffffffffffffffffffffffffffffffffffff1681565b60046020528060005260406000206000915090505481565b60008054906101000a900473ffffffffffffffffffffffffffffffffffffffff1673ffffffffffffffffffffffffffffffffffffffff163373ffffffffffffffffffffffffffffffffffffffff1614610466576040517f08c379a000000000000000000000000000000000000000000000000000000000815260040161045d90611195565b60405180910390fd5b6000600660008363ffffffff1663ffffffff16815260200190815260200160002090508060020160149054906101000a900460ff16156104db576040517f08c379a00000000000000000000000000000000000000000000000000000000081526004016104d290611201565b60405180910390fd5b600280546104e9919061127f565b81600301541161052e576040517f08c379a000000000000000000000000000000000000000000000000000000000815260040161052590611322565b60405180910390fd5b8060020160009054906101000a900473ffffffffffffffffffffffffffffffffffffffff1673ffffffffffffffffffffffffffffffffffffffff166108fc82600101549081150290604051600060405180830381858888f1935050505015801561059c573d6000803e3d6000fd5b5060018160020160146101000a81548160ff0219169083151502179055505050565b60008054906101000a900473ffffffffffffffffffffffffffffffffffffffff1673ffffffffffffffffffffffffffffffffffffffff163373ffffffffffffffffffffffffffffffffffffffff161461064c576040517f08c379a000000000000000000000000000000000000000000000000000000000815260040161064390611195565b60405180910390fd5b6000600660006005600081819054906101000a900463ffffffff168092919061067490611342565b91906101000a81548163ffffffff021916908363ffffffff16021790555063ffffffff1663ffffffff1681526020019081526020016000209050838160000190816106bf919061151a565b50828160010181905550818160020160006101000a81548173ffffffffffffffffffffffffffffffffffffffff021916908373ffffffffffffffffffffffffffffffffffffffff16021790555060008160020160146101000a81548160ff0219169083151502179055506000816003018190555050505050565b600560009054906101000a900463ffffffff1681565b60003411610792576040517f08c379a00000000000000000000000000000000000000000000000000000000081526004016107899061165e565b60405180910390fd5b60015434106107fd5734600360003373ffffffffffffffffffffffffffffffffffffffff1673ffffffffffffffffffffffffffffffffffffffff1681526020019081526020016000208190555034600260008282546107f1919061167e565b925050819055506109bd565b34600460003373ffffffffffffffffffffffffffffffffffffffff1673ffffffffffffffffffffffffffffffffffffffff168152602001908152602001600020600082825461084c919061167e565b92505081905550600154600460003373ffffffffffffffffffffffffffffffffffffffff1673ffffffffffffffffffffffffffffffffffffffff16815260200190815260200160002054106109bc57600460003373ffffffffffffffffffffffffffffffffffffffff1673ffffffffffffffffffffffffffffffffffffffff16815260200190815260200160002054600360003373ffffffffffffffffffffffffffffffffffffffff1673ffffffffffffffffffffffffffffffffffffffff16815260200190815260200160002081905550600360003373ffffffffffffffffffffffffffffffffffffffff1673ffffffffffffffffffffffffffffffffffffffff168152602001908152602001600020546002600082825461096f919061167e565b925050819055506000600460003373ffffffffffffffffffffffffffffffffffffffff1673ffffffffffffffffffffffffffffffffffffffff168152602001908152602001600020819055505b5b565b6000600660008463ffffffff1663ffffffff1681526020019081526020016000209050600154600360003373ffffffffffffffffffffffffffffffffffffffff1673ffffffffffffffffffffffffffffffffffffffff168152602001908152602001600020541015610a66576040517f08c379a0000000000000000000000000000000000000000000000000000000008152600401610a5d906116fe565b60405180910390fd5b8115158160040160003373ffffffffffffffffffffffffffffffffffffffff1673ffffffffffffffffffffffffffffffffffffffff16815260200190815260200160002060009054906101000a900460ff16151503610afa576040517f08c379a0000000000000000000000000000000000000000000000000000000008152600401610af19061176a565b60405180910390fd5b818160040160003373ffffffffffffffffffffffffffffffffffffffff1673ffffffffffffffffffffffffffffffffffffffff16815260200190815260200160002060006101000a81548160ff0219169083151502179055508115610bb857600360003373ffffffffffffffffffffffffffffffffffffffff1673ffffffffffffffffffffffffffffffffffffffff16815260200190815260200160002054816003016000828254610bac919061167e565b92505081905550610c13565b600360003373ffffffffffffffffffffffffffffffffffffffff1673ffffffffffffffffffffffffffffffffffffffff16815260200190815260200160002054816003016000828254610c0b919061178a565b925050819055505b505050565b6000604051905090565b600080fd5b600080fd5b600073ffffffffffffffffffffffffffffffffffffffff82169050919050565b6000610c5782610c2c565b9050919050565b610c6781610c4c565b8114610c7257600080fd5b50565b600081359050610c8481610c5e565b92915050565b600060208284031215610ca057610c9f610c22565b5b6000610cae84828501610c75565b91505092915050565b6000819050919050565b610cca81610cb7565b82525050565b6000602082019050610ce56000830184610cc1565b92915050565b600063ffffffff82169050919050565b610d0481610ceb565b8114610d0f57600080fd5b50565b600081359050610d2181610cfb565b92915050565b600060208284031215610d3d57610d3c610c22565b5b6000610d4b84828501610d12565b91505092915050565b600081519050919050565b600082825260208201905092915050565b60005b83811015610d8e578082015181840152602081019050610d73565b60008484015250505050565b6000601f19601f8301169050919050565b6000610db682610d54565b610dc08185610d5f565b9350610dd0818560208601610d70565b610dd981610d9a565b840191505092915050565b610ded81610c4c565b82525050565b60008115159050919050565b610e0881610df3565b82525050565b600060a0820190508181036000830152610e288188610dab565b9050610e376020830187610cc1565b610e446040830186610de4565b610e516060830185610dff565b610e5e6080830184610cc1565b9695505050505050565b6000602082019050610e7d6000830184610de4565b92915050565b600080fd5b600080fd5b7f4e487b7100000000000000000000000000000000000000000000000000000000600052604160045260246000fd5b610ec582610d9a565b810181811067ffffffffffffffff82111715610ee457610ee3610e8d565b5b80604052505050565b6000610ef7610c18565b9050610f038282610ebc565b919050565b600067ffffffffffffffff821115610f2357610f22610e8d565b5b610f2c82610d9a565b9050602081019050919050565b82818337600083830152505050565b6000610f5b610f5684610f08565b610eed565b905082815260208101848484011115610f7757610f76610e88565b5b610f82848285610f39565b509392505050565b600082601f830112610f9f57610f9e610e83565b5b8135610faf848260208601610f48565b91505092915050565b610fc181610cb7565b8114610fcc57600080fd5b50565b600081359050610fde81610fb8565b92915050565b600080600060608486031215610ffd57610ffc610c22565b5b600084013567ffffffffffffffff81111561101b5761101a610c27565b5b61102786828701610f8a565b935050602061103886828701610fcf565b925050604061104986828701610c75565b9150509250925092565b61105c81610ceb565b82525050565b60006020820190506110776000830184611053565b92915050565b61108681610df3565b811461109157600080fd5b50565b6000813590506110a38161107d565b92915050565b600080604083850312156110c0576110bf610c22565b5b60006110ce85828601610d12565b92505060206110df85828601611094565b9150509250929050565b7f4e487b7100000000000000000000000000000000000000000000000000000000600052602260045260246000fd5b6000600282049050600182168061113057607f821691505b602082108103611143576111426110e9565b5b50919050565b7f4d616e6167657220616363657373206f6e6c7900000000000000000000000000600082015250565b600061117f601383610d5f565b915061118a82611149565b602082019050919050565b600060208201905081810360008301526111ae81611172565b9050919050565b7f5265717565737420697320616c726561647920636f6d706c6574656400000000600082015250565b60006111eb601c83610d5f565b91506111f6826111b5565b602082019050919050565b6000602082019050818103600083015261121a816111de565b9050919050565b7f4e487b7100000000000000000000000000000000000000000000000000000000600052601260045260246000fd5b7f4e487b7100000000000000000000000000000000000000000000000000000000600052601160045260246000fd5b600061128a82610cb7565b915061129583610cb7565b9250826112a5576112a4611221565b5b828204905092915050565b7f417070726f76616c20726174696e67206d75737420626520677261746572207460008201527f68616e2035302500000000000000000000000000000000000000000000000000602082015250565b600061130c602783610d5f565b9150611317826112b0565b604082019050919050565b6000602082019050818103600083015261133b816112ff565b9050919050565b600061134d82610ceb565b915063ffffffff820361136357611362611250565b5b600182019050919050565b60008190508160005260206000209050919050565b60006020601f8301049050919050565b600082821b905092915050565b6000600883026113d07fffffffffffffffffffffffffffffffffffffffffffffffffffffffffffffffff82611393565b6113da8683611393565b95508019841693508086168417925050509392505050565b6000819050919050565b600061141761141261140d84610cb7565b6113f2565b610cb7565b9050919050565b6000819050919050565b611431836113fc565b61144561143d8261141e565b8484546113a0565b825550505050565b600090565b61145a61144d565b611465818484611428565b505050565b5b818110156114895761147e600082611452565b60018101905061146b565b5050565b601f8211156114ce5761149f8161136e565b6114a884611383565b810160208510156114b7578190505b6114cb6114c385611383565b83018261146a565b50505b505050565b600082821c905092915050565b60006114f1600019846008026114d3565b1980831691505092915050565b600061150a83836114e0565b9150826002028217905092915050565b61152382610d54565b67ffffffffffffffff81111561153c5761153b610e8d565b5b6115468254611118565b61155182828561148d565b600060209050601f8311600181146115845760008415611572578287015190505b61157c85826114fe565b8655506115e4565b601f1984166115928661136e565b60005b828110156115ba57848901518255600182019150602085019450602081019050611595565b868310156115d757848901516115d3601f8916826114e0565b8355505b6001600288020188555050505b505050505050565b7f412076616c696420636f6e747269627574696f6d206d7573742062652061207060008201527f6f7369746976652076616c756500000000000000000000000000000000000000602082015250565b6000611648602d83610d5f565b9150611653826115ec565b604082019050919050565b600060208201905081810360008301526116778161163b565b9050919050565b600061168982610cb7565b915061169483610cb7565b92508282019050808211156116ac576116ab611250565b5b92915050565b7f417070726f7665727320616363657373206f6e6c792100000000000000000000600082015250565b60006116e8601683610d5f565b91506116f3826116b2565b602082019050919050565b60006020820190508181036000830152611717816116db565b9050919050565b7f417070726f76616c20766f746520616c7265616479207265636f726465640000600082015250565b6000611754601e83610d5f565b915061175f8261171e565b602082019050919050565b6000602082019050818103600083015261178381611747565b9050919050565b600061179582610cb7565b91506117a083610cb7565b92508282039050818111156117b8576117b7611250565b5b9291505056fea2646970667358221220baa164571797d8b68a2ad691e423769034889cece9ed089fb359b6d97d8324f264736f6c63430008130033","opcodes":"PUSH1 0x80 PUSH1 0x40 MSTORE CALLVALUE DUP1 ISZERO PUSH3 0x11 JUMPI PUSH1 0x0 DUP1 REVERT JUMPDEST POP PUSH1 0x40 MLOAD PUSH3 0x1A92 CODESIZE SUB DUP1 PUSH3 0x1A92 DUP4 CODECOPY DUP2 DUP2 ADD PUSH1 0x40 MSTORE DUP2 ADD SWAP1 PUSH3 0x37 SWAP2 SWAP1 PUSH3 0x178 JUMP JUMPDEST PUSH7 0x38D7EA4C68000 DUP2 LT ISZERO PUSH3 0x84 JUMPI PUSH1 0x40 MLOAD PUSH32 0x8C379A000000000000000000000000000000000000000000000000000000000 DUP2 MSTORE PUSH1 0x4 ADD PUSH3 0x7B SWAP1 PUSH3 0x26C JUMP JUMPDEST PUSH1 0x40 MLOAD DUP1 SWAP2 SUB SWAP1 REVERT JUMPDEST DUP2 PUSH1 0x0 DUP1 PUSH2 0x100 EXP DUP2 SLOAD DUP2 PUSH20 0xFFFFFFFFFFFFFFFFFFFFFFFFFFFFFFFFFFFFFFFF MUL NOT AND SWAP1 DUP4 PUSH20 0xFFFFFFFFFFFFFFFFFFFFFFFFFFFFFFFFFFFFFFFF AND MUL OR SWAP1 SSTORE POP DUP1 PUSH1 0x1 DUP2 SWAP1 SSTORE POP POP POP PUSH3 0x28E JUMP JUMPDEST PUSH1 0x0 DUP1 REVERT JUMPDEST PUSH1 0x0 PUSH20 0xFFFFFFFFFFFFFFFFFFFFFFFFFFFFFFFFFFFFFFFF DUP3 AND SWAP1 POP SWAP2 SWAP1 POP JUMP JUMPDEST PUSH1 0x0 PUSH3 0x105 DUP3 PUSH3 0xD8 JUMP JUMPDEST SWAP1 POP SWAP2 SWAP1 POP JUMP JUMPDEST PUSH3 0x117 DUP2 PUSH3 0xF8 JUMP JUMPDEST DUP2 EQ PUSH3 0x123 JUMPI PUSH1 0x0 DUP1 REVERT JUMPDEST POP JUMP JUMPDEST PUSH1 0x0 DUP2 MLOAD SWAP1 POP PUSH3 0x137 DUP2 PUSH3 0x10C JUMP JUMPDEST SWAP3 SWAP2 POP POP JUMP JUMPDEST PUSH1 0x0 DUP2 SWAP1 POP SWAP2 SWAP1 POP JUMP JUMPDEST PUSH3 0x152 DUP2 PUSH3 0x13D JUMP JUMPDEST DUP2 EQ PUSH3 0x15E JUMPI PUSH1 0x0 DUP1 REVERT JUMPDEST POP JUMP JUMPDEST PUSH1 0x0 DUP2 MLOAD SWAP1 POP PUSH3 0x172 DUP2 PUSH3 0x147 JUMP JUMPDEST SWAP3 SWAP2 POP POP JUMP JUMPDEST PUSH1 0x0 DUP1 PUSH1 0x40 DUP4 DUP6 SUB SLT ISZERO PUSH3 0x192 JUMPI PUSH3 0x191 PUSH3 0xD3 JUMP JUMPDEST JUMPDEST PUSH1 0x0 PUSH3 0x1A2 DUP6 DUP3 DUP7 ADD PUSH3 0x126 JUMP JUMPDEST SWAP3 POP POP PUSH1 0x20 PUSH3 0x1B5 DUP6 DUP3 DUP7 ADD PUSH3 0x161 JUMP JUMPDEST SWAP2 POP POP SWAP3 POP SWAP3 SWAP1 POP JUMP JUMPDEST PUSH1 0x0 DUP3 DUP3 MSTORE PUSH1 0x20 DUP3 ADD SWAP1 POP SWAP3 SWAP2 POP POP JUMP JUMPDEST PUSH32 0x417070726F7665722773206D696E696D756D20636F6E7472696275746F6E206D PUSH1 0x0 DUP3 ADD MSTORE PUSH32 0x7573742062652067726561746572207468616E206F7220657175616C20746F20 PUSH1 0x20 DUP3 ADD MSTORE PUSH32 0x302E303031204574686572000000000000000000000000000000000000000000 PUSH1 0x40 DUP3 ADD MSTORE POP JUMP JUMPDEST PUSH1 0x0 PUSH3 0x254 PUSH1 0x4B DUP4 PUSH3 0x1BF JUMP JUMPDEST SWAP2 POP PUSH3 0x261 DUP3 PUSH3 0x1D0 JUMP JUMPDEST PUSH1 0x60 DUP3 ADD SWAP1 POP SWAP2 SWAP1 POP JUMP JUMPDEST PUSH1 0x0 PUSH1 0x20 DUP3 ADD SWAP1 POP DUP2 DUP2 SUB PUSH1 0x0 DUP4 ADD MSTORE PUSH3 0x287 DUP2 PUSH3 0x245 JUMP JUMPDEST SWAP1 POP SWAP2 SWAP1 POP JUMP JUMPDEST PUSH2 0x17F4 DUP1 PUSH3 0x29E PUSH1 0x0 CODECOPY PUSH1 0x0 RETURN INVALID PUSH1 0x80 PUSH1 0x40 MSTORE PUSH1 0x4 CALLDATASIZE LT PUSH2 0x9C JUMPI PUSH1 0x0 CALLDATALOAD PUSH1 0xE0 SHR DUP1 PUSH4 0x647C75E2 GT PUSH2 0x64 JUMPI DUP1 PUSH4 0x647C75E2 EQ PUSH2 0x1A0 JUMPI DUP1 PUSH4 0x70CECD56 EQ PUSH2 0x1DD JUMPI DUP1 PUSH4 0x8A9CFD55 EQ PUSH2 0x206 JUMPI DUP1 PUSH4 0x9FB42B1F EQ PUSH2 0x22F JUMPI DUP1 PUSH4 0xD7BB99BA EQ PUSH2 0x25A JUMPI DUP1 PUSH4 0xE9188F55 EQ PUSH2 0x264 JUMPI PUSH2 0x9C JUMP JUMPDEST DUP1 PUSH4 0xA144391 EQ PUSH2 0xA1 JUMPI DUP1 PUSH4 0xAB469B0 EQ PUSH2 0xDE JUMPI DUP1 PUSH4 0x2A4ED00F EQ PUSH2 0x11F JUMPI DUP1 PUSH4 0x435F110B EQ PUSH2 0x14A JUMPI DUP1 PUSH4 0x481C6A75 EQ PUSH2 0x175 JUMPI JUMPDEST PUSH1 0x0 DUP1 REVERT JUMPDEST CALLVALUE DUP1 ISZERO PUSH2 0xAD JUMPI PUSH1 0x0 DUP1 REVERT JUMPDEST POP PUSH2 0xC8 PUSH1 0x4 DUP1 CALLDATASIZE SUB DUP2 ADD SWAP1 PUSH2 0xC3 SWAP2 SWAP1 PUSH2 0xC8A JUMP JUMPDEST PUSH2 0x28D JUMP JUMPDEST PUSH1 0x40 MLOAD PUSH2 0xD5 SWAP2 SWAP1 PUSH2 0xCD0 JUMP JUMPDEST PUSH1 0x40 MLOAD DUP1 SWAP2 SUB SWAP1 RETURN JUMPDEST CALLVALUE DUP1 ISZERO PUSH2 0xEA JUMPI PUSH1 0x0 DUP1 REVERT JUMPDEST POP PUSH2 0x105 PUSH1 0x4 DUP1 CALLDATASIZE SUB DUP2 ADD SWAP1 PUSH2 0x100 SWAP2 SWAP1 PUSH2 0xD27 JUMP JUMPDEST PUSH2 0x2A5 JUMP JUMPDEST PUSH1 0x40 MLOAD PUSH2 0x116 SWAP6 SWAP5 SWAP4 SWAP3 SWAP2 SWAP1 PUSH2 0xE0E JUMP JUMPDEST PUSH1 0x40 MLOAD DUP1 SWAP2 SUB SWAP1 RETURN JUMPDEST CALLVALUE DUP1 ISZERO PUSH2 0x12B JUMPI PUSH1 0x0 DUP1 REVERT JUMPDEST POP PUSH2 0x134 PUSH2 0x390 JUMP JUMPDEST PUSH1 0x40 MLOAD PUSH2 0x141 SWAP2 SWAP1 PUSH2 0xCD0 JUMP JUMPDEST PUSH1 0x40 MLOAD DUP1 SWAP2 SUB SWAP1 RETURN JUMPDEST CALLVALUE DUP1 ISZERO PUSH2 0x156 JUMPI PUSH1 0x0 DUP1 REVERT JUMPDEST POP PUSH2 0x15F PUSH2 0x396 JUMP JUMPDEST PUSH1 0x40 MLOAD PUSH2 0x16C SWAP2 SWAP1 PUSH2 0xCD0 JUMP JUMPDEST PUSH1 0x40 MLOAD DUP1 SWAP2 SUB SWAP1 RETURN JUMPDEST CALLVALUE DUP1 ISZERO PUSH2 0x181 JUMPI PUSH1 0x0 DUP1 REVERT JUMPDEST POP PUSH2 0x18A PUSH2 0x39C JUMP JUMPDEST PUSH1 0x40 MLOAD PUSH2 0x197 SWAP2 SWAP1 PUSH2 0xE68 JUMP JUMPDEST PUSH1 0x40 MLOAD DUP1 SWAP2 SUB SWAP1 RETURN JUMPDEST CALLVALUE DUP1 ISZERO PUSH2 0x1AC JUMPI PUSH1 0x0 DUP1 REVERT JUMPDEST POP PUSH2 0x1C7 PUSH1 0x4 DUP1 CALLDATASIZE SUB DUP2 ADD SWAP1 PUSH2 0x1C2 SWAP2 SWAP1 PUSH2 0xC8A JUMP JUMPDEST PUSH2 0x3C0 JUMP JUMPDEST PUSH1 0x40 MLOAD PUSH2 0x1D4 SWAP2 SWAP1 PUSH2 0xCD0 JUMP JUMPDEST PUSH1 0x40 MLOAD DUP1 SWAP2 SUB SWAP1 RETURN JUMPDEST CALLVALUE DUP1 ISZERO PUSH2 0x1E9 JUMPI PUSH1 0x0 DUP1 REVERT JUMPDEST POP PUSH2 0x204 PUSH1 0x4 DUP1 CALLDATASIZE SUB DUP2 ADD SWAP1 PUSH2 0x1FF SWAP2 SWAP1 PUSH2 0xD27 JUMP JUMPDEST PUSH2 0x3D8 JUMP JUMPDEST STOP JUMPDEST CALLVALUE DUP1 ISZERO PUSH2 0x212 JUMPI PUSH1 0x0 DUP1 REVERT JUMPDEST POP PUSH2 0x22D PUSH1 0x4 DUP1 CALLDATASIZE SUB DUP2 ADD SWAP1 PUSH2 0x228 SWAP2 SWAP1 PUSH2 0xFE4 JUMP JUMPDEST PUSH2 0x5BE JUMP JUMPDEST STOP JUMPDEST CALLVALUE DUP1 ISZERO PUSH2 0x23B JUMPI PUSH1 0x0 DUP1 REVERT JUMPDEST POP PUSH2 0x244 PUSH2 0x739 JUMP JUMPDEST PUSH1 0x40 MLOAD PUSH2 0x251 SWAP2 SWAP1 PUSH2 0x1062 JUMP JUMPDEST PUSH1 0x40 MLOAD DUP1 SWAP2 SUB SWAP1 RETURN JUMPDEST PUSH2 0x262 PUSH2 0x74F JUMP JUMPDEST STOP JUMPDEST CALLVALUE DUP1 ISZERO PUSH2 0x270 JUMPI PUSH1 0x0 DUP1 REVERT JUMPDEST POP PUSH2 0x28B PUSH1 0x4 DUP1 CALLDATASIZE SUB DUP2 ADD SWAP1 PUSH2 0x286 SWAP2 SWAP1 PUSH2 0x10A9 JUMP JUMPDEST PUSH2 0x9BF JUMP JUMPDEST STOP JUMPDEST PUSH1 0x3 PUSH1 0x20 MSTORE DUP1 PUSH1 0x0 MSTORE PUSH1 0x40 PUSH1 0x0 KECCAK256 PUSH1 0x0 SWAP2 POP SWAP1 POP SLOAD DUP2 JUMP JUMPDEST PUSH1 0x6 PUSH1 0x20 MSTORE DUP1 PUSH1 0x0 MSTORE PUSH1 0x40 PUSH1 0x0 KECCAK256 PUSH1 0x0 SWAP2 POP SWAP1 POP DUP1 PUSH1 0x0 ADD DUP1 SLOAD PUSH2 0x2C8 SWAP1 PUSH2 0x1118 JUMP JUMPDEST DUP1 PUSH1 0x1F ADD PUSH1 0x20 DUP1 SWAP2 DIV MUL PUSH1 0x20 ADD PUSH1 0x40 MLOAD SWAP1 DUP2 ADD PUSH1 0x40 MSTORE DUP1 SWAP3 SWAP2 SWAP1 DUP2 DUP2 MSTORE PUSH1 0x20 ADD DUP3 DUP1 SLOAD PUSH2 0x2F4 SWAP1 PUSH2 0x1118 JUMP JUMPDEST DUP1 ISZERO PUSH2 0x341 JUMPI DUP1 PUSH1 0x1F LT PUSH2 0x316 JUMPI PUSH2 0x100 DUP1 DUP4 SLOAD DIV MUL DUP4 MSTORE SWAP2 PUSH1 0x20 ADD SWAP2 PUSH2 0x341 JUMP JUMPDEST DUP3 ADD SWAP2 SWAP1 PUSH1 0x0 MSTORE PUSH1 0x20 PUSH1 0x0 KECCAK256 SWAP1 JUMPDEST DUP2 SLOAD DUP2 MSTORE SWAP1 PUSH1 0x1 ADD SWAP1 PUSH1 0x20 ADD DUP1 DUP4 GT PUSH2 0x324 JUMPI DUP3 SWAP1 SUB PUSH1 0x1F AND DUP3 ADD SWAP2 JUMPDEST POP POP POP POP POP SWAP1 DUP1 PUSH1 0x1 ADD SLOAD SWAP1 DUP1 PUSH1 0x2 ADD PUSH1 0x0 SWAP1 SLOAD SWAP1 PUSH2 0x100 EXP SWAP1 DIV PUSH20 0xFFFFFFFFFFFFFFFFFFFFFFFFFFFFFFFFFFFFFFFF AND SWAP1 DUP1 PUSH1 0x2 ADD PUSH1 0x14 SWAP1 SLOAD SWAP1 PUSH2 0x100 EXP SWAP1 DIV PUSH1 0xFF AND SWAP1 DUP1 PUSH1 0x3 ADD SLOAD SWAP1 POP DUP6 JUMP JUMPDEST PUSH1 0x1 SLOAD DUP2 JUMP JUMPDEST PUSH1 0x2 SLOAD DUP2 JUMP JUMPDEST PUSH1 0x0 DUP1 SLOAD SWAP1 PUSH2 0x100 EXP SWAP1 DIV PUSH20 0xFFFFFFFFFFFFFFFFFFFFFFFFFFFFFFFFFFFFFFFF AND DUP2 JUMP JUMPDEST PUSH1 0x4 PUSH1 0x20 MSTORE DUP1 PUSH1 0x0 MSTORE PUSH1 0x40 PUSH1 0x0 KECCAK256 PUSH1 0x0 SWAP2 POP SWAP1 POP SLOAD DUP2 JUMP JUMPDEST PUSH1 0x0 DUP1 SLOAD SWAP1 PUSH2 0x100 EXP SWAP1 DIV PUSH20 0xFFFFFFFFFFFFFFFFFFFFFFFFFFFFFFFFFFFFFFFF AND PUSH20 0xFFFFFFFFFFFFFFFFFFFFFFFFFFFFFFFFFFFFFFFF AND CALLER PUSH20 0xFFFFFFFFFFFFFFFFFFFFFFFFFFFFFFFFFFFFFFFF AND EQ PUSH2 0x466 JUMPI PUSH1 0x40 MLOAD PUSH32 0x8C379A000000000000000000000000000000000000000000000000000000000 DUP2 MSTORE PUSH1 0x4 ADD PUSH2 0x45D SWAP1 PUSH2 0x1195 JUMP JUMPDEST PUSH1 0x40 MLOAD DUP1 SWAP2 SUB SWAP1 REVERT JUMPDEST PUSH1 0x0 PUSH1 0x6 PUSH1 0x0 DUP4 PUSH4 0xFFFFFFFF AND PUSH4 0xFFFFFFFF AND DUP2 MSTORE PUSH1 0x20 ADD SWAP1 DUP2 MSTORE PUSH1 0x20 ADD PUSH1 0x0 KECCAK256 SWAP1 POP DUP1 PUSH1 0x2 ADD PUSH1 0x14 SWAP1 SLOAD SWAP1 PUSH2 0x100 EXP SWAP1 DIV PUSH1 0xFF AND ISZERO PUSH2 0x4DB JUMPI PUSH1 0x40 MLOAD PUSH32 0x8C379A000000000000000000000000000000000000000000000000000000000 DUP2 MSTORE PUSH1 0x4 ADD PUSH2 0x4D2 SWAP1 PUSH2 0x1201 JUMP JUMPDEST PUSH1 0x40 MLOAD DUP1 SWAP2 SUB SWAP1 REVERT JUMPDEST PUSH1 0x2 DUP1 SLOAD PUSH2 0x4E9 SWAP2 SWAP1 PUSH2 0x127F JUMP JUMPDEST DUP2 PUSH1 0x3 ADD SLOAD GT PUSH2 0x52E JUMPI PUSH1 0x40 MLOAD PUSH32 0x8C379A000000000000000000000000000000000000000000000000000000000 DUP2 MSTORE PUSH1 0x4 ADD PUSH2 0x525 SWAP1 PUSH2 0x1322 JUMP JUMPDEST PUSH1 0x40 MLOAD DUP1 SWAP2 SUB SWAP1 REVERT JUMPDEST DUP1 PUSH1 0x2 ADD PUSH1 0x0 SWAP1 SLOAD SWAP1 PUSH2 0x100 EXP SWAP1 DIV PUSH20 0xFFFFFFFFFFFFFFFFFFFFFFFFFFFFFFFFFFFFFFFF AND PUSH20 0xFFFFFFFFFFFFFFFFFFFFFFFFFFFFFFFFFFFFFFFF AND PUSH2 0x8FC DUP3 PUSH1 0x1 ADD SLOAD SWAP1 DUP2 ISZERO MUL SWAP1 PUSH1 0x40 MLOAD PUSH1 0x0 PUSH1 0x40 MLOAD DUP1 DUP4 SUB DUP2 DUP6 DUP9 DUP9 CALL SWAP4 POP POP POP POP ISZERO DUP1 ISZERO PUSH2 0x59C JUMPI RETURNDATASIZE PUSH1 0x0 DUP1 RETURNDATACOPY RETURNDATASIZE PUSH1 0x0 REVERT JUMPDEST POP PUSH1 0x1 DUP2 PUSH1 0x2 ADD PUSH1 0x14 PUSH2 0x100 EXP DUP2 SLOAD DUP2 PUSH1 0xFF MUL NOT AND SWAP1 DUP4 ISZERO ISZERO MUL OR SWAP1 SSTORE POP POP POP JUMP JUMPDEST PUSH1 0x0 DUP1 SLOAD SWAP1 PUSH2 0x100 EXP SWAP1 DIV PUSH20 0xFFFFFFFFFFFFFFFFFFFFFFFFFFFFFFFFFFFFFFFF AND PUSH20 0xFFFFFFFFFFFFFFFFFFFFFFFFFFFFFFFFFFFFFFFF AND CALLER PUSH20 0xFFFFFFFFFFFFFFFFFFFFFFFFFFFFFFFFFFFFFFFF AND EQ PUSH2 0x64C JUMPI PUSH1 0x40 MLOAD PUSH32 0x8C379A000000000000000000000000000000000000000000000000000000000 DUP2 MSTORE PUSH1 0x4 ADD PUSH2 0x643 SWAP1 PUSH2 0x1195 JUMP JUMPDEST PUSH1 0x40 MLOAD DUP1 SWAP2 SUB SWAP1 REVERT JUMPDEST PUSH1 0x0 PUSH1 0x6 PUSH1 0x0 PUSH1 0x5 PUSH1 0x0 DUP2 DUP2 SWAP1 SLOAD SWAP1 PUSH2 0x100 EXP SWAP1 DIV PUSH4 0xFFFFFFFF AND DUP1 SWAP3 SWAP2 SWAP1 PUSH2 0x674 SWAP1 PUSH2 0x1342 JUMP JUMPDEST SWAP2 SWAP1 PUSH2 0x100 EXP DUP2 SLOAD DUP2 PUSH4 0xFFFFFFFF MUL NOT AND SWAP1 DUP4 PUSH4 0xFFFFFFFF AND MUL OR SWAP1 SSTORE POP PUSH4 0xFFFFFFFF AND PUSH4 0xFFFFFFFF AND DUP2 MSTORE PUSH1 0x20 ADD SWAP1 DUP2 MSTORE PUSH1 0x20 ADD PUSH1 0x0 KECCAK256 SWAP1 POP DUP4 DUP2 PUSH1 0x0 ADD SWAP1 DUP2 PUSH2 0x6BF SWAP2 SWAP1 PUSH2 0x151A JUMP JUMPDEST POP DUP3 DUP2 PUSH1 0x1 ADD DUP2 SWAP1 SSTORE POP DUP2 DUP2 PUSH1 0x2 ADD PUSH1 0x0 PUSH2 0x100 EXP DUP2 SLOAD DUP2 PUSH20 0xFFFFFFFFFFFFFFFFFFFFFFFFFFFFFFFFFFFFFFFF MUL NOT AND SWAP1 DUP4 PUSH20 0xFFFFFFFFFFFFFFFFFFFFFFFFFFFFFFFFFFFFFFFF AND MUL OR SWAP1 SSTORE POP PUSH1 0x0 DUP2 PUSH1 0x2 ADD PUSH1 0x14 PUSH2 0x100 EXP DUP2 SLOAD DUP2 PUSH1 0xFF MUL NOT AND SWAP1 DUP4 ISZERO ISZERO MUL OR SWAP1 SSTORE POP PUSH1 0x0 DUP2 PUSH1 0x3 ADD DUP2 SWAP1 SSTORE POP POP POP POP POP JUMP JUMPDEST PUSH1 0x5 PUSH1 0x0 SWAP1 SLOAD SWAP1 PUSH2 0x100 EXP SWAP1 DIV PUSH4 0xFFFFFFFF AND DUP2 JUMP JUMPDEST PUSH1 0x0 CALLVALUE GT PUSH2 0x792 JUMPI PUSH1 0x40 MLOAD PUSH32 0x8C379A000000000000000000000000000000000000000000000000000000000 DUP2 MSTORE PUSH1 0x4 ADD PUSH2 0x789 SWAP1 PUSH2 0x165E JUMP JUMPDEST PUSH1 0x40 MLOAD DUP1 SWAP2 SUB SWAP1 REVERT JUMPDEST PUSH1 0x1 SLOAD CALLVALUE LT PUSH2 0x7FD JUMPI CALLVALUE PUSH1 0x3 PUSH1 0x0 CALLER PUSH20 0xFFFFFFFFFFFFFFFFFFFFFFFFFFFFFFFFFFFFFFFF AND PUSH20 0xFFFFFFFFFFFFFFFFFFFFFFFFFFFFFFFFFFFFFFFF AND DUP2 MSTORE PUSH1 0x20 ADD SWAP1 DUP2 MSTORE PUSH1 0x20 ADD PUSH1 0x0 KECCAK256 DUP2 SWAP1 SSTORE POP CALLVALUE PUSH1 0x2 PUSH1 0x0 DUP3 DUP3 SLOAD PUSH2 0x7F1 SWAP2 SWAP1 PUSH2 0x167E JUMP JUMPDEST SWAP3 POP POP DUP2 SWAP1 SSTORE POP PUSH2 0x9BD JUMP JUMPDEST CALLVALUE PUSH1 0x4 PUSH1 0x0 CALLER PUSH20 0xFFFFFFFFFFFFFFFFFFFFFFFFFFFFFFFFFFFFFFFF AND PUSH20 0xFFFFFFFFFFFFFFFFFFFFFFFFFFFFFFFFFFFFFFFF AND DUP2 MSTORE PUSH1 0x20 ADD SWAP1 DUP2 MSTORE PUSH1 0x20 ADD PUSH1 0x0 KECCAK256 PUSH1 0x0 DUP3 DUP3 SLOAD PUSH2 0x84C SWAP2 SWAP1 PUSH2 0x167E JUMP JUMPDEST SWAP3 POP POP DUP2 SWAP1 SSTORE POP PUSH1 0x1 SLOAD PUSH1 0x4 PUSH1 0x0 CALLER PUSH20 0xFFFFFFFFFFFFFFFFFFFFFFFFFFFFFFFFFFFFFFFF AND PUSH20 0xFFFFFFFFFFFFFFFFFFFFFFFFFFFFFFFFFFFFFFFF AND DUP2 MSTORE PUSH1 0x20 ADD SWAP1 DUP2 MSTORE PUSH1 0x20 ADD PUSH1 0x0 KECCAK256 SLOAD LT PUSH2 0x9BC JUMPI PUSH1 0x4 PUSH1 0x0 CALLER PUSH20 0xFFFFFFFFFFFFFFFFFFFFFFFFFFFFFFFFFFFFFFFF AND PUSH20 0xFFFFFFFFFFFFFFFFFFFFFFFFFFFFFFFFFFFFFFFF AND DUP2 MSTORE PUSH1 0x20 ADD SWAP1 DUP2 MSTORE PUSH1 0x20 ADD PUSH1 0x0 KECCAK256 SLOAD PUSH1 0x3 PUSH1 0x0 CALLER PUSH20 0xFFFFFFFFFFFFFFFFFFFFFFFFFFFFFFFFFFFFFFFF AND PUSH20 0xFFFFFFFFFFFFFFFFFFFFFFFFFFFFFFFFFFFFFFFF AND DUP2 MSTORE PUSH1 0x20 ADD SWAP1 DUP2 MSTORE PUSH1 0x20 ADD PUSH1 0x0 KECCAK256 DUP2 SWAP1 SSTORE POP PUSH1 0x3 PUSH1 0x0 CALLER PUSH20 0xFFFFFFFFFFFFFFFFFFFFFFFFFFFFFFFFFFFFFFFF AND PUSH20 0xFFFFFFFFFFFFFFFFFFFFFFFFFFFFFFFFFFFFFFFF AND DUP2 MSTORE PUSH1 0x20 ADD SWAP1 DUP2 MSTORE PUSH1 0x20 ADD PUSH1 0x0 KECCAK256 SLOAD PUSH1 0x2 PUSH1 0x0 DUP3 DUP3 SLOAD PUSH2 0x96F SWAP2 SWAP1 PUSH2 0x167E JUMP JUMPDEST SWAP3 POP POP DUP2 SWAP1 SSTORE POP PUSH1 0x0 PUSH1 0x4 PUSH1 0x0 CALLER PUSH20 0xFFFFFFFFFFFFFFFFFFFFFFFFFFFFFFFFFFFFFFFF AND PUSH20 0xFFFFFFFFFFFFFFFFFFFFFFFFFFFFFFFFFFFFFFFF AND DUP2 MSTORE PUSH1 0x20 ADD SWAP1 DUP2 MSTORE PUSH1 0x20 ADD PUSH1 0x0 KECCAK256 DUP2 SWAP1 SSTORE POP JUMPDEST JUMPDEST JUMP JUMPDEST PUSH1 0x0 PUSH1 0x6 PUSH1 0x0 DUP5 PUSH4 0xFFFFFFFF AND PUSH4 0xFFFFFFFF AND DUP2 MSTORE PUSH1 0x20 ADD SWAP1 DUP2 MSTORE PUSH1 0x20 ADD PUSH1 0x0 KECCAK256 SWAP1 POP PUSH1 0x1 SLOAD PUSH1 0x3 PUSH1 0x0 CALLER PUSH20 0xFFFFFFFFFFFFFFFFFFFFFFFFFFFFFFFFFFFFFFFF AND PUSH20 0xFFFFFFFFFFFFFFFFFFFFFFFFFFFFFFFFFFFFFFFF AND DUP2 MSTORE PUSH1 0x20 ADD SWAP1 DUP2 MSTORE PUSH1 0x20 ADD PUSH1 0x0 KECCAK256 SLOAD LT ISZERO PUSH2 0xA66 JUMPI PUSH1 0x40 MLOAD PUSH32 0x8C379A000000000000000000000000000000000000000000000000000000000 DUP2 MSTORE PUSH1 0x4 ADD PUSH2 0xA5D SWAP1 PUSH2 0x16FE JUMP JUMPDEST PUSH1 0x40 MLOAD DUP1 SWAP2 SUB SWAP1 REVERT JUMPDEST DUP2 ISZERO ISZERO DUP2 PUSH1 0x4 ADD PUSH1 0x0 CALLER PUSH20 0xFFFFFFFFFFFFFFFFFFFFFFFFFFFFFFFFFFFFFFFF AND PUSH20 0xFFFFFFFFFFFFFFFFFFFFFFFFFFFFFFFFFFFFFFFF AND DUP2 MSTORE PUSH1 0x20 ADD SWAP1 DUP2 MSTORE PUSH1 0x20 ADD PUSH1 0x0 KECCAK256 PUSH1 0x0 SWAP1 SLOAD SWAP1 PUSH2 0x100 EXP SWAP1 DIV PUSH1 0xFF AND ISZERO ISZERO SUB PUSH2 0xAFA JUMPI PUSH1 0x40 MLOAD PUSH32 0x8C379A000000000000000000000000000000000000000000000000000000000 DUP2 MSTORE PUSH1 0x4 ADD PUSH2 0xAF1 SWAP1 PUSH2 0x176A JUMP JUMPDEST PUSH1 0x40 MLOAD DUP1 SWAP2 SUB SWAP1 REVERT JUMPDEST DUP2 DUP2 PUSH1 0x4 ADD PUSH1 0x0 CALLER PUSH20 0xFFFFFFFFFFFFFFFFFFFFFFFFFFFFFFFFFFFFFFFF AND PUSH20 0xFFFFFFFFFFFFFFFFFFFFFFFFFFFFFFFFFFFFFFFF AND DUP2 MSTORE PUSH1 0x20 ADD SWAP1 DUP2 MSTORE PUSH1 0x20 ADD PUSH1 0x0 KECCAK256 PUSH1 0x0 PUSH2 0x100 EXP DUP2 SLOAD DUP2 PUSH1 0xFF MUL NOT AND SWAP1 DUP4 ISZERO ISZERO MUL OR SWAP1 SSTORE POP DUP2 ISZERO PUSH2 0xBB8 JUMPI PUSH1 0x3 PUSH1 0x0 CALLER PUSH20 0xFFFFFFFFFFFFFFFFFFFFFFFFFFFFFFFFFFFFFFFF AND PUSH20 0xFFFFFFFFFFFFFFFFFFFFFFFFFFFFFFFFFFFFFFFF AND DUP2 MSTORE PUSH1 0x20 ADD SWAP1 DUP2 MSTORE PUSH1 0x20 ADD PUSH1 0x0 KECCAK256 SLOAD DUP2 PUSH1 0x3 ADD PUSH1 0x0 DUP3 DUP3 SLOAD PUSH2 0xBAC SWAP2 SWAP1 PUSH2 0x167E JUMP JUMPDEST SWAP3 POP POP DUP2 SWAP1 SSTORE POP PUSH2 0xC13 JUMP JUMPDEST PUSH1 0x3 PUSH1 0x0 CALLER PUSH20 0xFFFFFFFFFFFFFFFFFFFFFFFFFFFFFFFFFFFFFFFF AND PUSH20 0xFFFFFFFFFFFFFFFFFFFFFFFFFFFFFFFFFFFFFFFF AND DUP2 MSTORE PUSH1 0x20 ADD SWAP1 DUP2 MSTORE PUSH1 0x20 ADD PUSH1 0x0 KECCAK256 SLOAD DUP2 PUSH1 0x3 ADD PUSH1 0x0 DUP3 DUP3 SLOAD PUSH2 0xC0B SWAP2 SWAP1 PUSH2 0x178A JUMP JUMPDEST SWAP3 POP POP DUP2 SWAP1 SSTORE POP JUMPDEST POP POP POP JUMP JUMPDEST PUSH1 0x0 PUSH1 0x40 MLOAD SWAP1 POP SWAP1 JUMP JUMPDEST PUSH1 0x0 DUP1 REVERT JUMPDEST PUSH1 0x0 DUP1 REVERT JUMPDEST PUSH1 0x0 PUSH20 0xFFFFFFFFFFFFFFFFFFFFFFFFFFFFFFFFFFFFFFFF DUP3 AND SWAP1 POP SWAP2 SWAP1 POP JUMP JUMPDEST PUSH1 0x0 PUSH2 0xC57 DUP3 PUSH2 0xC2C JUMP JUMPDEST SWAP1 POP SWAP2 SWAP1 POP JUMP JUMPDEST PUSH2 0xC67 DUP2 PUSH2 0xC4C JUMP JUMPDEST DUP2 EQ PUSH2 0xC72 JUMPI PUSH1 0x0 DUP1 REVERT JUMPDEST POP JUMP JUMPDEST PUSH1 0x0 DUP2 CALLDATALOAD SWAP1 POP PUSH2 0xC84 DUP2 PUSH2 0xC5E JUMP JUMPDEST SWAP3 SWAP2 POP POP JUMP JUMPDEST PUSH1 0x0 PUSH1 0x20 DUP3 DUP5 SUB SLT ISZERO PUSH2 0xCA0 JUMPI PUSH2 0xC9F PUSH2 0xC22 JUMP JUMPDEST JUMPDEST PUSH1 0x0 PUSH2 0xCAE DUP5 DUP3 DUP6 ADD PUSH2 0xC75 JUMP JUMPDEST SWAP2 POP POP SWAP3 SWAP2 POP POP JUMP JUMPDEST PUSH1 0x0 DUP2 SWAP1 POP SWAP2 SWAP1 POP JUMP JUMPDEST PUSH2 0xCCA DUP2 PUSH2 0xCB7 JUMP JUMPDEST DUP3 MSTORE POP POP JUMP JUMPDEST PUSH1 0x0 PUSH1 0x20 DUP3 ADD SWAP1 POP PUSH2 0xCE5 PUSH1 0x0 DUP4 ADD DUP5 PUSH2 0xCC1 JUMP JUMPDEST SWAP3 SWAP2 POP POP JUMP JUMPDEST PUSH1 0x0 PUSH4 0xFFFFFFFF DUP3 AND SWAP1 POP SWAP2 SWAP1 POP JUMP JUMPDEST PUSH2 0xD04 DUP2 PUSH2 0xCEB JUMP JUMPDEST DUP2 EQ PUSH2 0xD0F JUMPI PUSH1 0x0 DUP1 REVERT JUMPDEST POP JUMP JUMPDEST PUSH1 0x0 DUP2 CALLDATALOAD SWAP1 POP PUSH2 0xD21 DUP2 PUSH2 0xCFB JUMP JUMPDEST SWAP3 SWAP2 POP POP JUMP JUMPDEST PUSH1 0x0 PUSH1 0x20 DUP3 DUP5 SUB SLT ISZERO PUSH2 0xD3D JUMPI PUSH2 0xD3C PUSH2 0xC22 JUMP JUMPDEST JUMPDEST PUSH1 0x0 PUSH2 0xD4B DUP5 DUP3 DUP6 ADD PUSH2 0xD12 JUMP JUMPDEST SWAP2 POP POP SWAP3 SWAP2 POP POP JUMP JUMPDEST PUSH1 0x0 DUP2 MLOAD SWAP1 POP SWAP2 SWAP1 POP JUMP JUMPDEST PUSH1 0x0 DUP3 DUP3 MSTORE PUSH1 0x20 DUP3 ADD SWAP1 POP SWAP3 SWAP2 POP POP JUMP JUMPDEST PUSH1 0x0 JUMPDEST DUP4 DUP2 LT ISZERO PUSH2 0xD8E JUMPI DUP1 DUP3 ADD MLOAD DUP2 DUP5 ADD MSTORE PUSH1 0x20 DUP2 ADD SWAP1 POP PUSH2 0xD73 JUMP JUMPDEST PUSH1 0x0 DUP5 DUP5 ADD MSTORE POP POP POP POP JUMP JUMPDEST PUSH1 0x0 PUSH1 0x1F NOT PUSH1 0x1F DUP4 ADD AND SWAP1 POP SWAP2 SWAP1 POP JUMP JUMPDEST PUSH1 0x0 PUSH2 0xDB6 DUP3 PUSH2 0xD54 JUMP JUMPDEST PUSH2 0xDC0 DUP2 DUP6 PUSH2 0xD5F JUMP JUMPDEST SWAP4 POP PUSH2 0xDD0 DUP2 DUP6 PUSH1 0x20 DUP7 ADD PUSH2 0xD70 JUMP JUMPDEST PUSH2 0xDD9 DUP2 PUSH2 0xD9A JUMP JUMPDEST DUP5 ADD SWAP2 POP POP SWAP3 SWAP2 POP POP JUMP JUMPDEST PUSH2 0xDED DUP2 PUSH2 0xC4C JUMP JUMPDEST DUP3 MSTORE POP POP JUMP JUMPDEST PUSH1 0x0 DUP2 ISZERO ISZERO SWAP1 POP SWAP2 SWAP1 POP JUMP JUMPDEST PUSH2 0xE08 DUP2 PUSH2 0xDF3 JUMP JUMPDEST DUP3 MSTORE POP POP JUMP JUMPDEST PUSH1 0x0 PUSH1 0xA0 DUP3 ADD SWAP1 POP DUP2 DUP2 SUB PUSH1 0x0 DUP4 ADD MSTORE PUSH2 0xE28 DUP2 DUP9 PUSH2 0xDAB JUMP JUMPDEST SWAP1 POP PUSH2 0xE37 PUSH1 0x20 DUP4 ADD DUP8 PUSH2 0xCC1 JUMP JUMPDEST PUSH2 0xE44 PUSH1 0x40 DUP4 ADD DUP7 PUSH2 0xDE4 JUMP JUMPDEST PUSH2 0xE51 PUSH1 0x60 DUP4 ADD DUP6 PUSH2 0xDFF JUMP JUMPDEST PUSH2 0xE5E PUSH1 0x80 DUP4 ADD DUP5 PUSH2 0xCC1 JUMP JUMPDEST SWAP7 SWAP6 POP POP POP POP POP POP JUMP JUMPDEST PUSH1 0x0 PUSH1 0x20 DUP3 ADD SWAP1 POP PUSH2 0xE7D PUSH1 0x0 DUP4 ADD DUP5 PUSH2 0xDE4 JUMP JUMPDEST SWAP3 SWAP2 POP POP JUMP JUMPDEST PUSH1 0x0 DUP1 REVERT JUMPDEST PUSH1 0x0 DUP1 REVERT JUMPDEST PUSH32 0x4E487B7100000000000000000000000000000000000000000000000000000000 PUSH1 0x0 MSTORE PUSH1 0x41 PUSH1 0x4 MSTORE PUSH1 0x24 PUSH1 0x0 REVERT JUMPDEST PUSH2 0xEC5 DUP3 PUSH2 0xD9A JUMP JUMPDEST DUP2 ADD DUP2 DUP2 LT PUSH8 0xFFFFFFFFFFFFFFFF DUP3 GT OR ISZERO PUSH2 0xEE4 JUMPI PUSH2 0xEE3 PUSH2 0xE8D JUMP JUMPDEST JUMPDEST DUP1 PUSH1 0x40 MSTORE POP POP POP JUMP JUMPDEST PUSH1 0x0 PUSH2 0xEF7 PUSH2 0xC18 JUMP JUMPDEST SWAP1 POP PUSH2 0xF03 DUP3 DUP3 PUSH2 0xEBC JUMP JUMPDEST SWAP2 SWAP1 POP JUMP JUMPDEST PUSH1 0x0 PUSH8 0xFFFFFFFFFFFFFFFF DUP3 GT ISZERO PUSH2 0xF23 JUMPI PUSH2 0xF22 PUSH2 0xE8D JUMP JUMPDEST JUMPDEST PUSH2 0xF2C DUP3 PUSH2 0xD9A JUMP JUMPDEST SWAP1 POP PUSH1 0x20 DUP2 ADD SWAP1 POP SWAP2 SWAP1 POP JUMP JUMPDEST DUP3 DUP2 DUP4 CALLDATACOPY PUSH1 0x0 DUP4 DUP4 ADD MSTORE POP POP POP JUMP JUMPDEST PUSH1 0x0 PUSH2 0xF5B PUSH2 0xF56 DUP5 PUSH2 0xF08 JUMP JUMPDEST PUSH2 0xEED JUMP JUMPDEST SWAP1 POP DUP3 DUP2 MSTORE PUSH1 0x20 DUP2 ADD DUP5 DUP5 DUP5 ADD GT ISZERO PUSH2 0xF77 JUMPI PUSH2 0xF76 PUSH2 0xE88 JUMP JUMPDEST JUMPDEST PUSH2 0xF82 DUP5 DUP3 DUP6 PUSH2 0xF39 JUMP JUMPDEST POP SWAP4 SWAP3 POP POP POP JUMP JUMPDEST PUSH1 0x0 DUP3 PUSH1 0x1F DUP4 ADD SLT PUSH2 0xF9F JUMPI PUSH2 0xF9E PUSH2 0xE83 JUMP JUMPDEST JUMPDEST DUP2 CALLDATALOAD PUSH2 0xFAF DUP5 DUP3 PUSH1 0x20 DUP7 ADD PUSH2 0xF48 JUMP JUMPDEST SWAP2 POP POP SWAP3 SWAP2 POP POP JUMP JUMPDEST PUSH2 0xFC1 DUP2 PUSH2 0xCB7 JUMP JUMPDEST DUP2 EQ PUSH2 0xFCC JUMPI PUSH1 0x0 DUP1 REVERT JUMPDEST POP JUMP JUMPDEST PUSH1 0x0 DUP2 CALLDATALOAD SWAP1 POP PUSH2 0xFDE DUP2 PUSH2 0xFB8 JUMP JUMPDEST SWAP3 SWAP2 POP POP JUMP JUMPDEST PUSH1 0x0 DUP1 PUSH1 0x0 PUSH1 0x60 DUP5 DUP7 SUB SLT ISZERO PUSH2 0xFFD JUMPI PUSH2 0xFFC PUSH2 0xC22 JUMP JUMPDEST JUMPDEST PUSH1 0x0 DUP5 ADD CALLDATALOAD PUSH8 0xFFFFFFFFFFFFFFFF DUP2 GT ISZERO PUSH2 0x101B JUMPI PUSH2 0x101A PUSH2 0xC27 JUMP JUMPDEST JUMPDEST PUSH2 0x1027 DUP7 DUP3 DUP8 ADD PUSH2 0xF8A JUMP JUMPDEST SWAP4 POP POP PUSH1 0x20 PUSH2 0x1038 DUP7 DUP3 DUP8 ADD PUSH2 0xFCF JUMP JUMPDEST SWAP3 POP POP PUSH1 0x40 PUSH2 0x1049 DUP7 DUP3 DUP8 ADD PUSH2 0xC75 JUMP JUMPDEST SWAP2 POP POP SWAP3 POP SWAP3 POP SWAP3 JUMP JUMPDEST PUSH2 0x105C DUP2 PUSH2 0xCEB JUMP JUMPDEST DUP3 MSTORE POP POP JUMP JUMPDEST PUSH1 0x0 PUSH1 0x20 DUP3 ADD SWAP1 POP PUSH2 0x1077 PUSH1 0x0 DUP4 ADD DUP5 PUSH2 0x1053 JUMP JUMPDEST SWAP3 SWAP2 POP POP JUMP JUMPDEST PUSH2 0x1086 DUP2 PUSH2 0xDF3 JUMP JUMPDEST DUP2 EQ PUSH2 0x1091 JUMPI PUSH1 0x0 DUP1 REVERT JUMPDEST POP JUMP JUMPDEST PUSH1 0x0 DUP2 CALLDATALOAD SWAP1 POP PUSH2 0x10A3 DUP2 PUSH2 0x107D JUMP JUMPDEST SWAP3 SWAP2 POP POP JUMP JUMPDEST PUSH1 0x0 DUP1 PUSH1 0x40 DUP4 DUP6 SUB SLT ISZERO PUSH2 0x10C0 JUMPI PUSH2 0x10BF PUSH2 0xC22 JUMP JUMPDEST JUMPDEST PUSH1 0x0 PUSH2 0x10CE DUP6 DUP3 DUP7 ADD PUSH2 0xD12 JUMP JUMPDEST SWAP3 POP POP PUSH1 0x20 PUSH2 0x10DF DUP6 DUP3 DUP7 ADD PUSH2 0x1094 JUMP JUMPDEST SWAP2 POP POP SWAP3 POP SWAP3 SWAP1 POP JUMP JUMPDEST PUSH32 0x4E487B7100000000000000000000000000000000000000000000000000000000 PUSH1 0x0 MSTORE PUSH1 0x22 PUSH1 0x4 MSTORE PUSH1 0x24 PUSH1 0x0 REVERT JUMPDEST PUSH1 0x0 PUSH1 0x2 DUP3 DIV SWAP1 POP PUSH1 0x1 DUP3 AND DUP1 PUSH2 0x1130 JUMPI PUSH1 0x7F DUP3 AND SWAP2 POP JUMPDEST PUSH1 0x20 DUP3 LT DUP2 SUB PUSH2 0x1143 JUMPI PUSH2 0x1142 PUSH2 0x10E9 JUMP JUMPDEST JUMPDEST POP SWAP2 SWAP1 POP JUMP JUMPDEST PUSH32 0x4D616E6167657220616363657373206F6E6C7900000000000000000000000000 PUSH1 0x0 DUP3 ADD MSTORE POP JUMP JUMPDEST PUSH1 0x0 PUSH2 0x117F PUSH1 0x13 DUP4 PUSH2 0xD5F JUMP JUMPDEST SWAP2 POP PUSH2 0x118A DUP3 PUSH2 0x1149 JUMP JUMPDEST PUSH1 0x20 DUP3 ADD SWAP1 POP SWAP2 SWAP1 POP JUMP JUMPDEST PUSH1 0x0 PUSH1 0x20 DUP3 ADD SWAP1 POP DUP2 DUP2 SUB PUSH1 0x0 DUP4 ADD MSTORE PUSH2 0x11AE DUP2 PUSH2 0x1172 JUMP JUMPDEST SWAP1 POP SWAP2 SWAP1 POP JUMP JUMPDEST PUSH32 0x5265717565737420697320616C726561647920636F6D706C6574656400000000 PUSH1 0x0 DUP3 ADD MSTORE POP JUMP JUMPDEST PUSH1 0x0 PUSH2 0x11EB PUSH1 0x1C DUP4 PUSH2 0xD5F JUMP JUMPDEST SWAP2 POP PUSH2 0x11F6 DUP3 PUSH2 0x11B5 JUMP JUMPDEST PUSH1 0x20 DUP3 ADD SWAP1 POP SWAP2 SWAP1 POP JUMP JUMPDEST PUSH1 0x0 PUSH1 0x20 DUP3 ADD SWAP1 POP DUP2 DUP2 SUB PUSH1 0x0 DUP4 ADD MSTORE PUSH2 0x121A DUP2 PUSH2 0x11DE JUMP JUMPDEST SWAP1 POP SWAP2 SWAP1 POP JUMP JUMPDEST PUSH32 0x4E487B7100000000000000000000000000000000000000000000000000000000 PUSH1 0x0 MSTORE PUSH1 0x12 PUSH1 0x4 MSTORE PUSH1 0x24 PUSH1 0x0 REVERT JUMPDEST PUSH32 0x4E487B7100000000000000000000000000000000000000000000000000000000 PUSH1 0x0 MSTORE PUSH1 0x11 PUSH1 0x4 MSTORE PUSH1 0x24 PUSH1 0x0 REVERT JUMPDEST PUSH1 0x0 PUSH2 0x128A DUP3 PUSH2 0xCB7 JUMP JUMPDEST SWAP2 POP PUSH2 0x1295 DUP4 PUSH2 0xCB7 JUMP JUMPDEST SWAP3 POP DUP3 PUSH2 0x12A5 JUMPI PUSH2 0x12A4 PUSH2 0x1221 JUMP JUMPDEST JUMPDEST DUP3 DUP3 DIV SWAP1 POP SWAP3 SWAP2 POP POP JUMP JUMPDEST PUSH32 0x417070726F76616C20726174696E67206D757374206265206772617465722074 PUSH1 0x0 DUP3 ADD MSTORE PUSH32 0x68616E2035302500000000000000000000000000000000000000000000000000 PUSH1 0x20 DUP3 ADD MSTORE POP JUMP JUMPDEST PUSH1 0x0 PUSH2 0x130C PUSH1 0x27 DUP4 PUSH2 0xD5F JUMP JUMPDEST SWAP2 POP PUSH2 0x1317 DUP3 PUSH2 0x12B0 JUMP JUMPDEST PUSH1 0x40 DUP3 ADD SWAP1 POP SWAP2 SWAP1 POP JUMP JUMPDEST PUSH1 0x0 PUSH1 0x20 DUP3 ADD SWAP1 POP DUP2 DUP2 SUB PUSH1 0x0 DUP4 ADD MSTORE PUSH2 0x133B DUP2 PUSH2 0x12FF JUMP JUMPDEST SWAP1 POP SWAP2 SWAP1 POP JUMP JUMPDEST PUSH1 0x0 PUSH2 0x134D DUP3 PUSH2 0xCEB JUMP JUMPDEST SWAP2 POP PUSH4 0xFFFFFFFF DUP3 SUB PUSH2 0x1363 JUMPI PUSH2 0x1362 PUSH2 0x1250 JUMP JUMPDEST JUMPDEST PUSH1 0x1 DUP3 ADD SWAP1 POP SWAP2 SWAP1 POP JUMP JUMPDEST PUSH1 0x0 DUP2 SWAP1 POP DUP2 PUSH1 0x0 MSTORE PUSH1 0x20 PUSH1 0x0 KECCAK256 SWAP1 POP SWAP2 SWAP1 POP JUMP JUMPDEST PUSH1 0x0 PUSH1 0x20 PUSH1 0x1F DUP4 ADD DIV SWAP1 POP SWAP2 SWAP1 POP JUMP JUMPDEST PUSH1 0x0 DUP3 DUP3 SHL SWAP1 POP SWAP3 SWAP2 POP POP JUMP JUMPDEST PUSH1 0x0 PUSH1 0x8 DUP4 MUL PUSH2 0x13D0 PUSH32 0xFFFFFFFFFFFFFFFFFFFFFFFFFFFFFFFFFFFFFFFFFFFFFFFFFFFFFFFFFFFFFFFF DUP3 PUSH2 0x1393 JUMP JUMPDEST PUSH2 0x13DA DUP7 DUP4 PUSH2 0x1393 JUMP JUMPDEST SWAP6 POP DUP1 NOT DUP5 AND SWAP4 POP DUP1 DUP7 AND DUP5 OR SWAP3 POP POP POP SWAP4 SWAP3 POP POP POP JUMP JUMPDEST PUSH1 0x0 DUP2 SWAP1 POP SWAP2 SWAP1 POP JUMP JUMPDEST PUSH1 0x0 PUSH2 0x1417 PUSH2 0x1412 PUSH2 0x140D DUP5 PUSH2 0xCB7 JUMP JUMPDEST PUSH2 0x13F2 JUMP JUMPDEST PUSH2 0xCB7 JUMP JUMPDEST SWAP1 POP SWAP2 SWAP1 POP JUMP JUMPDEST PUSH1 0x0 DUP2 SWAP1 POP SWAP2 SWAP1 POP JUMP JUMPDEST PUSH2 0x1431 DUP4 PUSH2 0x13FC JUMP JUMPDEST PUSH2 0x1445 PUSH2 0x143D DUP3 PUSH2 0x141E JUMP JUMPDEST DUP5 DUP5 SLOAD PUSH2 0x13A0 JUMP JUMPDEST DUP3 SSTORE POP POP POP POP JUMP JUMPDEST PUSH1 0x0 SWAP1 JUMP JUMPDEST PUSH2 0x145A PUSH2 0x144D JUMP JUMPDEST PUSH2 0x1465 DUP2 DUP5 DUP5 PUSH2 0x1428 JUMP JUMPDEST POP POP POP JUMP JUMPDEST JUMPDEST DUP2 DUP2 LT ISZERO PUSH2 0x1489 JUMPI PUSH2 0x147E PUSH1 0x0 DUP3 PUSH2 0x1452 JUMP JUMPDEST PUSH1 0x1 DUP2 ADD SWAP1 POP PUSH2 0x146B JUMP JUMPDEST POP POP JUMP JUMPDEST PUSH1 0x1F DUP3 GT ISZERO PUSH2 0x14CE JUMPI PUSH2 0x149F DUP2 PUSH2 0x136E JUMP JUMPDEST PUSH2 0x14A8 DUP5 PUSH2 0x1383 JUMP JUMPDEST DUP2 ADD PUSH1 0x20 DUP6 LT ISZERO PUSH2 0x14B7 JUMPI DUP2 SWAP1 POP JUMPDEST PUSH2 0x14CB PUSH2 0x14C3 DUP6 PUSH2 0x1383 JUMP JUMPDEST DUP4 ADD DUP3 PUSH2 0x146A JUMP JUMPDEST POP POP JUMPDEST POP POP POP JUMP JUMPDEST PUSH1 0x0 DUP3 DUP3 SHR SWAP1 POP SWAP3 SWAP2 POP POP JUMP JUMPDEST PUSH1 0x0 PUSH2 0x14F1 PUSH1 0x0 NOT DUP5 PUSH1 0x8 MUL PUSH2 0x14D3 JUMP JUMPDEST NOT DUP1 DUP4 AND SWAP2 POP POP SWAP3 SWAP2 POP POP JUMP JUMPDEST PUSH1 0x0 PUSH2 0x150A DUP4 DUP4 PUSH2 0x14E0 JUMP JUMPDEST SWAP2 POP DUP3 PUSH1 0x2 MUL DUP3 OR SWAP1 POP SWAP3 SWAP2 POP POP JUMP JUMPDEST PUSH2 0x1523 DUP3 PUSH2 0xD54 JUMP JUMPDEST PUSH8 0xFFFFFFFFFFFFFFFF DUP2 GT ISZERO PUSH2 0x153C JUMPI PUSH2 0x153B PUSH2 0xE8D JUMP JUMPDEST JUMPDEST PUSH2 0x1546 DUP3 SLOAD PUSH2 0x1118 JUMP JUMPDEST PUSH2 0x1551 DUP3 DUP3 DUP6 PUSH2 0x148D JUMP JUMPDEST PUSH1 0x0 PUSH1 0x20 SWAP1 POP PUSH1 0x1F DUP4 GT PUSH1 0x1 DUP2 EQ PUSH2 0x1584 JUMPI PUSH1 0x0 DUP5 ISZERO PUSH2 0x1572 JUMPI DUP3 DUP8 ADD MLOAD SWAP1 POP JUMPDEST PUSH2 0x157C DUP6 DUP3 PUSH2 0x14FE JUMP JUMPDEST DUP7 SSTORE POP PUSH2 0x15E4 JUMP JUMPDEST PUSH1 0x1F NOT DUP5 AND PUSH2 0x1592 DUP7 PUSH2 0x136E JUMP JUMPDEST PUSH1 0x0 JUMPDEST DUP3 DUP2 LT ISZERO PUSH2 0x15BA JUMPI DUP5 DUP10 ADD MLOAD DUP3 SSTORE PUSH1 0x1 DUP3 ADD SWAP2 POP PUSH1 0x20 DUP6 ADD SWAP5 POP PUSH1 0x20 DUP2 ADD SWAP1 POP PUSH2 0x1595 JUMP JUMPDEST DUP7 DUP4 LT ISZERO PUSH2 0x15D7 JUMPI DUP5 DUP10 ADD MLOAD PUSH2 0x15D3 PUSH1 0x1F DUP10 AND DUP3 PUSH2 0x14E0 JUMP JUMPDEST DUP4 SSTORE POP JUMPDEST PUSH1 0x1 PUSH1 0x2 DUP9 MUL ADD DUP9 SSTORE POP POP POP JUMPDEST POP POP POP POP POP POP JUMP JUMPDEST PUSH32 0x412076616C696420636F6E747269627574696F6D206D75737420626520612070 PUSH1 0x0 DUP3 ADD MSTORE PUSH32 0x6F7369746976652076616C756500000000000000000000000000000000000000 PUSH1 0x20 DUP3 ADD MSTORE POP JUMP JUMPDEST PUSH1 0x0 PUSH2 0x1648 PUSH1 0x2D DUP4 PUSH2 0xD5F JUMP JUMPDEST SWAP2 POP PUSH2 0x1653 DUP3 PUSH2 0x15EC JUMP JUMPDEST PUSH1 0x40 DUP3 ADD SWAP1 POP SWAP2 SWAP1 POP JUMP JUMPDEST PUSH1 0x0 PUSH1 0x20 DUP3 ADD SWAP1 POP DUP2 DUP2 SUB PUSH1 0x0 DUP4 ADD MSTORE PUSH2 0x1677 DUP2 PUSH2 0x163B JUMP JUMPDEST SWAP1 POP SWAP2 SWAP1 POP JUMP JUMPDEST PUSH1 0x0 PUSH2 0x1689 DUP3 PUSH2 0xCB7 JUMP JUMPDEST SWAP2 POP PUSH2 0x1694 DUP4 PUSH2 0xCB7 JUMP JUMPDEST SWAP3 POP DUP3 DUP3 ADD SWAP1 POP DUP1 DUP3 GT ISZERO PUSH2 0x16AC JUMPI PUSH2 0x16AB PUSH2 0x1250 JUMP JUMPDEST JUMPDEST SWAP3 SWAP2 POP POP JUMP JUMPDEST PUSH32 0x417070726F7665727320616363657373206F6E6C792100000000000000000000 PUSH1 0x0 DUP3 ADD MSTORE POP JUMP JUMPDEST PUSH1 0x0 PUSH2 0x16E8 PUSH1 0x16 DUP4 PUSH2 0xD5F JUMP JUMPDEST SWAP2 POP PUSH2 0x16F3 DUP3 PUSH2 0x16B2 JUMP JUMPDEST PUSH1 0x20 DUP3 ADD SWAP1 POP SWAP2 SWAP1 POP JUMP JUMPDEST PUSH1 0x0 PUSH1 0x20 DUP3 ADD SWAP1 POP DUP2 DUP2 SUB PUSH1 0x0 DUP4 ADD MSTORE PUSH2 0x1717 DUP2 PUSH2 0x16DB JUMP JUMPDEST SWAP1 POP SWAP2 SWAP1 POP JUMP JUMPDEST PUSH32 0x417070726F76616C20766F746520616C7265616479207265636F726465640000 PUSH1 0x0 DUP3 ADD MSTORE POP JUMP JUMPDEST PUSH1 0x0 PUSH2 0x1754 PUSH1 0x1E DUP4 PUSH2 0xD5F JUMP JUMPDEST SWAP2 POP PUSH2 0x175F DUP3 PUSH2 0x171E JUMP JUMPDEST PUSH1 0x20 DUP3 ADD SWAP1 POP SWAP2 SWAP1 POP JUMP JUMPDEST PUSH1 0x0 PUSH1 0x20 DUP3 ADD SWAP1 POP DUP2 DUP2 SUB PUSH1 0x0 DUP4 ADD MSTORE PUSH2 0x1783 DUP2 PUSH2 0x1747 JUMP JUMPDEST SWAP1 POP SWAP2 SWAP1 POP JUMP JUMPDEST PUSH1 0x0 PUSH2 0x1795 DUP3 PUSH2 0xCB7 JUMP JUMPDEST SWAP2 POP PUSH2 0x17A0 DUP4 PUSH2 0xCB7 JUMP JUMPDEST SWAP3 POP DUP3 DUP3 SUB SWAP1 POP DUP2 DUP2 GT ISZERO PUSH2 0x17B8 JUMPI PUSH2 0x17B7 PUSH2 0x1250 JUMP JUMPDEST JUMPDEST SWAP3 SWAP2 POP POP JUMP INVALID LOG2 PUSH5 0x6970667358 0x22 SLT KECCAK256 0xBA LOG1 PUSH5 0x571797D8B6 DUP11 0x2A 0xD6 SWAP2 0xE4 0x23 PUSH23 0x9034889CECE9ED089FB359B6D97D8324F264736F6C6343 STOP ADDMOD SGT STOP CALLER "},"gasEstimates":{"creation":{"codeDepositCost":"1226400","executionCost":"infinite","totalCost":"infinite"},"external":{"approveRequest(uint32,bool)":"infinite","approvers(address)":"2815","approversAmount()":"2496","approversContribution()":"2474","contribute()":"infinite","createRequest(string,uint256,address)":"infinite","finalizeRequest(uint32)":"infinite","manager()":"2600","numRequests()":"2537","requests(uint32)":"infinite","supporters(address)":"2814"}},"methodIdentifiers":{"approveRequest(uint32,bool)":"e9188f55","approvers(address)":"0a144391","approversAmount()":"435f110b","approversContribution()":"2a4ed00f","contribute()":"d7bb99ba","createRequest(string,uint256,address)":"8a9cfd55","finalizeRequest(uint32)":"70cecd56","manager()":"481c6a75","numRequests()":"9fb42b1f","requests(uint32)":"0ab469b0","supporters(address)":"647c75e2"}},"storageLayout":{"storage":[{"astId":57,"contract":"Campaign.sol:Campaign","label":"manager","offset":0,"slot":"0","type":"t_address"},{"astId":59,"contract":"Campaign.sol:Campaign","label":"approversContribution","offset":0,"slot":"1","type":"t_uint256"},{"astId":61,"contract":"Campaign.sol:Campaign","label":"approversAmount","offset":0,"slot":"2","type":"t_uint256"},{"astId":65,"contract":"Campaign.sol:Campaign","label":"approvers","offset":0,"slot":"3","type":"t_mapping(t_address,t_uint256)"},{"astId":69,"contract":"Campaign.sol:Campaign","label":"supporters","offset":0,"slot":"4","type":"t_mapping(t_address,t_uint256)"},{"astId":71,"contract":"Campaign.sol:Campaign","label":"numRequests","offset":0,"slot":"5","type":"t_uint32"},{"astId":76,"contract":"Campaign.sol:Campaign","label":"requests","offset":0,"slot":"6","type":"t_mapping(t_uint32,t_struct(Request)55_storage)"}],"types":{"t_address":{"encoding":"inplace","label":"address","numberOfBytes":"20"},"t_bool":{"encoding":"inplace","label":"bool","numberOfBytes":"1"},"t_mapping(t_address,t_bool)":{"encoding":"mapping","key":"t_address","label":"mapping(address => bool)","numberOfBytes":"32","value":"t_bool"},"t_mapping(t_address,t_uint256)":{"encoding":"mapping","key":"t_address","label":"mapping(address => uint256)","numberOfBytes":"32","value":"t_uint256"},"t_mapping(t_uint32,t_struct(Request)55_storage)":{"encoding":"mapping","key":"t_uint32","label":"mapping(uint32 => struct Campaign.Request)","numberOfBytes":"32","value":"t_struct(Request)55_storage"},"t_string_storage":{"encoding":"bytes","label":"string","numberOfBytes":"32"},"t_struct(Request)55_storage":{"encoding":"inplace","label":"struct Campaign.Request","members":[{"astId":42,"contract":"Campaign.sol:Campaign","label":"description","offset":0,"slot":"0","type":"t_string_storage"},{"astId":44,"contract":"Campaign.sol:Campaign","label":"value","offset":0,"slot":"1","type":"t_uint256"},{"astId":46,"contract":"Campaign.sol:Campaign","label":"recipient","offset":0,"slot":"2","type":"t_address"},{"astId":48,"contract":"Campaign.sol:Campaign","label":"complete","offset":20,"slot":"2","type":"t_bool"},{"astId":50,"contract":"Campaign.sol:Campaign","label":"approvalRating","offset":0,"slot":"3","type":"t_uint256"},{"astId":54,"contract":"Campaign.sol:Campaign","label":"approvals","offset":0,"slot":"4","type":"t_mapping(t_address,t_bool)"}],"numberOfBytes":"160"},"t_uint256":{"encoding":"inplace","label":"uint256","numberOfBytes":"32"},"t_uint32":{"encoding":"inplace","label":"uint32","numberOfBytes":"4"}}},"userdoc":{"kind":"user","methods":{},"version":1}}